{
	"contracts/HBVTracker.sol": {
		"HBVTracker": {
			"abi": [
				{
					"inputs": [],
					"stateMutability": "nonpayable",
					"type": "constructor"
				},
				{
					"inputs": [],
					"name": "ECDSAInvalidSignature",
					"type": "error"
				},
				{
					"inputs": [
						{
							"internalType": "uint256",
							"name": "length",
							"type": "uint256"
						}
					],
					"name": "ECDSAInvalidSignatureLength",
					"type": "error"
				},
				{
					"inputs": [
						{
							"internalType": "bytes32",
							"name": "s",
							"type": "bytes32"
						}
					],
					"name": "ECDSAInvalidSignatureS",
					"type": "error"
				},
				{
					"anonymous": false,
					"inputs": [
						{
							"indexed": true,
							"internalType": "address",
							"name": "provider",
							"type": "address"
						}
					],
					"name": "HealthcareProviderAuthorized",
					"type": "event"
				},
				{
					"anonymous": false,
					"inputs": [
						{
							"indexed": true,
							"internalType": "address",
							"name": "researcher",
							"type": "address"
						}
					],
					"name": "ResearcherAuthorized",
					"type": "event"
				},
				{
					"anonymous": false,
					"inputs": [
						{
							"indexed": true,
							"internalType": "address",
							"name": "patient",
							"type": "address"
						},
						{
							"indexed": false,
							"internalType": "bytes32",
							"name": "dataHash",
							"type": "bytes32"
						}
					],
					"name": "VaccinationStored",
					"type": "event"
				},
				{
					"inputs": [
						{
							"internalType": "address",
							"name": "provider",
							"type": "address"
						}
					],
					"name": "authorizeHealthcareProvider",
					"outputs": [],
					"stateMutability": "nonpayable",
					"type": "function"
				},
				{
					"inputs": [
						{
							"internalType": "address",
							"name": "",
							"type": "address"
						}
					],
					"name": "authorizedHealthcareProviders",
					"outputs": [
						{
							"internalType": "bool",
							"name": "",
							"type": "bool"
						}
					],
					"stateMutability": "view",
					"type": "function"
				},
				{
					"inputs": [
						{
							"internalType": "address",
							"name": "",
							"type": "address"
						}
					],
					"name": "authorizedResearchers",
					"outputs": [
						{
							"internalType": "bool",
							"name": "",
							"type": "bool"
						}
					],
					"stateMutability": "view",
					"type": "function"
				},
				{
					"inputs": [],
					"name": "deployer",
					"outputs": [
						{
							"internalType": "address",
							"name": "",
							"type": "address"
						}
					],
					"stateMutability": "view",
					"type": "function"
				},
				{
					"inputs": [
						{
							"internalType": "address",
							"name": "patient",
							"type": "address"
						}
					],
					"name": "getHashes",
					"outputs": [
						{
							"internalType": "bytes32[]",
							"name": "",
							"type": "bytes32[]"
						}
					],
					"stateMutability": "view",
					"type": "function"
				},
				{
					"inputs": [
						{
							"internalType": "address",
							"name": "researcher",
							"type": "address"
						},
						{
							"internalType": "bytes",
							"name": "signature",
							"type": "bytes"
						}
					],
					"name": "grantAccess",
					"outputs": [],
					"stateMutability": "nonpayable",
					"type": "function"
				},
				{
					"inputs": [
						{
							"internalType": "address",
							"name": "researcher",
							"type": "address"
						}
					],
					"name": "isResearcherAuthorized",
					"outputs": [
						{
							"internalType": "bool",
							"name": "",
							"type": "bool"
						}
					],
					"stateMutability": "view",
					"type": "function"
				},
				{
					"inputs": [
						{
							"internalType": "address",
							"name": "patient",
							"type": "address"
						},
						{
							"internalType": "bytes32",
							"name": "dataHash",
							"type": "bytes32"
						},
						{
							"internalType": "bytes",
							"name": "signature",
							"type": "bytes"
						}
					],
					"name": "storeHash",
					"outputs": [],
					"stateMutability": "nonpayable",
					"type": "function"
				}
			],
			"devdoc": {
				"errors": {
					"ECDSAInvalidSignature()": [
						{
							"details": "The signature derives the `address(0)`."
						}
					],
					"ECDSAInvalidSignatureLength(uint256)": [
						{
							"details": "The signature has an invalid length."
						}
					],
					"ECDSAInvalidSignatureS(bytes32)": [
						{
							"details": "The signature has an S value that is in the upper half order."
						}
					]
				},
				"kind": "dev",
				"methods": {},
				"version": 1
			},
			"evm": {
				"assembly": "    /* \"contracts/HBVTracker.sol\":127:3188  contract HBVTracker {... */\n  mstore(0x40, 0x80)\n    /* \"contracts/HBVTracker.sol\":718:772  constructor() {... */\n  callvalue\n  dup1\n  iszero\n  tag_1\n  jumpi\n  0x00\n  dup1\n  revert\ntag_1:\n  pop\n    /* \"contracts/HBVTracker.sol\":754:764  msg.sender */\n  caller\n    /* \"contracts/HBVTracker.sol\":743:751  deployer */\n  0x00\n  dup1\n    /* \"contracts/HBVTracker.sol\":743:764  deployer = msg.sender */\n  0x0100\n  exp\n  dup2\n  sload\n  dup2\n  0xffffffffffffffffffffffffffffffffffffffff\n  mul\n  not\n  and\n  swap1\n  dup4\n  0xffffffffffffffffffffffffffffffffffffffff\n  and\n  mul\n  or\n  swap1\n  sstore\n  pop\n    /* \"contracts/HBVTracker.sol\":127:3188  contract HBVTracker {... */\n  dataSize(sub_0)\n  dup1\n  dataOffset(sub_0)\n  0x00\n  codecopy\n  0x00\n  return\nstop\n\nsub_0: assembly {\n        /* \"contracts/HBVTracker.sol\":127:3188  contract HBVTracker {... */\n      mstore(0x40, 0x80)\n      callvalue\n      dup1\n      iszero\n      tag_1\n      jumpi\n      0x00\n      dup1\n      revert\n    tag_1:\n      pop\n      jumpi(tag_2, lt(calldatasize, 0x04))\n      shr(0xe0, calldataload(0x00))\n      dup1\n      0x4c249f41\n      gt\n      tag_11\n      jumpi\n      dup1\n      0x4c249f41\n      eq\n      tag_7\n      jumpi\n      dup1\n      0x5d2a4069\n      eq\n      tag_8\n      jumpi\n      dup1\n      0x71062f6a\n      eq\n      tag_9\n      jumpi\n      dup1\n      0xd5f39488\n      eq\n      tag_10\n      jumpi\n      jump(tag_2)\n    tag_11:\n      dup1\n      0x193dd2ea\n      eq\n      tag_3\n      jumpi\n      dup1\n      0x319aafc5\n      eq\n      tag_4\n      jumpi\n      dup1\n      0x39a54102\n      eq\n      tag_5\n      jumpi\n      dup1\n      0x484a861b\n      eq\n      tag_6\n      jumpi\n    tag_2:\n      0x00\n      dup1\n      revert\n        /* \"contracts/HBVTracker.sol\":1750:2188  function getHashes(address patient) public view returns (bytes32[] memory) {... */\n    tag_3:\n      tag_12\n      0x04\n      dup1\n      calldatasize\n      sub\n      dup2\n      add\n      swap1\n      tag_13\n      swap2\n      swap1\n      tag_14\n      jump\t// in\n    tag_13:\n      tag_15\n      jump\t// in\n    tag_12:\n      mload(0x40)\n      tag_16\n      swap2\n      swap1\n      tag_17\n      jump\t// in\n    tag_16:\n      mload(0x40)\n      dup1\n      swap2\n      sub\n      swap1\n      return\n        /* \"contracts/HBVTracker.sol\":453:506  mapping(address => bool) public authorizedResearchers */\n    tag_4:\n      tag_18\n      0x04\n      dup1\n      calldatasize\n      sub\n      dup2\n      add\n      swap1\n      tag_19\n      swap2\n      swap1\n      tag_14\n      jump\t// in\n    tag_19:\n      tag_20\n      jump\t// in\n    tag_18:\n      mload(0x40)\n      tag_21\n      swap2\n      swap1\n      tag_22\n      jump\t// in\n    tag_21:\n      mload(0x40)\n      dup1\n      swap2\n      sub\n      swap1\n      return\n        /* \"contracts/HBVTracker.sol\":855:1116  function authorizeHealthcareProvider(address provider) public {... */\n    tag_5:\n      tag_23\n      0x04\n      dup1\n      calldatasize\n      sub\n      dup2\n      add\n      swap1\n      tag_24\n      swap2\n      swap1\n      tag_14\n      jump\t// in\n    tag_24:\n      tag_25\n      jump\t// in\n    tag_23:\n      stop\n        /* \"contracts/HBVTracker.sol\":2233:2571  function grantAccess(address researcher, bytes memory signature) public {... */\n    tag_6:\n      tag_26\n      0x04\n      dup1\n      calldatasize\n      sub\n      dup2\n      add\n      swap1\n      tag_27\n      swap2\n      swap1\n      tag_28\n      jump\t// in\n    tag_27:\n      tag_29\n      jump\t// in\n    tag_26:\n      stop\n        /* \"contracts/HBVTracker.sol\":1186:1687  function storeHash(address patient, bytes32 dataHash, bytes memory signature) public {... */\n    tag_7:\n      tag_30\n      0x04\n      dup1\n      calldatasize\n      sub\n      dup2\n      add\n      swap1\n      tag_31\n      swap2\n      swap1\n      tag_32\n      jump\t// in\n    tag_31:\n      tag_33\n      jump\t// in\n    tag_30:\n      stop\n        /* \"contracts/HBVTracker.sol\":2621:2759  function isResearcherAuthorized(address researcher) public view returns (bool) {... */\n    tag_8:\n      tag_34\n      0x04\n      dup1\n      calldatasize\n      sub\n      dup2\n      add\n      swap1\n      tag_35\n      swap2\n      swap1\n      tag_14\n      jump\t// in\n    tag_35:\n      tag_36\n      jump\t// in\n    tag_34:\n      mload(0x40)\n      tag_37\n      swap2\n      swap1\n      tag_22\n      jump\t// in\n    tag_37:\n      mload(0x40)\n      dup1\n      swap2\n      sub\n      swap1\n      return\n        /* \"contracts/HBVTracker.sol\":385:446  mapping(address => bool) public authorizedHealthcareProviders */\n    tag_9:\n      tag_38\n      0x04\n      dup1\n      calldatasize\n      sub\n      dup2\n      add\n      swap1\n      tag_39\n      swap2\n      swap1\n      tag_14\n      jump\t// in\n    tag_39:\n      tag_40\n      jump\t// in\n    tag_38:\n      mload(0x40)\n      tag_41\n      swap2\n      swap1\n      tag_22\n      jump\t// in\n    tag_41:\n      mload(0x40)\n      dup1\n      swap2\n      sub\n      swap1\n      return\n        /* \"contracts/HBVTracker.sol\":282:305  address public deployer */\n    tag_10:\n      tag_42\n      tag_43\n      jump\t// in\n    tag_42:\n      mload(0x40)\n      tag_44\n      swap2\n      swap1\n      tag_45\n      jump\t// in\n    tag_44:\n      mload(0x40)\n      dup1\n      swap2\n      sub\n      swap1\n      return\n        /* \"contracts/HBVTracker.sol\":1750:2188  function getHashes(address patient) public view returns (bytes32[] memory) {... */\n    tag_15:\n        /* \"contracts/HBVTracker.sol\":1807:1823  bytes32[] memory */\n      0x60\n        /* \"contracts/HBVTracker.sol\":1881:1882  0 */\n      0x00\n        /* \"contracts/HBVTracker.sol\":1844:1862  vaccinationRecords */\n      0x01\n        /* \"contracts/HBVTracker.sol\":1844:1871  vaccinationRecords[patient] */\n      0x00\n        /* \"contracts/HBVTracker.sol\":1863:1870  patient */\n      dup5\n        /* \"contracts/HBVTracker.sol\":1844:1871  vaccinationRecords[patient] */\n      0xffffffffffffffffffffffffffffffffffffffff\n      and\n      0xffffffffffffffffffffffffffffffffffffffff\n      and\n      dup2\n      mstore\n      0x20\n      add\n      swap1\n      dup2\n      mstore\n      0x20\n      add\n      0x00\n      keccak256\n        /* \"contracts/HBVTracker.sol\":1844:1878  vaccinationRecords[patient].length */\n      dup1\n      sload\n      swap1\n      pop\n        /* \"contracts/HBVTracker.sol\":1844:1882  vaccinationRecords[patient].length > 0 */\n      gt\n        /* \"contracts/HBVTracker.sol\":1836:1915  require(vaccinationRecords[patient].length > 0, \"No vaccination records found\") */\n      tag_47\n      jumpi\n      mload(0x40)\n      0x08c379a000000000000000000000000000000000000000000000000000000000\n      dup2\n      mstore\n      0x04\n      add\n      tag_48\n      swap1\n      tag_49\n      jump\t// in\n    tag_48:\n      mload(0x40)\n      dup1\n      swap2\n      sub\n      swap1\n      revert\n    tag_47:\n        /* \"contracts/HBVTracker.sol\":1928:1951  bytes32[] memory hashes */\n      0x00\n        /* \"contracts/HBVTracker.sol\":1968:1986  vaccinationRecords */\n      0x01\n        /* \"contracts/HBVTracker.sol\":1968:1995  vaccinationRecords[patient] */\n      0x00\n        /* \"contracts/HBVTracker.sol\":1987:1994  patient */\n      dup5\n        /* \"contracts/HBVTracker.sol\":1968:1995  vaccinationRecords[patient] */\n      0xffffffffffffffffffffffffffffffffffffffff\n      and\n      0xffffffffffffffffffffffffffffffffffffffff\n      and\n      dup2\n      mstore\n      0x20\n      add\n      swap1\n      dup2\n      mstore\n      0x20\n      add\n      0x00\n      keccak256\n        /* \"contracts/HBVTracker.sol\":1968:2002  vaccinationRecords[patient].length */\n      dup1\n      sload\n      swap1\n      pop\n        /* \"contracts/HBVTracker.sol\":1954:2003  new bytes32[](vaccinationRecords[patient].length) */\n      0xffffffffffffffff\n      dup2\n      gt\n      iszero\n      tag_50\n      jumpi\n      tag_51\n      tag_52\n      jump\t// in\n    tag_51:\n    tag_50:\n      mload(0x40)\n      swap1\n      dup1\n      dup3\n      mstore\n      dup1\n      0x20\n      mul\n      0x20\n      add\n      dup3\n      add\n      0x40\n      mstore\n      dup1\n      iszero\n      tag_53\n      jumpi\n      dup2\n      0x20\n      add\n      0x20\n      dup3\n      mul\n      dup1\n      calldatasize\n      dup4\n      calldatacopy\n      dup1\n      dup3\n      add\n      swap2\n      pop\n      pop\n      swap1\n      pop\n    tag_53:\n      pop\n        /* \"contracts/HBVTracker.sol\":1928:2003  bytes32[] memory hashes = new bytes32[](vaccinationRecords[patient].length) */\n      swap1\n      pop\n        /* \"contracts/HBVTracker.sol\":2019:2028  uint256 i */\n      0x00\n        /* \"contracts/HBVTracker.sol\":2014:2157  for (uint256 i = 0; i < vaccinationRecords[patient].length; i++) {... */\n    tag_54:\n        /* \"contracts/HBVTracker.sol\":2038:2056  vaccinationRecords */\n      0x01\n        /* \"contracts/HBVTracker.sol\":2038:2065  vaccinationRecords[patient] */\n      0x00\n        /* \"contracts/HBVTracker.sol\":2057:2064  patient */\n      dup6\n        /* \"contracts/HBVTracker.sol\":2038:2065  vaccinationRecords[patient] */\n      0xffffffffffffffffffffffffffffffffffffffff\n      and\n      0xffffffffffffffffffffffffffffffffffffffff\n      and\n      dup2\n      mstore\n      0x20\n      add\n      swap1\n      dup2\n      mstore\n      0x20\n      add\n      0x00\n      keccak256\n        /* \"contracts/HBVTracker.sol\":2038:2072  vaccinationRecords[patient].length */\n      dup1\n      sload\n      swap1\n      pop\n        /* \"contracts/HBVTracker.sol\":2034:2035  i */\n      dup2\n        /* \"contracts/HBVTracker.sol\":2034:2072  i < vaccinationRecords[patient].length */\n      lt\n        /* \"contracts/HBVTracker.sol\":2014:2157  for (uint256 i = 0; i < vaccinationRecords[patient].length; i++) {... */\n      iszero\n      tag_55\n      jumpi\n        /* \"contracts/HBVTracker.sol\":2106:2124  vaccinationRecords */\n      0x01\n        /* \"contracts/HBVTracker.sol\":2106:2133  vaccinationRecords[patient] */\n      0x00\n        /* \"contracts/HBVTracker.sol\":2125:2132  patient */\n      dup6\n        /* \"contracts/HBVTracker.sol\":2106:2133  vaccinationRecords[patient] */\n      0xffffffffffffffffffffffffffffffffffffffff\n      and\n      0xffffffffffffffffffffffffffffffffffffffff\n      and\n      dup2\n      mstore\n      0x20\n      add\n      swap1\n      dup2\n      mstore\n      0x20\n      add\n      0x00\n      keccak256\n        /* \"contracts/HBVTracker.sol\":2134:2135  i */\n      dup2\n        /* \"contracts/HBVTracker.sol\":2106:2136  vaccinationRecords[patient][i] */\n      dup2\n      sload\n      dup2\n      lt\n      tag_57\n      jumpi\n      tag_58\n      tag_59\n      jump\t// in\n    tag_58:\n    tag_57:\n      swap1\n      0x00\n      mstore\n      keccak256(0x00, 0x20)\n      swap1\n      0x02\n      mul\n      add\n        /* \"contracts/HBVTracker.sol\":2106:2145  vaccinationRecords[patient][i].dataHash */\n      0x00\n      add\n      sload\n        /* \"contracts/HBVTracker.sol\":2094:2100  hashes */\n      dup3\n        /* \"contracts/HBVTracker.sol\":2101:2102  i */\n      dup3\n        /* \"contracts/HBVTracker.sol\":2094:2103  hashes[i] */\n      dup2\n      mload\n      dup2\n      lt\n      tag_61\n      jumpi\n      tag_62\n      tag_59\n      jump\t// in\n    tag_62:\n    tag_61:\n      0x20\n      mul\n      0x20\n      add\n      add\n        /* \"contracts/HBVTracker.sol\":2094:2145  hashes[i] = vaccinationRecords[patient][i].dataHash */\n      dup2\n      dup2\n      mstore\n      pop\n      pop\n        /* \"contracts/HBVTracker.sol\":2074:2077  i++ */\n      dup1\n      dup1\n      0x01\n      add\n      swap2\n      pop\n      pop\n        /* \"contracts/HBVTracker.sol\":2014:2157  for (uint256 i = 0; i < vaccinationRecords[patient].length; i++) {... */\n      jump(tag_54)\n    tag_55:\n      pop\n        /* \"contracts/HBVTracker.sol\":2174:2180  hashes */\n      dup1\n        /* \"contracts/HBVTracker.sol\":2167:2180  return hashes */\n      swap2\n      pop\n      pop\n        /* \"contracts/HBVTracker.sol\":1750:2188  function getHashes(address patient) public view returns (bytes32[] memory) {... */\n      swap2\n      swap1\n      pop\n      jump\t// out\n        /* \"contracts/HBVTracker.sol\":453:506  mapping(address => bool) public authorizedResearchers */\n    tag_20:\n      mstore(0x20, 0x03)\n      dup1\n      0x00\n      mstore\n      keccak256(0x00, 0x40)\n      0x00\n      swap2\n      pop\n      sload\n      swap1\n      0x0100\n      exp\n      swap1\n      div\n      0xff\n      and\n      dup2\n      jump\t// out\n        /* \"contracts/HBVTracker.sol\":855:1116  function authorizeHealthcareProvider(address provider) public {... */\n    tag_25:\n        /* \"contracts/HBVTracker.sol\":950:958  deployer */\n      0x00\n      dup1\n      sload\n      swap1\n      0x0100\n      exp\n      swap1\n      div\n      0xffffffffffffffffffffffffffffffffffffffff\n      and\n        /* \"contracts/HBVTracker.sol\":936:958  msg.sender == deployer */\n      0xffffffffffffffffffffffffffffffffffffffff\n      and\n        /* \"contracts/HBVTracker.sol\":936:946  msg.sender */\n      caller\n        /* \"contracts/HBVTracker.sol\":936:958  msg.sender == deployer */\n      0xffffffffffffffffffffffffffffffffffffffff\n      and\n      eq\n        /* \"contracts/HBVTracker.sol\":928:997  require(msg.sender == deployer, \"Only admin can authorize providers\") */\n      tag_64\n      jumpi\n      mload(0x40)\n      0x08c379a000000000000000000000000000000000000000000000000000000000\n      dup2\n      mstore\n      0x04\n      add\n      tag_65\n      swap1\n      tag_66\n      jump\t// in\n    tag_65:\n      mload(0x40)\n      dup1\n      swap2\n      sub\n      swap1\n      revert\n    tag_64:\n        /* \"contracts/HBVTracker.sol\":1050:1054  true */\n      0x01\n        /* \"contracts/HBVTracker.sol\":1008:1037  authorizedHealthcareProviders */\n      0x02\n        /* \"contracts/HBVTracker.sol\":1008:1047  authorizedHealthcareProviders[provider] */\n      0x00\n        /* \"contracts/HBVTracker.sol\":1038:1046  provider */\n      dup4\n        /* \"contracts/HBVTracker.sol\":1008:1047  authorizedHealthcareProviders[provider] */\n      0xffffffffffffffffffffffffffffffffffffffff\n      and\n      0xffffffffffffffffffffffffffffffffffffffff\n      and\n      dup2\n      mstore\n      0x20\n      add\n      swap1\n      dup2\n      mstore\n      0x20\n      add\n      0x00\n      keccak256\n      0x00\n        /* \"contracts/HBVTracker.sol\":1008:1054  authorizedHealthcareProviders[provider] = true */\n      0x0100\n      exp\n      dup2\n      sload\n      dup2\n      0xff\n      mul\n      not\n      and\n      swap1\n      dup4\n      iszero\n      iszero\n      mul\n      or\n      swap1\n      sstore\n      pop\n        /* \"contracts/HBVTracker.sol\":1099:1107  provider */\n      dup1\n        /* \"contracts/HBVTracker.sol\":1070:1108  HealthcareProviderAuthorized(provider) */\n      0xffffffffffffffffffffffffffffffffffffffff\n      and\n      0xe59ea020a257267a06180dd8de9094ad5a56e2333dbea8829a7f69a3cb8b3c8a\n      mload(0x40)\n      mload(0x40)\n      dup1\n      swap2\n      sub\n      swap1\n      log2\n        /* \"contracts/HBVTracker.sol\":855:1116  function authorizeHealthcareProvider(address provider) public {... */\n      pop\n      jump\t// out\n        /* \"contracts/HBVTracker.sol\":2233:2571  function grantAccess(address researcher, bytes memory signature) public {... */\n    tag_29:\n        /* \"contracts/HBVTracker.sol\":2338:2417  verifySignature(msg.sender, keccak256(abi.encodePacked(researcher)), signature) */\n      tag_68\n        /* \"contracts/HBVTracker.sol\":2354:2364  msg.sender */\n      caller\n        /* \"contracts/HBVTracker.sol\":2393:2403  researcher */\n      dup4\n        /* \"contracts/HBVTracker.sol\":2376:2404  abi.encodePacked(researcher) */\n      add(0x20, mload(0x40))\n      tag_69\n      swap2\n      swap1\n      tag_70\n      jump\t// in\n    tag_69:\n      mload(0x40)\n      0x20\n      dup2\n      dup4\n      sub\n      sub\n      dup2\n      mstore\n      swap1\n      0x40\n      mstore\n        /* \"contracts/HBVTracker.sol\":2366:2405  keccak256(abi.encodePacked(researcher)) */\n      dup1\n      mload\n      swap1\n      0x20\n      add\n      keccak256\n        /* \"contracts/HBVTracker.sol\":2407:2416  signature */\n      dup4\n        /* \"contracts/HBVTracker.sol\":2338:2353  verifySignature */\n      tag_71\n        /* \"contracts/HBVTracker.sol\":2338:2417  verifySignature(msg.sender, keccak256(abi.encodePacked(researcher)), signature) */\n      jump\t// in\n    tag_68:\n        /* \"contracts/HBVTracker.sol\":2316:2462  require(... */\n      tag_72\n      jumpi\n      mload(0x40)\n      0x08c379a000000000000000000000000000000000000000000000000000000000\n      dup2\n      mstore\n      0x04\n      add\n      tag_73\n      swap1\n      tag_74\n      jump\t// in\n    tag_73:\n      mload(0x40)\n      dup1\n      swap2\n      sub\n      swap1\n      revert\n    tag_72:\n        /* \"contracts/HBVTracker.sol\":2511:2515  true */\n      0x01\n        /* \"contracts/HBVTracker.sol\":2475:2496  authorizedResearchers */\n      0x03\n        /* \"contracts/HBVTracker.sol\":2475:2508  authorizedResearchers[researcher] */\n      0x00\n        /* \"contracts/HBVTracker.sol\":2497:2507  researcher */\n      dup5\n        /* \"contracts/HBVTracker.sol\":2475:2508  authorizedResearchers[researcher] */\n      0xffffffffffffffffffffffffffffffffffffffff\n      and\n      0xffffffffffffffffffffffffffffffffffffffff\n      and\n      dup2\n      mstore\n      0x20\n      add\n      swap1\n      dup2\n      mstore\n      0x20\n      add\n      0x00\n      keccak256\n      0x00\n        /* \"contracts/HBVTracker.sol\":2475:2515  authorizedResearchers[researcher] = true */\n      0x0100\n      exp\n      dup2\n      sload\n      dup2\n      0xff\n      mul\n      not\n      and\n      swap1\n      dup4\n      iszero\n      iszero\n      mul\n      or\n      swap1\n      sstore\n      pop\n        /* \"contracts/HBVTracker.sol\":2552:2562  researcher */\n      dup2\n        /* \"contracts/HBVTracker.sol\":2531:2563  ResearcherAuthorized(researcher) */\n      0xffffffffffffffffffffffffffffffffffffffff\n      and\n      0xc9e11c8d271053b41f88ce51c41d8a8905b38e440272e8670cf4e1798a840181\n      mload(0x40)\n      mload(0x40)\n      dup1\n      swap2\n      sub\n      swap1\n      log2\n        /* \"contracts/HBVTracker.sol\":2233:2571  function grantAccess(address researcher, bytes memory signature) public {... */\n      pop\n      pop\n      jump\t// out\n        /* \"contracts/HBVTracker.sol\":1186:1687  function storeHash(address patient, bytes32 dataHash, bytes memory signature) public {... */\n    tag_33:\n        /* \"contracts/HBVTracker.sol\":1304:1352  verifySignature(msg.sender, dataHash, signature) */\n      tag_76\n        /* \"contracts/HBVTracker.sol\":1320:1330  msg.sender */\n      caller\n        /* \"contracts/HBVTracker.sol\":1332:1340  dataHash */\n      dup4\n        /* \"contracts/HBVTracker.sol\":1342:1351  signature */\n      dup4\n        /* \"contracts/HBVTracker.sol\":1304:1319  verifySignature */\n      tag_71\n        /* \"contracts/HBVTracker.sol\":1304:1352  verifySignature(msg.sender, dataHash, signature) */\n      jump\t// in\n    tag_76:\n        /* \"contracts/HBVTracker.sol\":1282:1397  require(... */\n      tag_77\n      jumpi\n      mload(0x40)\n      0x08c379a000000000000000000000000000000000000000000000000000000000\n      dup2\n      mstore\n      0x04\n      add\n      tag_78\n      swap1\n      tag_74\n      jump\t// in\n    tag_78:\n      mload(0x40)\n      dup1\n      swap2\n      sub\n      swap1\n      revert\n    tag_77:\n        /* \"contracts/HBVTracker.sol\":1430:1459  authorizedHealthcareProviders */\n      0x02\n        /* \"contracts/HBVTracker.sol\":1430:1471  authorizedHealthcareProviders[msg.sender] */\n      0x00\n        /* \"contracts/HBVTracker.sol\":1460:1470  msg.sender */\n      caller\n        /* \"contracts/HBVTracker.sol\":1430:1471  authorizedHealthcareProviders[msg.sender] */\n      0xffffffffffffffffffffffffffffffffffffffff\n      and\n      0xffffffffffffffffffffffffffffffffffffffff\n      and\n      dup2\n      mstore\n      0x20\n      add\n      swap1\n      dup2\n      mstore\n      0x20\n      add\n      0x00\n      keccak256\n      0x00\n      swap1\n      sload\n      swap1\n      0x0100\n      exp\n      swap1\n      div\n      0xff\n      and\n        /* \"contracts/HBVTracker.sol\":1408:1536  require(... */\n      tag_79\n      jumpi\n      mload(0x40)\n      0x08c379a000000000000000000000000000000000000000000000000000000000\n      dup2\n      mstore\n      0x04\n      add\n      tag_80\n      swap1\n      tag_81\n      jump\t// in\n    tag_80:\n      mload(0x40)\n      dup1\n      swap2\n      sub\n      swap1\n      revert\n    tag_79:\n        /* \"contracts/HBVTracker.sol\":1549:1567  vaccinationRecords */\n      0x01\n        /* \"contracts/HBVTracker.sol\":1549:1576  vaccinationRecords[patient] */\n      0x00\n        /* \"contracts/HBVTracker.sol\":1568:1575  patient */\n      dup5\n        /* \"contracts/HBVTracker.sol\":1549:1576  vaccinationRecords[patient] */\n      0xffffffffffffffffffffffffffffffffffffffff\n      and\n      0xffffffffffffffffffffffffffffffffffffffff\n      and\n      dup2\n      mstore\n      0x20\n      add\n      swap1\n      dup2\n      mstore\n      0x20\n      add\n      0x00\n      keccak256\n        /* \"contracts/HBVTracker.sol\":1582:1626  VaccinationRecord(dataHash, block.timestamp) */\n      mload(0x40)\n      dup1\n      0x40\n      add\n      0x40\n      mstore\n      dup1\n        /* \"contracts/HBVTracker.sol\":1600:1608  dataHash */\n      dup5\n        /* \"contracts/HBVTracker.sol\":1582:1626  VaccinationRecord(dataHash, block.timestamp) */\n      dup2\n      mstore\n      0x20\n      add\n        /* \"contracts/HBVTracker.sol\":1610:1625  block.timestamp */\n      timestamp\n        /* \"contracts/HBVTracker.sol\":1582:1626  VaccinationRecord(dataHash, block.timestamp) */\n      dup2\n      mstore\n      pop\n        /* \"contracts/HBVTracker.sol\":1549:1627  vaccinationRecords[patient].push(VaccinationRecord(dataHash, block.timestamp)) */\n      swap1\n      dup1\n      0x01\n      dup2\n      sload\n      add\n      dup1\n      dup3\n      sstore\n      dup1\n      swap2\n      pop\n      pop\n      0x01\n      swap1\n      sub\n      swap1\n      0x00\n      mstore\n      keccak256(0x00, 0x20)\n      swap1\n      0x02\n      mul\n      add\n      0x00\n      swap1\n      swap2\n      swap1\n      swap2\n      swap1\n      swap2\n      pop\n      0x00\n      dup3\n      add\n      mload\n      dup2\n      0x00\n      add\n      sstore\n      0x20\n      dup3\n      add\n      mload\n      dup2\n      0x01\n      add\n      sstore\n      pop\n      pop\n        /* \"contracts/HBVTracker.sol\":1661:1668  patient */\n      dup3\n        /* \"contracts/HBVTracker.sol\":1643:1679  VaccinationStored(patient, dataHash) */\n      0xffffffffffffffffffffffffffffffffffffffff\n      and\n      0x7208cf187afe0ab072008f517860923b908309e019c6a39e32cd71eebb7252d1\n        /* \"contracts/HBVTracker.sol\":1670:1678  dataHash */\n      dup4\n        /* \"contracts/HBVTracker.sol\":1643:1679  VaccinationStored(patient, dataHash) */\n      mload(0x40)\n      tag_83\n      swap2\n      swap1\n      tag_84\n      jump\t// in\n    tag_83:\n      mload(0x40)\n      dup1\n      swap2\n      sub\n      swap1\n      log2\n        /* \"contracts/HBVTracker.sol\":1186:1687  function storeHash(address patient, bytes32 dataHash, bytes memory signature) public {... */\n      pop\n      pop\n      pop\n      jump\t// out\n        /* \"contracts/HBVTracker.sol\":2621:2759  function isResearcherAuthorized(address researcher) public view returns (bool) {... */\n    tag_36:\n        /* \"contracts/HBVTracker.sol\":2694:2698  bool */\n      0x00\n        /* \"contracts/HBVTracker.sol\":2718:2739  authorizedResearchers */\n      0x03\n        /* \"contracts/HBVTracker.sol\":2718:2751  authorizedResearchers[researcher] */\n      0x00\n        /* \"contracts/HBVTracker.sol\":2740:2750  researcher */\n      dup4\n        /* \"contracts/HBVTracker.sol\":2718:2751  authorizedResearchers[researcher] */\n      0xffffffffffffffffffffffffffffffffffffffff\n      and\n      0xffffffffffffffffffffffffffffffffffffffff\n      and\n      dup2\n      mstore\n      0x20\n      add\n      swap1\n      dup2\n      mstore\n      0x20\n      add\n      0x00\n      keccak256\n      0x00\n      swap1\n      sload\n      swap1\n      0x0100\n      exp\n      swap1\n      div\n      0xff\n      and\n        /* \"contracts/HBVTracker.sol\":2711:2751  return authorizedResearchers[researcher] */\n      swap1\n      pop\n        /* \"contracts/HBVTracker.sol\":2621:2759  function isResearcherAuthorized(address researcher) public view returns (bool) {... */\n      swap2\n      swap1\n      pop\n      jump\t// out\n        /* \"contracts/HBVTracker.sol\":385:446  mapping(address => bool) public authorizedHealthcareProviders */\n    tag_40:\n      mstore(0x20, 0x02)\n      dup1\n      0x00\n      mstore\n      keccak256(0x00, 0x40)\n      0x00\n      swap2\n      pop\n      sload\n      swap1\n      0x0100\n      exp\n      swap1\n      div\n      0xff\n      and\n      dup2\n      jump\t// out\n        /* \"contracts/HBVTracker.sol\":282:305  address public deployer */\n    tag_43:\n      0x00\n      dup1\n      sload\n      swap1\n      0x0100\n      exp\n      swap1\n      div\n      0xffffffffffffffffffffffffffffffffffffffff\n      and\n      dup2\n      jump\t// out\n        /* \"contracts/HBVTracker.sol\":2825:3185  function verifySignature(... */\n    tag_71:\n        /* \"contracts/HBVTracker.sol\":2965:2969  bool */\n      0x00\n        /* \"contracts/HBVTracker.sol\":2982:3010  bytes32 ethSignedMessageHash */\n      dup1\n        /* \"contracts/HBVTracker.sol\":3090:3098  dataHash */\n      dup4\n        /* \"contracts/HBVTracker.sol\":3037:3099  abi.encodePacked(\"\\x19Ethereum Signed Message:\\n32\", dataHash) */\n      add(0x20, mload(0x40))\n      tag_87\n      swap2\n      swap1\n      tag_88\n      jump\t// in\n    tag_87:\n      mload(0x40)\n      0x20\n      dup2\n      dup4\n      sub\n      sub\n      dup2\n      mstore\n      swap1\n      0x40\n      mstore\n        /* \"contracts/HBVTracker.sol\":3013:3110  keccak256(... */\n      dup1\n      mload\n      swap1\n      0x20\n      add\n      keccak256\n        /* \"contracts/HBVTracker.sol\":2982:3110  bytes32 ethSignedMessageHash = keccak256(... */\n      swap1\n      pop\n        /* \"contracts/HBVTracker.sol\":3171:3177  signer */\n      dup5\n        /* \"contracts/HBVTracker.sol\":3128:3177  ethSignedMessageHash.recover(signature) == signer */\n      0xffffffffffffffffffffffffffffffffffffffff\n      and\n        /* \"contracts/HBVTracker.sol\":3128:3167  ethSignedMessageHash.recover(signature) */\n      tag_89\n        /* \"contracts/HBVTracker.sol\":3157:3166  signature */\n      dup5\n        /* \"contracts/HBVTracker.sol\":3128:3148  ethSignedMessageHash */\n      dup4\n        /* \"contracts/HBVTracker.sol\":3128:3156  ethSignedMessageHash.recover */\n      tag_90\n      swap1\n        /* \"contracts/HBVTracker.sol\":3128:3167  ethSignedMessageHash.recover(signature) */\n      swap2\n      swap1\n      0xffffffff\n      and\n      jump\t// in\n    tag_89:\n        /* \"contracts/HBVTracker.sol\":3128:3177  ethSignedMessageHash.recover(signature) == signer */\n      0xffffffffffffffffffffffffffffffffffffffff\n      and\n      eq\n        /* \"contracts/HBVTracker.sol\":3121:3177  return ethSignedMessageHash.recover(signature) == signer */\n      swap2\n      pop\n      pop\n        /* \"contracts/HBVTracker.sol\":2825:3185  function verifySignature(... */\n      swap4\n      swap3\n      pop\n      pop\n      pop\n      jump\t// out\n        /* \"@openzeppelin/contracts/utils/cryptography/ECDSA.sol\":3714:3969  function recover(bytes32 hash, bytes memory signature) internal pure returns (address) {... */\n    tag_90:\n        /* \"@openzeppelin/contracts/utils/cryptography/ECDSA.sol\":3792:3799  address */\n      0x00\n        /* \"@openzeppelin/contracts/utils/cryptography/ECDSA.sol\":3812:3829  address recovered */\n      dup1\n        /* \"@openzeppelin/contracts/utils/cryptography/ECDSA.sol\":3831:3849  RecoverError error */\n      0x00\n        /* \"@openzeppelin/contracts/utils/cryptography/ECDSA.sol\":3851:3867  bytes32 errorArg */\n      dup1\n        /* \"@openzeppelin/contracts/utils/cryptography/ECDSA.sol\":3871:3898  tryRecover(hash, signature) */\n      tag_92\n        /* \"@openzeppelin/contracts/utils/cryptography/ECDSA.sol\":3882:3886  hash */\n      dup7\n        /* \"@openzeppelin/contracts/utils/cryptography/ECDSA.sol\":3888:3897  signature */\n      dup7\n        /* \"@openzeppelin/contracts/utils/cryptography/ECDSA.sol\":3871:3881  tryRecover */\n      tag_93\n        /* \"@openzeppelin/contracts/utils/cryptography/ECDSA.sol\":3871:3898  tryRecover(hash, signature) */\n      jump\t// in\n    tag_92:\n        /* \"@openzeppelin/contracts/utils/cryptography/ECDSA.sol\":3811:3898  (address recovered, RecoverError error, bytes32 errorArg) = tryRecover(hash, signature) */\n      swap3\n      pop\n      swap3\n      pop\n      swap3\n      pop\n        /* \"@openzeppelin/contracts/utils/cryptography/ECDSA.sol\":3908:3936  _throwError(error, errorArg) */\n      tag_94\n        /* \"@openzeppelin/contracts/utils/cryptography/ECDSA.sol\":3920:3925  error */\n      dup3\n        /* \"@openzeppelin/contracts/utils/cryptography/ECDSA.sol\":3927:3935  errorArg */\n      dup3\n        /* \"@openzeppelin/contracts/utils/cryptography/ECDSA.sol\":3908:3919  _throwError */\n      tag_95\n        /* \"@openzeppelin/contracts/utils/cryptography/ECDSA.sol\":3908:3936  _throwError(error, errorArg) */\n      jump\t// in\n    tag_94:\n        /* \"@openzeppelin/contracts/utils/cryptography/ECDSA.sol\":3953:3962  recovered */\n      dup3\n        /* \"@openzeppelin/contracts/utils/cryptography/ECDSA.sol\":3946:3962  return recovered */\n      swap4\n      pop\n      pop\n      pop\n      pop\n        /* \"@openzeppelin/contracts/utils/cryptography/ECDSA.sol\":3714:3969  function recover(bytes32 hash, bytes memory signature) internal pure returns (address) {... */\n      swap3\n      swap2\n      pop\n      pop\n      jump\t// out\n        /* \"@openzeppelin/contracts/utils/cryptography/ECDSA.sol\":2129:2907  function tryRecover(... */\n    tag_93:\n        /* \"@openzeppelin/contracts/utils/cryptography/ECDSA.sol\":2232:2249  address recovered */\n      0x00\n        /* \"@openzeppelin/contracts/utils/cryptography/ECDSA.sol\":2251:2267  RecoverError err */\n      dup1\n        /* \"@openzeppelin/contracts/utils/cryptography/ECDSA.sol\":2269:2283  bytes32 errArg */\n      0x00\n        /* \"@openzeppelin/contracts/utils/cryptography/ECDSA.sol\":2319:2321  65 */\n      0x41\n        /* \"@openzeppelin/contracts/utils/cryptography/ECDSA.sol\":2299:2308  signature */\n      dup5\n        /* \"@openzeppelin/contracts/utils/cryptography/ECDSA.sol\":2299:2315  signature.length */\n      mload\n        /* \"@openzeppelin/contracts/utils/cryptography/ECDSA.sol\":2299:2321  signature.length == 65 */\n      sub\n        /* \"@openzeppelin/contracts/utils/cryptography/ECDSA.sol\":2295:2901  if (signature.length == 65) {... */\n      tag_97\n      jumpi\n        /* \"@openzeppelin/contracts/utils/cryptography/ECDSA.sol\":2337:2346  bytes32 r */\n      0x00\n        /* \"@openzeppelin/contracts/utils/cryptography/ECDSA.sol\":2360:2369  bytes32 s */\n      dup1\n        /* \"@openzeppelin/contracts/utils/cryptography/ECDSA.sol\":2383:2390  uint8 v */\n      0x00\n        /* \"@openzeppelin/contracts/utils/cryptography/ECDSA.sol\":2604:2608  0x20 */\n      0x20\n        /* \"@openzeppelin/contracts/utils/cryptography/ECDSA.sol\":2593:2602  signature */\n      dup8\n        /* \"@openzeppelin/contracts/utils/cryptography/ECDSA.sol\":2589:2609  add(signature, 0x20) */\n      add\n        /* \"@openzeppelin/contracts/utils/cryptography/ECDSA.sol\":2583:2610  mload(add(signature, 0x20)) */\n      mload\n        /* \"@openzeppelin/contracts/utils/cryptography/ECDSA.sol\":2578:2610  r := mload(add(signature, 0x20)) */\n      swap3\n      pop\n        /* \"@openzeppelin/contracts/utils/cryptography/ECDSA.sol\":2653:2657  0x40 */\n      0x40\n        /* \"@openzeppelin/contracts/utils/cryptography/ECDSA.sol\":2642:2651  signature */\n      dup8\n        /* \"@openzeppelin/contracts/utils/cryptography/ECDSA.sol\":2638:2658  add(signature, 0x40) */\n      add\n        /* \"@openzeppelin/contracts/utils/cryptography/ECDSA.sol\":2632:2659  mload(add(signature, 0x40)) */\n      mload\n        /* \"@openzeppelin/contracts/utils/cryptography/ECDSA.sol\":2627:2659  s := mload(add(signature, 0x40)) */\n      swap2\n      pop\n        /* \"@openzeppelin/contracts/utils/cryptography/ECDSA.sol\":2710:2714  0x60 */\n      0x60\n        /* \"@openzeppelin/contracts/utils/cryptography/ECDSA.sol\":2699:2708  signature */\n      dup8\n        /* \"@openzeppelin/contracts/utils/cryptography/ECDSA.sol\":2695:2715  add(signature, 0x60) */\n      add\n        /* \"@openzeppelin/contracts/utils/cryptography/ECDSA.sol\":2689:2716  mload(add(signature, 0x60)) */\n      mload\n        /* \"@openzeppelin/contracts/utils/cryptography/ECDSA.sol\":2686:2687  0 */\n      0x00\n        /* \"@openzeppelin/contracts/utils/cryptography/ECDSA.sol\":2681:2717  byte(0, mload(add(signature, 0x60))) */\n      byte\n        /* \"@openzeppelin/contracts/utils/cryptography/ECDSA.sol\":2676:2717  v := byte(0, mload(add(signature, 0x60))) */\n      swap1\n      pop\n        /* \"@openzeppelin/contracts/utils/cryptography/ECDSA.sol\":2751:2776  tryRecover(hash, v, r, s) */\n      tag_98\n        /* \"@openzeppelin/contracts/utils/cryptography/ECDSA.sol\":2762:2766  hash */\n      dup9\n        /* \"@openzeppelin/contracts/utils/cryptography/ECDSA.sol\":2768:2769  v */\n      dup3\n        /* \"@openzeppelin/contracts/utils/cryptography/ECDSA.sol\":2771:2772  r */\n      dup6\n        /* \"@openzeppelin/contracts/utils/cryptography/ECDSA.sol\":2774:2775  s */\n      dup6\n        /* \"@openzeppelin/contracts/utils/cryptography/ECDSA.sol\":2751:2761  tryRecover */\n      tag_99\n        /* \"@openzeppelin/contracts/utils/cryptography/ECDSA.sol\":2751:2776  tryRecover(hash, v, r, s) */\n      jump\t// in\n    tag_98:\n        /* \"@openzeppelin/contracts/utils/cryptography/ECDSA.sol\":2744:2776  return tryRecover(hash, v, r, s) */\n      swap6\n      pop\n      swap6\n      pop\n      swap6\n      pop\n      pop\n      pop\n      pop\n      jump(tag_96)\n        /* \"@openzeppelin/contracts/utils/cryptography/ECDSA.sol\":2295:2901  if (signature.length == 65) {... */\n    tag_97:\n        /* \"@openzeppelin/contracts/utils/cryptography/ECDSA.sol\":2823:2824  0 */\n      0x00\n        /* \"@openzeppelin/contracts/utils/cryptography/ECDSA.sol\":2827:2862  RecoverError.InvalidSignatureLength */\n      0x02\n        /* \"@openzeppelin/contracts/utils/cryptography/ECDSA.sol\":2872:2881  signature */\n      dup6\n        /* \"@openzeppelin/contracts/utils/cryptography/ECDSA.sol\":2872:2888  signature.length */\n      mload\n        /* \"@openzeppelin/contracts/utils/cryptography/ECDSA.sol\":2864:2889  bytes32(signature.length) */\n      0x00\n      shl\n        /* \"@openzeppelin/contracts/utils/cryptography/ECDSA.sol\":2807:2890  return (address(0), RecoverError.InvalidSignatureLength, bytes32(signature.length)) */\n      swap3\n      pop\n      swap3\n      pop\n      swap3\n      pop\n        /* \"@openzeppelin/contracts/utils/cryptography/ECDSA.sol\":2129:2907  function tryRecover(... */\n    tag_96:\n      swap3\n      pop\n      swap3\n      pop\n      swap3\n      jump\t// out\n        /* \"@openzeppelin/contracts/utils/cryptography/ECDSA.sol\":7280:7812  function _throwError(RecoverError error, bytes32 errorArg) private pure {... */\n    tag_95:\n        /* \"@openzeppelin/contracts/utils/cryptography/ECDSA.sol\":7375:7395  RecoverError.NoError */\n      0x00\n        /* \"@openzeppelin/contracts/utils/cryptography/ECDSA.sol\":7366:7395  error == RecoverError.NoError */\n      0x03\n      dup2\n      gt\n      iszero\n      tag_102\n      jumpi\n      tag_103\n      tag_104\n      jump\t// in\n    tag_103:\n    tag_102:\n        /* \"@openzeppelin/contracts/utils/cryptography/ECDSA.sol\":7366:7371  error */\n      dup3\n        /* \"@openzeppelin/contracts/utils/cryptography/ECDSA.sol\":7366:7395  error == RecoverError.NoError */\n      0x03\n      dup2\n      gt\n      iszero\n      tag_105\n      jumpi\n      tag_106\n      tag_104\n      jump\t// in\n    tag_106:\n    tag_105:\n      sub\n        /* \"@openzeppelin/contracts/utils/cryptography/ECDSA.sol\":7362:7806  if (error == RecoverError.NoError) {... */\n      iszero\n        /* \"@openzeppelin/contracts/utils/cryptography/ECDSA.sol\":7411:7418  return; */\n      tag_101\n        /* \"@openzeppelin/contracts/utils/cryptography/ECDSA.sol\":7362:7806  if (error == RecoverError.NoError) {... */\n      jumpi\n        /* \"@openzeppelin/contracts/utils/cryptography/ECDSA.sol\":7471:7500  RecoverError.InvalidSignature */\n      0x01\n        /* \"@openzeppelin/contracts/utils/cryptography/ECDSA.sol\":7462:7500  error == RecoverError.InvalidSignature */\n      0x03\n      dup2\n      gt\n      iszero\n      tag_109\n      jumpi\n      tag_110\n      tag_104\n      jump\t// in\n    tag_110:\n    tag_109:\n        /* \"@openzeppelin/contracts/utils/cryptography/ECDSA.sol\":7462:7467  error */\n      dup3\n        /* \"@openzeppelin/contracts/utils/cryptography/ECDSA.sol\":7462:7500  error == RecoverError.InvalidSignature */\n      0x03\n      dup2\n      gt\n      iszero\n      tag_111\n      jumpi\n      tag_112\n      tag_104\n      jump\t// in\n    tag_112:\n    tag_111:\n      sub\n        /* \"@openzeppelin/contracts/utils/cryptography/ECDSA.sol\":7458:7806  if (error == RecoverError.InvalidSignature) {... */\n      tag_113\n      jumpi\n        /* \"@openzeppelin/contracts/utils/cryptography/ECDSA.sol\":7523:7546  ECDSAInvalidSignature() */\n      mload(0x40)\n      0xf645eedf00000000000000000000000000000000000000000000000000000000\n      dup2\n      mstore\n      0x04\n      add\n      mload(0x40)\n      dup1\n      swap2\n      sub\n      swap1\n      revert\n        /* \"@openzeppelin/contracts/utils/cryptography/ECDSA.sol\":7458:7806  if (error == RecoverError.InvalidSignature) {... */\n    tag_113:\n        /* \"@openzeppelin/contracts/utils/cryptography/ECDSA.sol\":7576:7611  RecoverError.InvalidSignatureLength */\n      0x02\n        /* \"@openzeppelin/contracts/utils/cryptography/ECDSA.sol\":7567:7611  error == RecoverError.InvalidSignatureLength */\n      0x03\n      dup2\n      gt\n      iszero\n      tag_115\n      jumpi\n      tag_116\n      tag_104\n      jump\t// in\n    tag_116:\n    tag_115:\n        /* \"@openzeppelin/contracts/utils/cryptography/ECDSA.sol\":7567:7572  error */\n      dup3\n        /* \"@openzeppelin/contracts/utils/cryptography/ECDSA.sol\":7567:7611  error == RecoverError.InvalidSignatureLength */\n      0x03\n      dup2\n      gt\n      iszero\n      tag_117\n      jumpi\n      tag_118\n      tag_104\n      jump\t// in\n    tag_118:\n    tag_117:\n      sub\n        /* \"@openzeppelin/contracts/utils/cryptography/ECDSA.sol\":7563:7806  if (error == RecoverError.InvalidSignatureLength) {... */\n      tag_119\n      jumpi\n        /* \"@openzeppelin/contracts/utils/cryptography/ECDSA.sol\":7670:7678  errorArg */\n      dup1\n        /* \"@openzeppelin/contracts/utils/cryptography/ECDSA.sol\":7662:7679  uint256(errorArg) */\n      0x00\n      shr\n        /* \"@openzeppelin/contracts/utils/cryptography/ECDSA.sol\":7634:7680  ECDSAInvalidSignatureLength(uint256(errorArg)) */\n      mload(0x40)\n      0xfce698f700000000000000000000000000000000000000000000000000000000\n      dup2\n      mstore\n      0x04\n      add\n      tag_120\n      swap2\n      swap1\n      tag_121\n      jump\t// in\n    tag_120:\n      mload(0x40)\n      dup1\n      swap2\n      sub\n      swap1\n      revert\n        /* \"@openzeppelin/contracts/utils/cryptography/ECDSA.sol\":7563:7806  if (error == RecoverError.InvalidSignatureLength) {... */\n    tag_119:\n        /* \"@openzeppelin/contracts/utils/cryptography/ECDSA.sol\":7710:7740  RecoverError.InvalidSignatureS */\n      0x03\n        /* \"@openzeppelin/contracts/utils/cryptography/ECDSA.sol\":7701:7740  error == RecoverError.InvalidSignatureS */\n      dup1\n      dup2\n      gt\n      iszero\n      tag_123\n      jumpi\n      tag_124\n      tag_104\n      jump\t// in\n    tag_124:\n    tag_123:\n        /* \"@openzeppelin/contracts/utils/cryptography/ECDSA.sol\":7701:7706  error */\n      dup3\n        /* \"@openzeppelin/contracts/utils/cryptography/ECDSA.sol\":7701:7740  error == RecoverError.InvalidSignatureS */\n      0x03\n      dup2\n      gt\n      iszero\n      tag_125\n      jumpi\n      tag_126\n      tag_104\n      jump\t// in\n    tag_126:\n    tag_125:\n      sub\n        /* \"@openzeppelin/contracts/utils/cryptography/ECDSA.sol\":7697:7806  if (error == RecoverError.InvalidSignatureS) {... */\n      tag_127\n      jumpi\n        /* \"@openzeppelin/contracts/utils/cryptography/ECDSA.sol\":7786:7794  errorArg */\n      dup1\n        /* \"@openzeppelin/contracts/utils/cryptography/ECDSA.sol\":7763:7795  ECDSAInvalidSignatureS(errorArg) */\n      mload(0x40)\n      0xd78bce0c00000000000000000000000000000000000000000000000000000000\n      dup2\n      mstore\n      0x04\n      add\n      tag_128\n      swap2\n      swap1\n      tag_84\n      jump\t// in\n    tag_128:\n      mload(0x40)\n      dup1\n      swap2\n      sub\n      swap1\n      revert\n        /* \"@openzeppelin/contracts/utils/cryptography/ECDSA.sol\":7697:7806  if (error == RecoverError.InvalidSignatureS) {... */\n    tag_127:\n        /* \"@openzeppelin/contracts/utils/cryptography/ECDSA.sol\":7280:7812  function _throwError(RecoverError error, bytes32 errorArg) private pure {... */\n    tag_101:\n      pop\n      pop\n      jump\t// out\n        /* \"@openzeppelin/contracts/utils/cryptography/ECDSA.sol\":5203:6754  function tryRecover(... */\n    tag_99:\n        /* \"@openzeppelin/contracts/utils/cryptography/ECDSA.sol\":5329:5346  address recovered */\n      0x00\n        /* \"@openzeppelin/contracts/utils/cryptography/ECDSA.sol\":5348:5364  RecoverError err */\n      dup1\n        /* \"@openzeppelin/contracts/utils/cryptography/ECDSA.sol\":5366:5380  bytes32 errArg */\n      0x00\n        /* \"@openzeppelin/contracts/utils/cryptography/ECDSA.sol\":6283:6349  0x7FFFFFFFFFFFFFFFFFFFFFFFFFFFFFFF5D576E7357A4501DDFE92F46681B20A0 */\n      0x7fffffffffffffffffffffffffffffff5d576e7357a4501ddfe92f46681b20a0\n        /* \"@openzeppelin/contracts/utils/cryptography/ECDSA.sol\":6278:6279  s */\n      dup5\n        /* \"@openzeppelin/contracts/utils/cryptography/ECDSA.sol\":6270:6280  uint256(s) */\n      0x00\n      shr\n        /* \"@openzeppelin/contracts/utils/cryptography/ECDSA.sol\":6270:6349  uint256(s) > 0x7FFFFFFFFFFFFFFFFFFFFFFFFFFFFFFF5D576E7357A4501DDFE92F46681B20A0 */\n      gt\n        /* \"@openzeppelin/contracts/utils/cryptography/ECDSA.sol\":6266:6430  if (uint256(s) > 0x7FFFFFFFFFFFFFFFFFFFFFFFFFFFFFFF5D576E7357A4501DDFE92F46681B20A0) {... */\n      iszero\n      tag_130\n      jumpi\n        /* \"@openzeppelin/contracts/utils/cryptography/ECDSA.sol\":6381:6382  0 */\n      0x00\n        /* \"@openzeppelin/contracts/utils/cryptography/ECDSA.sol\":6385:6415  RecoverError.InvalidSignatureS */\n      0x03\n        /* \"@openzeppelin/contracts/utils/cryptography/ECDSA.sol\":6417:6418  s */\n      dup6\n        /* \"@openzeppelin/contracts/utils/cryptography/ECDSA.sol\":6365:6419  return (address(0), RecoverError.InvalidSignatureS, s) */\n      swap3\n      pop\n      swap3\n      pop\n      swap3\n      pop\n      jump(tag_129)\n        /* \"@openzeppelin/contracts/utils/cryptography/ECDSA.sol\":6266:6430  if (uint256(s) > 0x7FFFFFFFFFFFFFFFFFFFFFFFFFFFFFFF5D576E7357A4501DDFE92F46681B20A0) {... */\n    tag_130:\n        /* \"@openzeppelin/contracts/utils/cryptography/ECDSA.sol\":6524:6538  address signer */\n      0x00\n        /* \"@openzeppelin/contracts/utils/cryptography/ECDSA.sol\":6541:6565  ecrecover(hash, v, r, s) */\n      0x01\n        /* \"@openzeppelin/contracts/utils/cryptography/ECDSA.sol\":6551:6555  hash */\n      dup9\n        /* \"@openzeppelin/contracts/utils/cryptography/ECDSA.sol\":6557:6558  v */\n      dup9\n        /* \"@openzeppelin/contracts/utils/cryptography/ECDSA.sol\":6560:6561  r */\n      dup9\n        /* \"@openzeppelin/contracts/utils/cryptography/ECDSA.sol\":6563:6564  s */\n      dup9\n        /* \"@openzeppelin/contracts/utils/cryptography/ECDSA.sol\":6541:6565  ecrecover(hash, v, r, s) */\n      mload(0x40)\n      0x00\n      dup2\n      mstore\n      0x20\n      add\n      0x40\n      mstore\n      mload(0x40)\n      tag_131\n      swap5\n      swap4\n      swap3\n      swap2\n      swap1\n      tag_132\n      jump\t// in\n    tag_131:\n      0x20\n      mload(0x40)\n      0x20\n      dup2\n      sub\n      swap1\n      dup1\n      dup5\n      sub\n      swap1\n      dup6\n      gas\n      staticcall\n      iszero\n      dup1\n      iszero\n      tag_134\n      jumpi\n      returndatasize\n      0x00\n      dup1\n      returndatacopy\n      revert(0x00, returndatasize)\n    tag_134:\n      pop\n      pop\n      pop\n      mload(sub(mload(0x40), 0x20))\n        /* \"@openzeppelin/contracts/utils/cryptography/ECDSA.sol\":6524:6565  address signer = ecrecover(hash, v, r, s) */\n      swap1\n      pop\n        /* \"@openzeppelin/contracts/utils/cryptography/ECDSA.sol\":6597:6598  0 */\n      0x00\n        /* \"@openzeppelin/contracts/utils/cryptography/ECDSA.sol\":6579:6599  signer == address(0) */\n      0xffffffffffffffffffffffffffffffffffffffff\n      and\n        /* \"@openzeppelin/contracts/utils/cryptography/ECDSA.sol\":6579:6585  signer */\n      dup2\n        /* \"@openzeppelin/contracts/utils/cryptography/ECDSA.sol\":6579:6599  signer == address(0) */\n      0xffffffffffffffffffffffffffffffffffffffff\n      and\n      sub\n        /* \"@openzeppelin/contracts/utils/cryptography/ECDSA.sol\":6575:6688  if (signer == address(0)) {... */\n      tag_135\n      jumpi\n        /* \"@openzeppelin/contracts/utils/cryptography/ECDSA.sol\":6631:6632  0 */\n      0x00\n        /* \"@openzeppelin/contracts/utils/cryptography/ECDSA.sol\":6635:6664  RecoverError.InvalidSignature */\n      0x01\n        /* \"@openzeppelin/contracts/utils/cryptography/ECDSA.sol\":6674:6675  0 */\n      0x00\n        /* \"@openzeppelin/contracts/utils/cryptography/ECDSA.sol\":6666:6676  bytes32(0) */\n      dup1\n      shl\n        /* \"@openzeppelin/contracts/utils/cryptography/ECDSA.sol\":6615:6677  return (address(0), RecoverError.InvalidSignature, bytes32(0)) */\n      swap4\n      pop\n      swap4\n      pop\n      swap4\n      pop\n      pop\n      jump(tag_129)\n        /* \"@openzeppelin/contracts/utils/cryptography/ECDSA.sol\":6575:6688  if (signer == address(0)) {... */\n    tag_135:\n        /* \"@openzeppelin/contracts/utils/cryptography/ECDSA.sol\":6706:6712  signer */\n      dup1\n        /* \"@openzeppelin/contracts/utils/cryptography/ECDSA.sol\":6714:6734  RecoverError.NoError */\n      0x00\n        /* \"@openzeppelin/contracts/utils/cryptography/ECDSA.sol\":6744:6745  0 */\n      dup1\n        /* \"@openzeppelin/contracts/utils/cryptography/ECDSA.sol\":6736:6746  bytes32(0) */\n      0x00\n      shl\n        /* \"@openzeppelin/contracts/utils/cryptography/ECDSA.sol\":6698:6747  return (signer, RecoverError.NoError, bytes32(0)) */\n      swap4\n      pop\n      swap4\n      pop\n      swap4\n      pop\n      pop\n        /* \"@openzeppelin/contracts/utils/cryptography/ECDSA.sol\":5203:6754  function tryRecover(... */\n    tag_129:\n      swap5\n      pop\n      swap5\n      pop\n      swap5\n      swap2\n      pop\n      pop\n      jump\t// out\n        /* \"#utility.yul\":7:82   */\n    tag_136:\n        /* \"#utility.yul\":40:46   */\n      0x00\n        /* \"#utility.yul\":73:75   */\n      0x40\n        /* \"#utility.yul\":67:76   */\n      mload\n        /* \"#utility.yul\":57:76   */\n      swap1\n      pop\n        /* \"#utility.yul\":7:82   */\n      swap1\n      jump\t// out\n        /* \"#utility.yul\":88:205   */\n    tag_137:\n        /* \"#utility.yul\":197:198   */\n      0x00\n        /* \"#utility.yul\":194:195   */\n      dup1\n        /* \"#utility.yul\":187:199   */\n      revert\n        /* \"#utility.yul\":211:328   */\n    tag_138:\n        /* \"#utility.yul\":320:321   */\n      0x00\n        /* \"#utility.yul\":317:318   */\n      dup1\n        /* \"#utility.yul\":310:322   */\n      revert\n        /* \"#utility.yul\":334:460   */\n    tag_139:\n        /* \"#utility.yul\":371:378   */\n      0x00\n        /* \"#utility.yul\":411:453   */\n      0xffffffffffffffffffffffffffffffffffffffff\n        /* \"#utility.yul\":404:409   */\n      dup3\n        /* \"#utility.yul\":400:454   */\n      and\n        /* \"#utility.yul\":389:454   */\n      swap1\n      pop\n        /* \"#utility.yul\":334:460   */\n      swap2\n      swap1\n      pop\n      jump\t// out\n        /* \"#utility.yul\":466:562   */\n    tag_140:\n        /* \"#utility.yul\":503:510   */\n      0x00\n        /* \"#utility.yul\":532:556   */\n      tag_194\n        /* \"#utility.yul\":550:555   */\n      dup3\n        /* \"#utility.yul\":532:556   */\n      tag_139\n      jump\t// in\n    tag_194:\n        /* \"#utility.yul\":521:556   */\n      swap1\n      pop\n        /* \"#utility.yul\":466:562   */\n      swap2\n      swap1\n      pop\n      jump\t// out\n        /* \"#utility.yul\":568:690   */\n    tag_141:\n        /* \"#utility.yul\":641:665   */\n      tag_196\n        /* \"#utility.yul\":659:664   */\n      dup2\n        /* \"#utility.yul\":641:665   */\n      tag_140\n      jump\t// in\n    tag_196:\n        /* \"#utility.yul\":634:639   */\n      dup2\n        /* \"#utility.yul\":631:666   */\n      eq\n        /* \"#utility.yul\":621:684   */\n      tag_197\n      jumpi\n        /* \"#utility.yul\":680:681   */\n      0x00\n        /* \"#utility.yul\":677:678   */\n      dup1\n        /* \"#utility.yul\":670:682   */\n      revert\n        /* \"#utility.yul\":621:684   */\n    tag_197:\n        /* \"#utility.yul\":568:690   */\n      pop\n      jump\t// out\n        /* \"#utility.yul\":696:835   */\n    tag_142:\n        /* \"#utility.yul\":742:747   */\n      0x00\n        /* \"#utility.yul\":780:786   */\n      dup2\n        /* \"#utility.yul\":767:787   */\n      calldataload\n        /* \"#utility.yul\":758:787   */\n      swap1\n      pop\n        /* \"#utility.yul\":796:829   */\n      tag_199\n        /* \"#utility.yul\":823:828   */\n      dup2\n        /* \"#utility.yul\":796:829   */\n      tag_141\n      jump\t// in\n    tag_199:\n        /* \"#utility.yul\":696:835   */\n      swap3\n      swap2\n      pop\n      pop\n      jump\t// out\n        /* \"#utility.yul\":841:1170   */\n    tag_14:\n        /* \"#utility.yul\":900:906   */\n      0x00\n        /* \"#utility.yul\":949:951   */\n      0x20\n        /* \"#utility.yul\":937:946   */\n      dup3\n        /* \"#utility.yul\":928:935   */\n      dup5\n        /* \"#utility.yul\":924:947   */\n      sub\n        /* \"#utility.yul\":920:952   */\n      slt\n        /* \"#utility.yul\":917:1036   */\n      iszero\n      tag_201\n      jumpi\n        /* \"#utility.yul\":955:1034   */\n      tag_202\n      tag_137\n      jump\t// in\n    tag_202:\n        /* \"#utility.yul\":917:1036   */\n    tag_201:\n        /* \"#utility.yul\":1075:1076   */\n      0x00\n        /* \"#utility.yul\":1100:1153   */\n      tag_203\n        /* \"#utility.yul\":1145:1152   */\n      dup5\n        /* \"#utility.yul\":1136:1142   */\n      dup3\n        /* \"#utility.yul\":1125:1134   */\n      dup6\n        /* \"#utility.yul\":1121:1143   */\n      add\n        /* \"#utility.yul\":1100:1153   */\n      tag_142\n      jump\t// in\n    tag_203:\n        /* \"#utility.yul\":1090:1153   */\n      swap2\n      pop\n        /* \"#utility.yul\":1046:1163   */\n      pop\n        /* \"#utility.yul\":841:1170   */\n      swap3\n      swap2\n      pop\n      pop\n      jump\t// out\n        /* \"#utility.yul\":1176:1290   */\n    tag_143:\n        /* \"#utility.yul\":1243:1249   */\n      0x00\n        /* \"#utility.yul\":1277:1282   */\n      dup2\n        /* \"#utility.yul\":1271:1283   */\n      mload\n        /* \"#utility.yul\":1261:1283   */\n      swap1\n      pop\n        /* \"#utility.yul\":1176:1290   */\n      swap2\n      swap1\n      pop\n      jump\t// out\n        /* \"#utility.yul\":1296:1480   */\n    tag_144:\n        /* \"#utility.yul\":1395:1406   */\n      0x00\n        /* \"#utility.yul\":1429:1435   */\n      dup3\n        /* \"#utility.yul\":1424:1427   */\n      dup3\n        /* \"#utility.yul\":1417:1436   */\n      mstore\n        /* \"#utility.yul\":1469:1473   */\n      0x20\n        /* \"#utility.yul\":1464:1467   */\n      dup3\n        /* \"#utility.yul\":1460:1474   */\n      add\n        /* \"#utility.yul\":1445:1474   */\n      swap1\n      pop\n        /* \"#utility.yul\":1296:1480   */\n      swap3\n      swap2\n      pop\n      pop\n      jump\t// out\n        /* \"#utility.yul\":1486:1618   */\n    tag_145:\n        /* \"#utility.yul\":1553:1557   */\n      0x00\n        /* \"#utility.yul\":1576:1579   */\n      dup2\n        /* \"#utility.yul\":1568:1579   */\n      swap1\n      pop\n        /* \"#utility.yul\":1606:1610   */\n      0x20\n        /* \"#utility.yul\":1601:1604   */\n      dup3\n        /* \"#utility.yul\":1597:1611   */\n      add\n        /* \"#utility.yul\":1589:1611   */\n      swap1\n      pop\n        /* \"#utility.yul\":1486:1618   */\n      swap2\n      swap1\n      pop\n      jump\t// out\n        /* \"#utility.yul\":1624:1701   */\n    tag_146:\n        /* \"#utility.yul\":1661:1668   */\n      0x00\n        /* \"#utility.yul\":1690:1695   */\n      dup2\n        /* \"#utility.yul\":1679:1695   */\n      swap1\n      pop\n        /* \"#utility.yul\":1624:1701   */\n      swap2\n      swap1\n      pop\n      jump\t// out\n        /* \"#utility.yul\":1707:1815   */\n    tag_147:\n        /* \"#utility.yul\":1784:1808   */\n      tag_209\n        /* \"#utility.yul\":1802:1807   */\n      dup2\n        /* \"#utility.yul\":1784:1808   */\n      tag_146\n      jump\t// in\n    tag_209:\n        /* \"#utility.yul\":1779:1782   */\n      dup3\n        /* \"#utility.yul\":1772:1809   */\n      mstore\n        /* \"#utility.yul\":1707:1815   */\n      pop\n      pop\n      jump\t// out\n        /* \"#utility.yul\":1821:2000   */\n    tag_148:\n        /* \"#utility.yul\":1890:1900   */\n      0x00\n        /* \"#utility.yul\":1911:1957   */\n      tag_211\n        /* \"#utility.yul\":1953:1956   */\n      dup4\n        /* \"#utility.yul\":1945:1951   */\n      dup4\n        /* \"#utility.yul\":1911:1957   */\n      tag_147\n      jump\t// in\n    tag_211:\n        /* \"#utility.yul\":1989:1993   */\n      0x20\n        /* \"#utility.yul\":1984:1987   */\n      dup4\n        /* \"#utility.yul\":1980:1994   */\n      add\n        /* \"#utility.yul\":1966:1994   */\n      swap1\n      pop\n        /* \"#utility.yul\":1821:2000   */\n      swap3\n      swap2\n      pop\n      pop\n      jump\t// out\n        /* \"#utility.yul\":2006:2119   */\n    tag_149:\n        /* \"#utility.yul\":2076:2080   */\n      0x00\n        /* \"#utility.yul\":2108:2112   */\n      0x20\n        /* \"#utility.yul\":2103:2106   */\n      dup3\n        /* \"#utility.yul\":2099:2113   */\n      add\n        /* \"#utility.yul\":2091:2113   */\n      swap1\n      pop\n        /* \"#utility.yul\":2006:2119   */\n      swap2\n      swap1\n      pop\n      jump\t// out\n        /* \"#utility.yul\":2155:2887   */\n    tag_150:\n        /* \"#utility.yul\":2274:2277   */\n      0x00\n        /* \"#utility.yul\":2303:2357   */\n      tag_214\n        /* \"#utility.yul\":2351:2356   */\n      dup3\n        /* \"#utility.yul\":2303:2357   */\n      tag_143\n      jump\t// in\n    tag_214:\n        /* \"#utility.yul\":2373:2459   */\n      tag_215\n        /* \"#utility.yul\":2452:2458   */\n      dup2\n        /* \"#utility.yul\":2447:2450   */\n      dup6\n        /* \"#utility.yul\":2373:2459   */\n      tag_144\n      jump\t// in\n    tag_215:\n        /* \"#utility.yul\":2366:2459   */\n      swap4\n      pop\n        /* \"#utility.yul\":2483:2539   */\n      tag_216\n        /* \"#utility.yul\":2533:2538   */\n      dup4\n        /* \"#utility.yul\":2483:2539   */\n      tag_145\n      jump\t// in\n    tag_216:\n        /* \"#utility.yul\":2562:2569   */\n      dup1\n        /* \"#utility.yul\":2593:2594   */\n      0x00\n        /* \"#utility.yul\":2578:2862   */\n    tag_217:\n        /* \"#utility.yul\":2603:2609   */\n      dup4\n        /* \"#utility.yul\":2600:2601   */\n      dup2\n        /* \"#utility.yul\":2597:2610   */\n      lt\n        /* \"#utility.yul\":2578:2862   */\n      iszero\n      tag_219\n      jumpi\n        /* \"#utility.yul\":2679:2685   */\n      dup2\n        /* \"#utility.yul\":2673:2686   */\n      mload\n        /* \"#utility.yul\":2706:2769   */\n      tag_220\n        /* \"#utility.yul\":2765:2768   */\n      dup9\n        /* \"#utility.yul\":2750:2763   */\n      dup3\n        /* \"#utility.yul\":2706:2769   */\n      tag_148\n      jump\t// in\n    tag_220:\n        /* \"#utility.yul\":2699:2769   */\n      swap8\n      pop\n        /* \"#utility.yul\":2792:2852   */\n      tag_221\n        /* \"#utility.yul\":2845:2851   */\n      dup4\n        /* \"#utility.yul\":2792:2852   */\n      tag_149\n      jump\t// in\n    tag_221:\n        /* \"#utility.yul\":2782:2852   */\n      swap3\n      pop\n        /* \"#utility.yul\":2638:2862   */\n      pop\n        /* \"#utility.yul\":2625:2626   */\n      0x01\n        /* \"#utility.yul\":2622:2623   */\n      dup2\n        /* \"#utility.yul\":2618:2627   */\n      add\n        /* \"#utility.yul\":2613:2627   */\n      swap1\n      pop\n        /* \"#utility.yul\":2578:2862   */\n      jump(tag_217)\n    tag_219:\n        /* \"#utility.yul\":2582:2596   */\n      pop\n        /* \"#utility.yul\":2878:2881   */\n      dup6\n        /* \"#utility.yul\":2871:2881   */\n      swap4\n      pop\n        /* \"#utility.yul\":2279:2887   */\n      pop\n      pop\n      pop\n        /* \"#utility.yul\":2155:2887   */\n      swap3\n      swap2\n      pop\n      pop\n      jump\t// out\n        /* \"#utility.yul\":2893:3266   */\n    tag_17:\n        /* \"#utility.yul\":3036:3040   */\n      0x00\n        /* \"#utility.yul\":3074:3076   */\n      0x20\n        /* \"#utility.yul\":3063:3072   */\n      dup3\n        /* \"#utility.yul\":3059:3077   */\n      add\n        /* \"#utility.yul\":3051:3077   */\n      swap1\n      pop\n        /* \"#utility.yul\":3123:3132   */\n      dup2\n        /* \"#utility.yul\":3117:3121   */\n      dup2\n        /* \"#utility.yul\":3113:3133   */\n      sub\n        /* \"#utility.yul\":3109:3110   */\n      0x00\n        /* \"#utility.yul\":3098:3107   */\n      dup4\n        /* \"#utility.yul\":3094:3111   */\n      add\n        /* \"#utility.yul\":3087:3134   */\n      mstore\n        /* \"#utility.yul\":3151:3259   */\n      tag_223\n        /* \"#utility.yul\":3254:3258   */\n      dup2\n        /* \"#utility.yul\":3245:3251   */\n      dup5\n        /* \"#utility.yul\":3151:3259   */\n      tag_150\n      jump\t// in\n    tag_223:\n        /* \"#utility.yul\":3143:3259   */\n      swap1\n      pop\n        /* \"#utility.yul\":2893:3266   */\n      swap3\n      swap2\n      pop\n      pop\n      jump\t// out\n        /* \"#utility.yul\":3272:3362   */\n    tag_151:\n        /* \"#utility.yul\":3306:3313   */\n      0x00\n        /* \"#utility.yul\":3349:3354   */\n      dup2\n        /* \"#utility.yul\":3342:3355   */\n      iszero\n        /* \"#utility.yul\":3335:3356   */\n      iszero\n        /* \"#utility.yul\":3324:3356   */\n      swap1\n      pop\n        /* \"#utility.yul\":3272:3362   */\n      swap2\n      swap1\n      pop\n      jump\t// out\n        /* \"#utility.yul\":3368:3477   */\n    tag_152:\n        /* \"#utility.yul\":3449:3470   */\n      tag_226\n        /* \"#utility.yul\":3464:3469   */\n      dup2\n        /* \"#utility.yul\":3449:3470   */\n      tag_151\n      jump\t// in\n    tag_226:\n        /* \"#utility.yul\":3444:3447   */\n      dup3\n        /* \"#utility.yul\":3437:3471   */\n      mstore\n        /* \"#utility.yul\":3368:3477   */\n      pop\n      pop\n      jump\t// out\n        /* \"#utility.yul\":3483:3693   */\n    tag_22:\n        /* \"#utility.yul\":3570:3574   */\n      0x00\n        /* \"#utility.yul\":3608:3610   */\n      0x20\n        /* \"#utility.yul\":3597:3606   */\n      dup3\n        /* \"#utility.yul\":3593:3611   */\n      add\n        /* \"#utility.yul\":3585:3611   */\n      swap1\n      pop\n        /* \"#utility.yul\":3621:3686   */\n      tag_228\n        /* \"#utility.yul\":3683:3684   */\n      0x00\n        /* \"#utility.yul\":3672:3681   */\n      dup4\n        /* \"#utility.yul\":3668:3685   */\n      add\n        /* \"#utility.yul\":3659:3665   */\n      dup5\n        /* \"#utility.yul\":3621:3686   */\n      tag_152\n      jump\t// in\n    tag_228:\n        /* \"#utility.yul\":3483:3693   */\n      swap3\n      swap2\n      pop\n      pop\n      jump\t// out\n        /* \"#utility.yul\":3699:3816   */\n    tag_153:\n        /* \"#utility.yul\":3808:3809   */\n      0x00\n        /* \"#utility.yul\":3805:3806   */\n      dup1\n        /* \"#utility.yul\":3798:3810   */\n      revert\n        /* \"#utility.yul\":3822:3939   */\n    tag_154:\n        /* \"#utility.yul\":3931:3932   */\n      0x00\n        /* \"#utility.yul\":3928:3929   */\n      dup1\n        /* \"#utility.yul\":3921:3933   */\n      revert\n        /* \"#utility.yul\":3945:4047   */\n    tag_155:\n        /* \"#utility.yul\":3986:3992   */\n      0x00\n        /* \"#utility.yul\":4037:4039   */\n      0x1f\n        /* \"#utility.yul\":4033:4040   */\n      not\n        /* \"#utility.yul\":4028:4030   */\n      0x1f\n        /* \"#utility.yul\":4021:4026   */\n      dup4\n        /* \"#utility.yul\":4017:4031   */\n      add\n        /* \"#utility.yul\":4013:4041   */\n      and\n        /* \"#utility.yul\":4003:4041   */\n      swap1\n      pop\n        /* \"#utility.yul\":3945:4047   */\n      swap2\n      swap1\n      pop\n      jump\t// out\n        /* \"#utility.yul\":4053:4233   */\n    tag_52:\n        /* \"#utility.yul\":4101:4178   */\n      0x4e487b7100000000000000000000000000000000000000000000000000000000\n        /* \"#utility.yul\":4098:4099   */\n      0x00\n        /* \"#utility.yul\":4091:4179   */\n      mstore\n        /* \"#utility.yul\":4198:4202   */\n      0x41\n        /* \"#utility.yul\":4195:4196   */\n      0x04\n        /* \"#utility.yul\":4188:4203   */\n      mstore\n        /* \"#utility.yul\":4222:4226   */\n      0x24\n        /* \"#utility.yul\":4219:4220   */\n      0x00\n        /* \"#utility.yul\":4212:4227   */\n      revert\n        /* \"#utility.yul\":4239:4520   */\n    tag_156:\n        /* \"#utility.yul\":4322:4349   */\n      tag_234\n        /* \"#utility.yul\":4344:4348   */\n      dup3\n        /* \"#utility.yul\":4322:4349   */\n      tag_155\n      jump\t// in\n    tag_234:\n        /* \"#utility.yul\":4314:4320   */\n      dup2\n        /* \"#utility.yul\":4310:4350   */\n      add\n        /* \"#utility.yul\":4452:4458   */\n      dup2\n        /* \"#utility.yul\":4440:4450   */\n      dup2\n        /* \"#utility.yul\":4437:4459   */\n      lt\n        /* \"#utility.yul\":4416:4434   */\n      0xffffffffffffffff\n        /* \"#utility.yul\":4404:4414   */\n      dup3\n        /* \"#utility.yul\":4401:4435   */\n      gt\n        /* \"#utility.yul\":4398:4460   */\n      or\n        /* \"#utility.yul\":4395:4483   */\n      iszero\n      tag_235\n      jumpi\n        /* \"#utility.yul\":4463:4481   */\n      tag_236\n      tag_52\n      jump\t// in\n    tag_236:\n        /* \"#utility.yul\":4395:4483   */\n    tag_235:\n        /* \"#utility.yul\":4503:4513   */\n      dup1\n        /* \"#utility.yul\":4499:4501   */\n      0x40\n        /* \"#utility.yul\":4492:4514   */\n      mstore\n        /* \"#utility.yul\":4282:4520   */\n      pop\n        /* \"#utility.yul\":4239:4520   */\n      pop\n      pop\n      jump\t// out\n        /* \"#utility.yul\":4526:4655   */\n    tag_157:\n        /* \"#utility.yul\":4560:4566   */\n      0x00\n        /* \"#utility.yul\":4587:4607   */\n      tag_238\n      tag_136\n      jump\t// in\n    tag_238:\n        /* \"#utility.yul\":4577:4607   */\n      swap1\n      pop\n        /* \"#utility.yul\":4616:4649   */\n      tag_239\n        /* \"#utility.yul\":4644:4648   */\n      dup3\n        /* \"#utility.yul\":4636:4642   */\n      dup3\n        /* \"#utility.yul\":4616:4649   */\n      tag_156\n      jump\t// in\n    tag_239:\n        /* \"#utility.yul\":4526:4655   */\n      swap2\n      swap1\n      pop\n      jump\t// out\n        /* \"#utility.yul\":4661:4968   */\n    tag_158:\n        /* \"#utility.yul\":4722:4726   */\n      0x00\n        /* \"#utility.yul\":4812:4830   */\n      0xffffffffffffffff\n        /* \"#utility.yul\":4804:4810   */\n      dup3\n        /* \"#utility.yul\":4801:4831   */\n      gt\n        /* \"#utility.yul\":4798:4854   */\n      iszero\n      tag_241\n      jumpi\n        /* \"#utility.yul\":4834:4852   */\n      tag_242\n      tag_52\n      jump\t// in\n    tag_242:\n        /* \"#utility.yul\":4798:4854   */\n    tag_241:\n        /* \"#utility.yul\":4872:4901   */\n      tag_243\n        /* \"#utility.yul\":4894:4900   */\n      dup3\n        /* \"#utility.yul\":4872:4901   */\n      tag_155\n      jump\t// in\n    tag_243:\n        /* \"#utility.yul\":4864:4901   */\n      swap1\n      pop\n        /* \"#utility.yul\":4956:4960   */\n      0x20\n        /* \"#utility.yul\":4950:4954   */\n      dup2\n        /* \"#utility.yul\":4946:4961   */\n      add\n        /* \"#utility.yul\":4938:4961   */\n      swap1\n      pop\n        /* \"#utility.yul\":4661:4968   */\n      swap2\n      swap1\n      pop\n      jump\t// out\n        /* \"#utility.yul\":4974:5122   */\n    tag_159:\n        /* \"#utility.yul\":5072:5078   */\n      dup3\n        /* \"#utility.yul\":5067:5070   */\n      dup2\n        /* \"#utility.yul\":5062:5065   */\n      dup4\n        /* \"#utility.yul\":5049:5079   */\n      calldatacopy\n        /* \"#utility.yul\":5113:5114   */\n      0x00\n        /* \"#utility.yul\":5104:5110   */\n      dup4\n        /* \"#utility.yul\":5099:5102   */\n      dup4\n        /* \"#utility.yul\":5095:5111   */\n      add\n        /* \"#utility.yul\":5088:5115   */\n      mstore\n        /* \"#utility.yul\":4974:5122   */\n      pop\n      pop\n      pop\n      jump\t// out\n        /* \"#utility.yul\":5128:5551   */\n    tag_160:\n        /* \"#utility.yul\":5205:5210   */\n      0x00\n        /* \"#utility.yul\":5230:5295   */\n      tag_246\n        /* \"#utility.yul\":5246:5294   */\n      tag_247\n        /* \"#utility.yul\":5287:5293   */\n      dup5\n        /* \"#utility.yul\":5246:5294   */\n      tag_158\n      jump\t// in\n    tag_247:\n        /* \"#utility.yul\":5230:5295   */\n      tag_157\n      jump\t// in\n    tag_246:\n        /* \"#utility.yul\":5221:5295   */\n      swap1\n      pop\n        /* \"#utility.yul\":5318:5324   */\n      dup3\n        /* \"#utility.yul\":5311:5316   */\n      dup2\n        /* \"#utility.yul\":5304:5325   */\n      mstore\n        /* \"#utility.yul\":5356:5360   */\n      0x20\n        /* \"#utility.yul\":5349:5354   */\n      dup2\n        /* \"#utility.yul\":5345:5361   */\n      add\n        /* \"#utility.yul\":5394:5397   */\n      dup5\n        /* \"#utility.yul\":5385:5391   */\n      dup5\n        /* \"#utility.yul\":5380:5383   */\n      dup5\n        /* \"#utility.yul\":5376:5392   */\n      add\n        /* \"#utility.yul\":5373:5398   */\n      gt\n        /* \"#utility.yul\":5370:5482   */\n      iszero\n      tag_248\n      jumpi\n        /* \"#utility.yul\":5401:5480   */\n      tag_249\n      tag_154\n      jump\t// in\n    tag_249:\n        /* \"#utility.yul\":5370:5482   */\n    tag_248:\n        /* \"#utility.yul\":5491:5545   */\n      tag_250\n        /* \"#utility.yul\":5538:5544   */\n      dup5\n        /* \"#utility.yul\":5533:5536   */\n      dup3\n        /* \"#utility.yul\":5528:5531   */\n      dup6\n        /* \"#utility.yul\":5491:5545   */\n      tag_159\n      jump\t// in\n    tag_250:\n        /* \"#utility.yul\":5211:5551   */\n      pop\n        /* \"#utility.yul\":5128:5551   */\n      swap4\n      swap3\n      pop\n      pop\n      pop\n      jump\t// out\n        /* \"#utility.yul\":5570:5908   */\n    tag_161:\n        /* \"#utility.yul\":5625:5630   */\n      0x00\n        /* \"#utility.yul\":5674:5677   */\n      dup3\n        /* \"#utility.yul\":5667:5671   */\n      0x1f\n        /* \"#utility.yul\":5659:5665   */\n      dup4\n        /* \"#utility.yul\":5655:5672   */\n      add\n        /* \"#utility.yul\":5651:5678   */\n      slt\n        /* \"#utility.yul\":5641:5763   */\n      tag_252\n      jumpi\n        /* \"#utility.yul\":5682:5761   */\n      tag_253\n      tag_153\n      jump\t// in\n    tag_253:\n        /* \"#utility.yul\":5641:5763   */\n    tag_252:\n        /* \"#utility.yul\":5799:5805   */\n      dup2\n        /* \"#utility.yul\":5786:5806   */\n      calldataload\n        /* \"#utility.yul\":5824:5902   */\n      tag_254\n        /* \"#utility.yul\":5898:5901   */\n      dup5\n        /* \"#utility.yul\":5890:5896   */\n      dup3\n        /* \"#utility.yul\":5883:5887   */\n      0x20\n        /* \"#utility.yul\":5875:5881   */\n      dup7\n        /* \"#utility.yul\":5871:5888   */\n      add\n        /* \"#utility.yul\":5824:5902   */\n      tag_160\n      jump\t// in\n    tag_254:\n        /* \"#utility.yul\":5815:5902   */\n      swap2\n      pop\n        /* \"#utility.yul\":5631:5908   */\n      pop\n        /* \"#utility.yul\":5570:5908   */\n      swap3\n      swap2\n      pop\n      pop\n      jump\t// out\n        /* \"#utility.yul\":5914:6566   */\n    tag_28:\n        /* \"#utility.yul\":5991:5997   */\n      0x00\n        /* \"#utility.yul\":5999:6005   */\n      dup1\n        /* \"#utility.yul\":6048:6050   */\n      0x40\n        /* \"#utility.yul\":6036:6045   */\n      dup4\n        /* \"#utility.yul\":6027:6034   */\n      dup6\n        /* \"#utility.yul\":6023:6046   */\n      sub\n        /* \"#utility.yul\":6019:6051   */\n      slt\n        /* \"#utility.yul\":6016:6135   */\n      iszero\n      tag_256\n      jumpi\n        /* \"#utility.yul\":6054:6133   */\n      tag_257\n      tag_137\n      jump\t// in\n    tag_257:\n        /* \"#utility.yul\":6016:6135   */\n    tag_256:\n        /* \"#utility.yul\":6174:6175   */\n      0x00\n        /* \"#utility.yul\":6199:6252   */\n      tag_258\n        /* \"#utility.yul\":6244:6251   */\n      dup6\n        /* \"#utility.yul\":6235:6241   */\n      dup3\n        /* \"#utility.yul\":6224:6233   */\n      dup7\n        /* \"#utility.yul\":6220:6242   */\n      add\n        /* \"#utility.yul\":6199:6252   */\n      tag_142\n      jump\t// in\n    tag_258:\n        /* \"#utility.yul\":6189:6252   */\n      swap3\n      pop\n        /* \"#utility.yul\":6145:6262   */\n      pop\n        /* \"#utility.yul\":6329:6331   */\n      0x20\n        /* \"#utility.yul\":6318:6327   */\n      dup4\n        /* \"#utility.yul\":6314:6332   */\n      add\n        /* \"#utility.yul\":6301:6333   */\n      calldataload\n        /* \"#utility.yul\":6360:6378   */\n      0xffffffffffffffff\n        /* \"#utility.yul\":6352:6358   */\n      dup2\n        /* \"#utility.yul\":6349:6379   */\n      gt\n        /* \"#utility.yul\":6346:6463   */\n      iszero\n      tag_259\n      jumpi\n        /* \"#utility.yul\":6382:6461   */\n      tag_260\n      tag_138\n      jump\t// in\n    tag_260:\n        /* \"#utility.yul\":6346:6463   */\n    tag_259:\n        /* \"#utility.yul\":6487:6549   */\n      tag_261\n        /* \"#utility.yul\":6541:6548   */\n      dup6\n        /* \"#utility.yul\":6532:6538   */\n      dup3\n        /* \"#utility.yul\":6521:6530   */\n      dup7\n        /* \"#utility.yul\":6517:6539   */\n      add\n        /* \"#utility.yul\":6487:6549   */\n      tag_161\n      jump\t// in\n    tag_261:\n        /* \"#utility.yul\":6477:6549   */\n      swap2\n      pop\n        /* \"#utility.yul\":6272:6559   */\n      pop\n        /* \"#utility.yul\":5914:6566   */\n      swap3\n      pop\n      swap3\n      swap1\n      pop\n      jump\t// out\n        /* \"#utility.yul\":6572:6694   */\n    tag_162:\n        /* \"#utility.yul\":6645:6669   */\n      tag_263\n        /* \"#utility.yul\":6663:6668   */\n      dup2\n        /* \"#utility.yul\":6645:6669   */\n      tag_146\n      jump\t// in\n    tag_263:\n        /* \"#utility.yul\":6638:6643   */\n      dup2\n        /* \"#utility.yul\":6635:6670   */\n      eq\n        /* \"#utility.yul\":6625:6688   */\n      tag_264\n      jumpi\n        /* \"#utility.yul\":6684:6685   */\n      0x00\n        /* \"#utility.yul\":6681:6682   */\n      dup1\n        /* \"#utility.yul\":6674:6686   */\n      revert\n        /* \"#utility.yul\":6625:6688   */\n    tag_264:\n        /* \"#utility.yul\":6572:6694   */\n      pop\n      jump\t// out\n        /* \"#utility.yul\":6700:6839   */\n    tag_163:\n        /* \"#utility.yul\":6746:6751   */\n      0x00\n        /* \"#utility.yul\":6784:6790   */\n      dup2\n        /* \"#utility.yul\":6771:6791   */\n      calldataload\n        /* \"#utility.yul\":6762:6791   */\n      swap1\n      pop\n        /* \"#utility.yul\":6800:6833   */\n      tag_266\n        /* \"#utility.yul\":6827:6832   */\n      dup2\n        /* \"#utility.yul\":6800:6833   */\n      tag_162\n      jump\t// in\n    tag_266:\n        /* \"#utility.yul\":6700:6839   */\n      swap3\n      swap2\n      pop\n      pop\n      jump\t// out\n        /* \"#utility.yul\":6845:7642   */\n    tag_32:\n        /* \"#utility.yul\":6931:6937   */\n      0x00\n        /* \"#utility.yul\":6939:6945   */\n      dup1\n        /* \"#utility.yul\":6947:6953   */\n      0x00\n        /* \"#utility.yul\":6996:6998   */\n      0x60\n        /* \"#utility.yul\":6984:6993   */\n      dup5\n        /* \"#utility.yul\":6975:6982   */\n      dup7\n        /* \"#utility.yul\":6971:6994   */\n      sub\n        /* \"#utility.yul\":6967:6999   */\n      slt\n        /* \"#utility.yul\":6964:7083   */\n      iszero\n      tag_268\n      jumpi\n        /* \"#utility.yul\":7002:7081   */\n      tag_269\n      tag_137\n      jump\t// in\n    tag_269:\n        /* \"#utility.yul\":6964:7083   */\n    tag_268:\n        /* \"#utility.yul\":7122:7123   */\n      0x00\n        /* \"#utility.yul\":7147:7200   */\n      tag_270\n        /* \"#utility.yul\":7192:7199   */\n      dup7\n        /* \"#utility.yul\":7183:7189   */\n      dup3\n        /* \"#utility.yul\":7172:7181   */\n      dup8\n        /* \"#utility.yul\":7168:7190   */\n      add\n        /* \"#utility.yul\":7147:7200   */\n      tag_142\n      jump\t// in\n    tag_270:\n        /* \"#utility.yul\":7137:7200   */\n      swap4\n      pop\n        /* \"#utility.yul\":7093:7210   */\n      pop\n        /* \"#utility.yul\":7249:7251   */\n      0x20\n        /* \"#utility.yul\":7275:7328   */\n      tag_271\n        /* \"#utility.yul\":7320:7327   */\n      dup7\n        /* \"#utility.yul\":7311:7317   */\n      dup3\n        /* \"#utility.yul\":7300:7309   */\n      dup8\n        /* \"#utility.yul\":7296:7318   */\n      add\n        /* \"#utility.yul\":7275:7328   */\n      tag_163\n      jump\t// in\n    tag_271:\n        /* \"#utility.yul\":7265:7328   */\n      swap3\n      pop\n        /* \"#utility.yul\":7220:7338   */\n      pop\n        /* \"#utility.yul\":7405:7407   */\n      0x40\n        /* \"#utility.yul\":7394:7403   */\n      dup5\n        /* \"#utility.yul\":7390:7408   */\n      add\n        /* \"#utility.yul\":7377:7409   */\n      calldataload\n        /* \"#utility.yul\":7436:7454   */\n      0xffffffffffffffff\n        /* \"#utility.yul\":7428:7434   */\n      dup2\n        /* \"#utility.yul\":7425:7455   */\n      gt\n        /* \"#utility.yul\":7422:7539   */\n      iszero\n      tag_272\n      jumpi\n        /* \"#utility.yul\":7458:7537   */\n      tag_273\n      tag_138\n      jump\t// in\n    tag_273:\n        /* \"#utility.yul\":7422:7539   */\n    tag_272:\n        /* \"#utility.yul\":7563:7625   */\n      tag_274\n        /* \"#utility.yul\":7617:7624   */\n      dup7\n        /* \"#utility.yul\":7608:7614   */\n      dup3\n        /* \"#utility.yul\":7597:7606   */\n      dup8\n        /* \"#utility.yul\":7593:7615   */\n      add\n        /* \"#utility.yul\":7563:7625   */\n      tag_161\n      jump\t// in\n    tag_274:\n        /* \"#utility.yul\":7553:7625   */\n      swap2\n      pop\n        /* \"#utility.yul\":7348:7635   */\n      pop\n        /* \"#utility.yul\":6845:7642   */\n      swap3\n      pop\n      swap3\n      pop\n      swap3\n      jump\t// out\n        /* \"#utility.yul\":7648:7766   */\n    tag_164:\n        /* \"#utility.yul\":7735:7759   */\n      tag_276\n        /* \"#utility.yul\":7753:7758   */\n      dup2\n        /* \"#utility.yul\":7735:7759   */\n      tag_140\n      jump\t// in\n    tag_276:\n        /* \"#utility.yul\":7730:7733   */\n      dup3\n        /* \"#utility.yul\":7723:7760   */\n      mstore\n        /* \"#utility.yul\":7648:7766   */\n      pop\n      pop\n      jump\t// out\n        /* \"#utility.yul\":7772:7994   */\n    tag_45:\n        /* \"#utility.yul\":7865:7869   */\n      0x00\n        /* \"#utility.yul\":7903:7905   */\n      0x20\n        /* \"#utility.yul\":7892:7901   */\n      dup3\n        /* \"#utility.yul\":7888:7906   */\n      add\n        /* \"#utility.yul\":7880:7906   */\n      swap1\n      pop\n        /* \"#utility.yul\":7916:7987   */\n      tag_278\n        /* \"#utility.yul\":7984:7985   */\n      0x00\n        /* \"#utility.yul\":7973:7982   */\n      dup4\n        /* \"#utility.yul\":7969:7986   */\n      add\n        /* \"#utility.yul\":7960:7966   */\n      dup5\n        /* \"#utility.yul\":7916:7987   */\n      tag_164\n      jump\t// in\n    tag_278:\n        /* \"#utility.yul\":7772:7994   */\n      swap3\n      swap2\n      pop\n      pop\n      jump\t// out\n        /* \"#utility.yul\":8000:8169   */\n    tag_165:\n        /* \"#utility.yul\":8084:8095   */\n      0x00\n        /* \"#utility.yul\":8118:8124   */\n      dup3\n        /* \"#utility.yul\":8113:8116   */\n      dup3\n        /* \"#utility.yul\":8106:8125   */\n      mstore\n        /* \"#utility.yul\":8158:8162   */\n      0x20\n        /* \"#utility.yul\":8153:8156   */\n      dup3\n        /* \"#utility.yul\":8149:8163   */\n      add\n        /* \"#utility.yul\":8134:8163   */\n      swap1\n      pop\n        /* \"#utility.yul\":8000:8169   */\n      swap3\n      swap2\n      pop\n      pop\n      jump\t// out\n        /* \"#utility.yul\":8175:8353   */\n    tag_166:\n        /* \"#utility.yul\":8315:8345   */\n      0x4e6f2076616363696e6174696f6e207265636f72647320666f756e6400000000\n        /* \"#utility.yul\":8311:8312   */\n      0x00\n        /* \"#utility.yul\":8303:8309   */\n      dup3\n        /* \"#utility.yul\":8299:8313   */\n      add\n        /* \"#utility.yul\":8292:8346   */\n      mstore\n        /* \"#utility.yul\":8175:8353   */\n      pop\n      jump\t// out\n        /* \"#utility.yul\":8359:8725   */\n    tag_167:\n        /* \"#utility.yul\":8501:8504   */\n      0x00\n        /* \"#utility.yul\":8522:8589   */\n      tag_282\n        /* \"#utility.yul\":8586:8588   */\n      0x1c\n        /* \"#utility.yul\":8581:8584   */\n      dup4\n        /* \"#utility.yul\":8522:8589   */\n      tag_165\n      jump\t// in\n    tag_282:\n        /* \"#utility.yul\":8515:8589   */\n      swap2\n      pop\n        /* \"#utility.yul\":8598:8691   */\n      tag_283\n        /* \"#utility.yul\":8687:8690   */\n      dup3\n        /* \"#utility.yul\":8598:8691   */\n      tag_166\n      jump\t// in\n    tag_283:\n        /* \"#utility.yul\":8716:8718   */\n      0x20\n        /* \"#utility.yul\":8711:8714   */\n      dup3\n        /* \"#utility.yul\":8707:8719   */\n      add\n        /* \"#utility.yul\":8700:8719   */\n      swap1\n      pop\n        /* \"#utility.yul\":8359:8725   */\n      swap2\n      swap1\n      pop\n      jump\t// out\n        /* \"#utility.yul\":8731:9150   */\n    tag_49:\n        /* \"#utility.yul\":8897:8901   */\n      0x00\n        /* \"#utility.yul\":8935:8937   */\n      0x20\n        /* \"#utility.yul\":8924:8933   */\n      dup3\n        /* \"#utility.yul\":8920:8938   */\n      add\n        /* \"#utility.yul\":8912:8938   */\n      swap1\n      pop\n        /* \"#utility.yul\":8984:8993   */\n      dup2\n        /* \"#utility.yul\":8978:8982   */\n      dup2\n        /* \"#utility.yul\":8974:8994   */\n      sub\n        /* \"#utility.yul\":8970:8971   */\n      0x00\n        /* \"#utility.yul\":8959:8968   */\n      dup4\n        /* \"#utility.yul\":8955:8972   */\n      add\n        /* \"#utility.yul\":8948:8995   */\n      mstore\n        /* \"#utility.yul\":9012:9143   */\n      tag_285\n        /* \"#utility.yul\":9138:9142   */\n      dup2\n        /* \"#utility.yul\":9012:9143   */\n      tag_167\n      jump\t// in\n    tag_285:\n        /* \"#utility.yul\":9004:9143   */\n      swap1\n      pop\n        /* \"#utility.yul\":8731:9150   */\n      swap2\n      swap1\n      pop\n      jump\t// out\n        /* \"#utility.yul\":9156:9336   */\n    tag_59:\n        /* \"#utility.yul\":9204:9281   */\n      0x4e487b7100000000000000000000000000000000000000000000000000000000\n        /* \"#utility.yul\":9201:9202   */\n      0x00\n        /* \"#utility.yul\":9194:9282   */\n      mstore\n        /* \"#utility.yul\":9301:9305   */\n      0x32\n        /* \"#utility.yul\":9298:9299   */\n      0x04\n        /* \"#utility.yul\":9291:9306   */\n      mstore\n        /* \"#utility.yul\":9325:9329   */\n      0x24\n        /* \"#utility.yul\":9322:9323   */\n      0x00\n        /* \"#utility.yul\":9315:9330   */\n      revert\n        /* \"#utility.yul\":9342:9563   */\n    tag_168:\n        /* \"#utility.yul\":9482:9516   */\n      0x4f6e6c792061646d696e2063616e20617574686f72697a652070726f76696465\n        /* \"#utility.yul\":9478:9479   */\n      0x00\n        /* \"#utility.yul\":9470:9476   */\n      dup3\n        /* \"#utility.yul\":9466:9480   */\n      add\n        /* \"#utility.yul\":9459:9517   */\n      mstore\n        /* \"#utility.yul\":9551:9555   */\n      0x7273000000000000000000000000000000000000000000000000000000000000\n        /* \"#utility.yul\":9546:9548   */\n      0x20\n        /* \"#utility.yul\":9538:9544   */\n      dup3\n        /* \"#utility.yul\":9534:9549   */\n      add\n        /* \"#utility.yul\":9527:9556   */\n      mstore\n        /* \"#utility.yul\":9342:9563   */\n      pop\n      jump\t// out\n        /* \"#utility.yul\":9569:9935   */\n    tag_169:\n        /* \"#utility.yul\":9711:9714   */\n      0x00\n        /* \"#utility.yul\":9732:9799   */\n      tag_289\n        /* \"#utility.yul\":9796:9798   */\n      0x22\n        /* \"#utility.yul\":9791:9794   */\n      dup4\n        /* \"#utility.yul\":9732:9799   */\n      tag_165\n      jump\t// in\n    tag_289:\n        /* \"#utility.yul\":9725:9799   */\n      swap2\n      pop\n        /* \"#utility.yul\":9808:9901   */\n      tag_290\n        /* \"#utility.yul\":9897:9900   */\n      dup3\n        /* \"#utility.yul\":9808:9901   */\n      tag_168\n      jump\t// in\n    tag_290:\n        /* \"#utility.yul\":9926:9928   */\n      0x40\n        /* \"#utility.yul\":9921:9924   */\n      dup3\n        /* \"#utility.yul\":9917:9929   */\n      add\n        /* \"#utility.yul\":9910:9929   */\n      swap1\n      pop\n        /* \"#utility.yul\":9569:9935   */\n      swap2\n      swap1\n      pop\n      jump\t// out\n        /* \"#utility.yul\":9941:10360   */\n    tag_66:\n        /* \"#utility.yul\":10107:10111   */\n      0x00\n        /* \"#utility.yul\":10145:10147   */\n      0x20\n        /* \"#utility.yul\":10134:10143   */\n      dup3\n        /* \"#utility.yul\":10130:10148   */\n      add\n        /* \"#utility.yul\":10122:10148   */\n      swap1\n      pop\n        /* \"#utility.yul\":10194:10203   */\n      dup2\n        /* \"#utility.yul\":10188:10192   */\n      dup2\n        /* \"#utility.yul\":10184:10204   */\n      sub\n        /* \"#utility.yul\":10180:10181   */\n      0x00\n        /* \"#utility.yul\":10169:10178   */\n      dup4\n        /* \"#utility.yul\":10165:10182   */\n      add\n        /* \"#utility.yul\":10158:10205   */\n      mstore\n        /* \"#utility.yul\":10222:10353   */\n      tag_292\n        /* \"#utility.yul\":10348:10352   */\n      dup2\n        /* \"#utility.yul\":10222:10353   */\n      tag_169\n      jump\t// in\n    tag_292:\n        /* \"#utility.yul\":10214:10353   */\n      swap1\n      pop\n        /* \"#utility.yul\":9941:10360   */\n      swap2\n      swap1\n      pop\n      jump\t// out\n        /* \"#utility.yul\":10366:10460   */\n    tag_170:\n        /* \"#utility.yul\":10399:10407   */\n      0x00\n        /* \"#utility.yul\":10447:10452   */\n      dup2\n        /* \"#utility.yul\":10443:10445   */\n      0x60\n        /* \"#utility.yul\":10439:10453   */\n      shl\n        /* \"#utility.yul\":10418:10453   */\n      swap1\n      pop\n        /* \"#utility.yul\":10366:10460   */\n      swap2\n      swap1\n      pop\n      jump\t// out\n        /* \"#utility.yul\":10466:10560   */\n    tag_171:\n        /* \"#utility.yul\":10505:10512   */\n      0x00\n        /* \"#utility.yul\":10534:10554   */\n      tag_295\n        /* \"#utility.yul\":10548:10553   */\n      dup3\n        /* \"#utility.yul\":10534:10554   */\n      tag_170\n      jump\t// in\n    tag_295:\n        /* \"#utility.yul\":10523:10554   */\n      swap1\n      pop\n        /* \"#utility.yul\":10466:10560   */\n      swap2\n      swap1\n      pop\n      jump\t// out\n        /* \"#utility.yul\":10566:10666   */\n    tag_172:\n        /* \"#utility.yul\":10605:10612   */\n      0x00\n        /* \"#utility.yul\":10634:10660   */\n      tag_297\n        /* \"#utility.yul\":10654:10659   */\n      dup3\n        /* \"#utility.yul\":10634:10660   */\n      tag_171\n      jump\t// in\n    tag_297:\n        /* \"#utility.yul\":10623:10660   */\n      swap1\n      pop\n        /* \"#utility.yul\":10566:10666   */\n      swap2\n      swap1\n      pop\n      jump\t// out\n        /* \"#utility.yul\":10672:10829   */\n    tag_173:\n        /* \"#utility.yul\":10777:10822   */\n      tag_299\n        /* \"#utility.yul\":10797:10821   */\n      tag_300\n        /* \"#utility.yul\":10815:10820   */\n      dup3\n        /* \"#utility.yul\":10797:10821   */\n      tag_140\n      jump\t// in\n    tag_300:\n        /* \"#utility.yul\":10777:10822   */\n      tag_172\n      jump\t// in\n    tag_299:\n        /* \"#utility.yul\":10772:10775   */\n      dup3\n        /* \"#utility.yul\":10765:10823   */\n      mstore\n        /* \"#utility.yul\":10672:10829   */\n      pop\n      pop\n      jump\t// out\n        /* \"#utility.yul\":10835:11091   */\n    tag_70:\n        /* \"#utility.yul\":10947:10950   */\n      0x00\n        /* \"#utility.yul\":10962:11037   */\n      tag_302\n        /* \"#utility.yul\":11033:11036   */\n      dup3\n        /* \"#utility.yul\":11024:11030   */\n      dup5\n        /* \"#utility.yul\":10962:11037   */\n      tag_173\n      jump\t// in\n    tag_302:\n        /* \"#utility.yul\":11062:11064   */\n      0x14\n        /* \"#utility.yul\":11057:11060   */\n      dup3\n        /* \"#utility.yul\":11053:11065   */\n      add\n        /* \"#utility.yul\":11046:11065   */\n      swap2\n      pop\n        /* \"#utility.yul\":11082:11085   */\n      dup2\n        /* \"#utility.yul\":11075:11085   */\n      swap1\n      pop\n        /* \"#utility.yul\":10835:11091   */\n      swap3\n      swap2\n      pop\n      pop\n      jump\t// out\n        /* \"#utility.yul\":11097:11264   */\n    tag_174:\n        /* \"#utility.yul\":11237:11256   */\n      0x496e76616c6964207369676e6174757265000000000000000000000000000000\n        /* \"#utility.yul\":11233:11234   */\n      0x00\n        /* \"#utility.yul\":11225:11231   */\n      dup3\n        /* \"#utility.yul\":11221:11235   */\n      add\n        /* \"#utility.yul\":11214:11257   */\n      mstore\n        /* \"#utility.yul\":11097:11264   */\n      pop\n      jump\t// out\n        /* \"#utility.yul\":11270:11636   */\n    tag_175:\n        /* \"#utility.yul\":11412:11415   */\n      0x00\n        /* \"#utility.yul\":11433:11500   */\n      tag_305\n        /* \"#utility.yul\":11497:11499   */\n      0x11\n        /* \"#utility.yul\":11492:11495   */\n      dup4\n        /* \"#utility.yul\":11433:11500   */\n      tag_165\n      jump\t// in\n    tag_305:\n        /* \"#utility.yul\":11426:11500   */\n      swap2\n      pop\n        /* \"#utility.yul\":11509:11602   */\n      tag_306\n        /* \"#utility.yul\":11598:11601   */\n      dup3\n        /* \"#utility.yul\":11509:11602   */\n      tag_174\n      jump\t// in\n    tag_306:\n        /* \"#utility.yul\":11627:11629   */\n      0x20\n        /* \"#utility.yul\":11622:11625   */\n      dup3\n        /* \"#utility.yul\":11618:11630   */\n      add\n        /* \"#utility.yul\":11611:11630   */\n      swap1\n      pop\n        /* \"#utility.yul\":11270:11636   */\n      swap2\n      swap1\n      pop\n      jump\t// out\n        /* \"#utility.yul\":11642:12061   */\n    tag_74:\n        /* \"#utility.yul\":11808:11812   */\n      0x00\n        /* \"#utility.yul\":11846:11848   */\n      0x20\n        /* \"#utility.yul\":11835:11844   */\n      dup3\n        /* \"#utility.yul\":11831:11849   */\n      add\n        /* \"#utility.yul\":11823:11849   */\n      swap1\n      pop\n        /* \"#utility.yul\":11895:11904   */\n      dup2\n        /* \"#utility.yul\":11889:11893   */\n      dup2\n        /* \"#utility.yul\":11885:11905   */\n      sub\n        /* \"#utility.yul\":11881:11882   */\n      0x00\n        /* \"#utility.yul\":11870:11879   */\n      dup4\n        /* \"#utility.yul\":11866:11883   */\n      add\n        /* \"#utility.yul\":11859:11906   */\n      mstore\n        /* \"#utility.yul\":11923:12054   */\n      tag_308\n        /* \"#utility.yul\":12049:12053   */\n      dup2\n        /* \"#utility.yul\":11923:12054   */\n      tag_175\n      jump\t// in\n    tag_308:\n        /* \"#utility.yul\":11915:12054   */\n      swap1\n      pop\n        /* \"#utility.yul\":11642:12061   */\n      swap2\n      swap1\n      pop\n      jump\t// out\n        /* \"#utility.yul\":12067:12291   */\n    tag_176:\n        /* \"#utility.yul\":12207:12241   */\n      0x4e6f7420616e20617574686f72697a6564206865616c7468636172652070726f\n        /* \"#utility.yul\":12203:12204   */\n      0x00\n        /* \"#utility.yul\":12195:12201   */\n      dup3\n        /* \"#utility.yul\":12191:12205   */\n      add\n        /* \"#utility.yul\":12184:12242   */\n      mstore\n        /* \"#utility.yul\":12276:12283   */\n      0x7669646572000000000000000000000000000000000000000000000000000000\n        /* \"#utility.yul\":12271:12273   */\n      0x20\n        /* \"#utility.yul\":12263:12269   */\n      dup3\n        /* \"#utility.yul\":12259:12274   */\n      add\n        /* \"#utility.yul\":12252:12284   */\n      mstore\n        /* \"#utility.yul\":12067:12291   */\n      pop\n      jump\t// out\n        /* \"#utility.yul\":12297:12663   */\n    tag_177:\n        /* \"#utility.yul\":12439:12442   */\n      0x00\n        /* \"#utility.yul\":12460:12527   */\n      tag_311\n        /* \"#utility.yul\":12524:12526   */\n      0x25\n        /* \"#utility.yul\":12519:12522   */\n      dup4\n        /* \"#utility.yul\":12460:12527   */\n      tag_165\n      jump\t// in\n    tag_311:\n        /* \"#utility.yul\":12453:12527   */\n      swap2\n      pop\n        /* \"#utility.yul\":12536:12629   */\n      tag_312\n        /* \"#utility.yul\":12625:12628   */\n      dup3\n        /* \"#utility.yul\":12536:12629   */\n      tag_176\n      jump\t// in\n    tag_312:\n        /* \"#utility.yul\":12654:12656   */\n      0x40\n        /* \"#utility.yul\":12649:12652   */\n      dup3\n        /* \"#utility.yul\":12645:12657   */\n      add\n        /* \"#utility.yul\":12638:12657   */\n      swap1\n      pop\n        /* \"#utility.yul\":12297:12663   */\n      swap2\n      swap1\n      pop\n      jump\t// out\n        /* \"#utility.yul\":12669:13088   */\n    tag_81:\n        /* \"#utility.yul\":12835:12839   */\n      0x00\n        /* \"#utility.yul\":12873:12875   */\n      0x20\n        /* \"#utility.yul\":12862:12871   */\n      dup3\n        /* \"#utility.yul\":12858:12876   */\n      add\n        /* \"#utility.yul\":12850:12876   */\n      swap1\n      pop\n        /* \"#utility.yul\":12922:12931   */\n      dup2\n        /* \"#utility.yul\":12916:12920   */\n      dup2\n        /* \"#utility.yul\":12912:12932   */\n      sub\n        /* \"#utility.yul\":12908:12909   */\n      0x00\n        /* \"#utility.yul\":12897:12906   */\n      dup4\n        /* \"#utility.yul\":12893:12910   */\n      add\n        /* \"#utility.yul\":12886:12933   */\n      mstore\n        /* \"#utility.yul\":12950:13081   */\n      tag_314\n        /* \"#utility.yul\":13076:13080   */\n      dup2\n        /* \"#utility.yul\":12950:13081   */\n      tag_177\n      jump\t// in\n    tag_314:\n        /* \"#utility.yul\":12942:13081   */\n      swap1\n      pop\n        /* \"#utility.yul\":12669:13088   */\n      swap2\n      swap1\n      pop\n      jump\t// out\n        /* \"#utility.yul\":13094:13212   */\n    tag_178:\n        /* \"#utility.yul\":13181:13205   */\n      tag_316\n        /* \"#utility.yul\":13199:13204   */\n      dup2\n        /* \"#utility.yul\":13181:13205   */\n      tag_146\n      jump\t// in\n    tag_316:\n        /* \"#utility.yul\":13176:13179   */\n      dup3\n        /* \"#utility.yul\":13169:13206   */\n      mstore\n        /* \"#utility.yul\":13094:13212   */\n      pop\n      pop\n      jump\t// out\n        /* \"#utility.yul\":13218:13440   */\n    tag_84:\n        /* \"#utility.yul\":13311:13315   */\n      0x00\n        /* \"#utility.yul\":13349:13351   */\n      0x20\n        /* \"#utility.yul\":13338:13347   */\n      dup3\n        /* \"#utility.yul\":13334:13352   */\n      add\n        /* \"#utility.yul\":13326:13352   */\n      swap1\n      pop\n        /* \"#utility.yul\":13362:13433   */\n      tag_318\n        /* \"#utility.yul\":13430:13431   */\n      0x00\n        /* \"#utility.yul\":13419:13428   */\n      dup4\n        /* \"#utility.yul\":13415:13432   */\n      add\n        /* \"#utility.yul\":13406:13412   */\n      dup5\n        /* \"#utility.yul\":13362:13433   */\n      tag_178\n      jump\t// in\n    tag_318:\n        /* \"#utility.yul\":13218:13440   */\n      swap3\n      swap2\n      pop\n      pop\n      jump\t// out\n        /* \"#utility.yul\":13446:13594   */\n    tag_179:\n        /* \"#utility.yul\":13548:13559   */\n      0x00\n        /* \"#utility.yul\":13585:13588   */\n      dup2\n        /* \"#utility.yul\":13570:13588   */\n      swap1\n      pop\n        /* \"#utility.yul\":13446:13594   */\n      swap3\n      swap2\n      pop\n      pop\n      jump\t// out\n        /* \"#utility.yul\":13600:13814   */\n    tag_180:\n        /* \"#utility.yul\":13740:13806   */\n      0x19457468657265756d205369676e6564204d6573736167653a0a333200000000\n        /* \"#utility.yul\":13736:13737   */\n      0x00\n        /* \"#utility.yul\":13728:13734   */\n      dup3\n        /* \"#utility.yul\":13724:13738   */\n      add\n        /* \"#utility.yul\":13717:13807   */\n      mstore\n        /* \"#utility.yul\":13600:13814   */\n      pop\n      jump\t// out\n        /* \"#utility.yul\":13820:14222   */\n    tag_181:\n        /* \"#utility.yul\":13980:13983   */\n      0x00\n        /* \"#utility.yul\":14001:14086   */\n      tag_322\n        /* \"#utility.yul\":14083:14085   */\n      0x1c\n        /* \"#utility.yul\":14078:14081   */\n      dup4\n        /* \"#utility.yul\":14001:14086   */\n      tag_179\n      jump\t// in\n    tag_322:\n        /* \"#utility.yul\":13994:14086   */\n      swap2\n      pop\n        /* \"#utility.yul\":14095:14188   */\n      tag_323\n        /* \"#utility.yul\":14184:14187   */\n      dup3\n        /* \"#utility.yul\":14095:14188   */\n      tag_180\n      jump\t// in\n    tag_323:\n        /* \"#utility.yul\":14213:14215   */\n      0x1c\n        /* \"#utility.yul\":14208:14211   */\n      dup3\n        /* \"#utility.yul\":14204:14216   */\n      add\n        /* \"#utility.yul\":14197:14216   */\n      swap1\n      pop\n        /* \"#utility.yul\":13820:14222   */\n      swap2\n      swap1\n      pop\n      jump\t// out\n        /* \"#utility.yul\":14228:14307   */\n    tag_182:\n        /* \"#utility.yul\":14267:14274   */\n      0x00\n        /* \"#utility.yul\":14296:14301   */\n      dup2\n        /* \"#utility.yul\":14285:14301   */\n      swap1\n      pop\n        /* \"#utility.yul\":14228:14307   */\n      swap2\n      swap1\n      pop\n      jump\t// out\n        /* \"#utility.yul\":14313:14470   */\n    tag_183:\n        /* \"#utility.yul\":14418:14463   */\n      tag_326\n        /* \"#utility.yul\":14438:14462   */\n      tag_327\n        /* \"#utility.yul\":14456:14461   */\n      dup3\n        /* \"#utility.yul\":14438:14462   */\n      tag_146\n      jump\t// in\n    tag_327:\n        /* \"#utility.yul\":14418:14463   */\n      tag_182\n      jump\t// in\n    tag_326:\n        /* \"#utility.yul\":14413:14416   */\n      dup3\n        /* \"#utility.yul\":14406:14464   */\n      mstore\n        /* \"#utility.yul\":14313:14470   */\n      pop\n      pop\n      jump\t// out\n        /* \"#utility.yul\":14476:14998   */\n    tag_88:\n        /* \"#utility.yul\":14689:14692   */\n      0x00\n        /* \"#utility.yul\":14711:14859   */\n      tag_329\n        /* \"#utility.yul\":14855:14858   */\n      dup3\n        /* \"#utility.yul\":14711:14859   */\n      tag_181\n      jump\t// in\n    tag_329:\n        /* \"#utility.yul\":14704:14859   */\n      swap2\n      pop\n        /* \"#utility.yul\":14869:14944   */\n      tag_330\n        /* \"#utility.yul\":14940:14943   */\n      dup3\n        /* \"#utility.yul\":14931:14937   */\n      dup5\n        /* \"#utility.yul\":14869:14944   */\n      tag_183\n      jump\t// in\n    tag_330:\n        /* \"#utility.yul\":14969:14971   */\n      0x20\n        /* \"#utility.yul\":14964:14967   */\n      dup3\n        /* \"#utility.yul\":14960:14972   */\n      add\n        /* \"#utility.yul\":14953:14972   */\n      swap2\n      pop\n        /* \"#utility.yul\":14989:14992   */\n      dup2\n        /* \"#utility.yul\":14982:14992   */\n      swap1\n      pop\n        /* \"#utility.yul\":14476:14998   */\n      swap3\n      swap2\n      pop\n      pop\n      jump\t// out\n        /* \"#utility.yul\":15004:15184   */\n    tag_104:\n        /* \"#utility.yul\":15052:15129   */\n      0x4e487b7100000000000000000000000000000000000000000000000000000000\n        /* \"#utility.yul\":15049:15050   */\n      0x00\n        /* \"#utility.yul\":15042:15130   */\n      mstore\n        /* \"#utility.yul\":15149:15153   */\n      0x21\n        /* \"#utility.yul\":15146:15147   */\n      0x04\n        /* \"#utility.yul\":15139:15154   */\n      mstore\n        /* \"#utility.yul\":15173:15177   */\n      0x24\n        /* \"#utility.yul\":15170:15171   */\n      0x00\n        /* \"#utility.yul\":15163:15178   */\n      revert\n        /* \"#utility.yul\":15190:15267   */\n    tag_184:\n        /* \"#utility.yul\":15227:15234   */\n      0x00\n        /* \"#utility.yul\":15256:15261   */\n      dup2\n        /* \"#utility.yul\":15245:15261   */\n      swap1\n      pop\n        /* \"#utility.yul\":15190:15267   */\n      swap2\n      swap1\n      pop\n      jump\t// out\n        /* \"#utility.yul\":15273:15391   */\n    tag_185:\n        /* \"#utility.yul\":15360:15384   */\n      tag_334\n        /* \"#utility.yul\":15378:15383   */\n      dup2\n        /* \"#utility.yul\":15360:15384   */\n      tag_184\n      jump\t// in\n    tag_334:\n        /* \"#utility.yul\":15355:15358   */\n      dup3\n        /* \"#utility.yul\":15348:15385   */\n      mstore\n        /* \"#utility.yul\":15273:15391   */\n      pop\n      pop\n      jump\t// out\n        /* \"#utility.yul\":15397:15619   */\n    tag_121:\n        /* \"#utility.yul\":15490:15494   */\n      0x00\n        /* \"#utility.yul\":15528:15530   */\n      0x20\n        /* \"#utility.yul\":15517:15526   */\n      dup3\n        /* \"#utility.yul\":15513:15531   */\n      add\n        /* \"#utility.yul\":15505:15531   */\n      swap1\n      pop\n        /* \"#utility.yul\":15541:15612   */\n      tag_336\n        /* \"#utility.yul\":15609:15610   */\n      0x00\n        /* \"#utility.yul\":15598:15607   */\n      dup4\n        /* \"#utility.yul\":15594:15611   */\n      add\n        /* \"#utility.yul\":15585:15591   */\n      dup5\n        /* \"#utility.yul\":15541:15612   */\n      tag_185\n      jump\t// in\n    tag_336:\n        /* \"#utility.yul\":15397:15619   */\n      swap3\n      swap2\n      pop\n      pop\n      jump\t// out\n        /* \"#utility.yul\":15625:15711   */\n    tag_186:\n        /* \"#utility.yul\":15660:15667   */\n      0x00\n        /* \"#utility.yul\":15700:15704   */\n      0xff\n        /* \"#utility.yul\":15693:15698   */\n      dup3\n        /* \"#utility.yul\":15689:15705   */\n      and\n        /* \"#utility.yul\":15678:15705   */\n      swap1\n      pop\n        /* \"#utility.yul\":15625:15711   */\n      swap2\n      swap1\n      pop\n      jump\t// out\n        /* \"#utility.yul\":15717:15829   */\n    tag_187:\n        /* \"#utility.yul\":15800:15822   */\n      tag_339\n        /* \"#utility.yul\":15816:15821   */\n      dup2\n        /* \"#utility.yul\":15800:15822   */\n      tag_186\n      jump\t// in\n    tag_339:\n        /* \"#utility.yul\":15795:15798   */\n      dup3\n        /* \"#utility.yul\":15788:15823   */\n      mstore\n        /* \"#utility.yul\":15717:15829   */\n      pop\n      pop\n      jump\t// out\n        /* \"#utility.yul\":15835:16380   */\n    tag_132:\n        /* \"#utility.yul\":16008:16012   */\n      0x00\n        /* \"#utility.yul\":16046:16049   */\n      0x80\n        /* \"#utility.yul\":16035:16044   */\n      dup3\n        /* \"#utility.yul\":16031:16050   */\n      add\n        /* \"#utility.yul\":16023:16050   */\n      swap1\n      pop\n        /* \"#utility.yul\":16060:16131   */\n      tag_341\n        /* \"#utility.yul\":16128:16129   */\n      0x00\n        /* \"#utility.yul\":16117:16126   */\n      dup4\n        /* \"#utility.yul\":16113:16130   */\n      add\n        /* \"#utility.yul\":16104:16110   */\n      dup8\n        /* \"#utility.yul\":16060:16131   */\n      tag_178\n      jump\t// in\n    tag_341:\n        /* \"#utility.yul\":16141:16209   */\n      tag_342\n        /* \"#utility.yul\":16205:16207   */\n      0x20\n        /* \"#utility.yul\":16194:16203   */\n      dup4\n        /* \"#utility.yul\":16190:16208   */\n      add\n        /* \"#utility.yul\":16181:16187   */\n      dup7\n        /* \"#utility.yul\":16141:16209   */\n      tag_187\n      jump\t// in\n    tag_342:\n        /* \"#utility.yul\":16219:16291   */\n      tag_343\n        /* \"#utility.yul\":16287:16289   */\n      0x40\n        /* \"#utility.yul\":16276:16285   */\n      dup4\n        /* \"#utility.yul\":16272:16290   */\n      add\n        /* \"#utility.yul\":16263:16269   */\n      dup6\n        /* \"#utility.yul\":16219:16291   */\n      tag_178\n      jump\t// in\n    tag_343:\n        /* \"#utility.yul\":16301:16373   */\n      tag_344\n        /* \"#utility.yul\":16369:16371   */\n      0x60\n        /* \"#utility.yul\":16358:16367   */\n      dup4\n        /* \"#utility.yul\":16354:16372   */\n      add\n        /* \"#utility.yul\":16345:16351   */\n      dup5\n        /* \"#utility.yul\":16301:16373   */\n      tag_178\n      jump\t// in\n    tag_344:\n        /* \"#utility.yul\":15835:16380   */\n      swap6\n      swap5\n      pop\n      pop\n      pop\n      pop\n      pop\n      jump\t// out\n\n    auxdata: 0xa264697066735822122037dd51ee4a8b036cf8cbb10ffaf4efefbee7663b199951b66e9a315d0e5c5da764736f6c634300081a0033\n}\n",
				"bytecode": {
					"linkReferences": {},
					"object": "6080604052348015600e575f80fd5b50335f806101000a81548173ffffffffffffffffffffffffffffffffffffffff021916908373ffffffffffffffffffffffffffffffffffffffff1602179055506113b58061005b5f395ff3fe608060405234801561000f575f80fd5b5060043610610086575f3560e01c80634c249f41116100595780634c249f41146101225780635d2a40691461013e57806371062f6a1461016e578063d5f394881461019e57610086565b8063193dd2ea1461008a578063319aafc5146100ba57806339a54102146100ea578063484a861b14610106575b5f80fd5b6100a4600480360381019061009f9190610be8565b6101bc565b6040516100b19190610cd3565b60405180910390f35b6100d460048036038101906100cf9190610be8565b6103aa565b6040516100e19190610d0d565b60405180910390f35b61010460048036038101906100ff9190610be8565b6103c7565b005b610120600480360381019061011b9190610e62565b6104ef565b005b61013c60048036038101906101379190610ee6565b6105fb565b005b61015860048036038101906101539190610be8565b6107ad565b6040516101659190610d0d565b60405180910390f35b61018860048036038101906101839190610be8565b6107ff565b6040516101959190610d0d565b60405180910390f35b6101a661081c565b6040516101b39190610f61565b60405180910390f35b60605f60015f8473ffffffffffffffffffffffffffffffffffffffff1673ffffffffffffffffffffffffffffffffffffffff1681526020019081526020015f208054905011610240576040517f08c379a000000000000000000000000000000000000000000000000000000000815260040161023790610fd4565b60405180910390fd5b5f60015f8473ffffffffffffffffffffffffffffffffffffffff1673ffffffffffffffffffffffffffffffffffffffff1681526020019081526020015f208054905067ffffffffffffffff81111561029b5761029a610d3e565b5b6040519080825280602002602001820160405280156102c95781602001602082028036833780820191505090505b5090505f5b60015f8573ffffffffffffffffffffffffffffffffffffffff1673ffffffffffffffffffffffffffffffffffffffff1681526020019081526020015f20805490508110156103a05760015f8573ffffffffffffffffffffffffffffffffffffffff1673ffffffffffffffffffffffffffffffffffffffff1681526020019081526020015f20818154811061036557610364610ff2565b5b905f5260205f2090600202015f015482828151811061038757610386610ff2565b5b60200260200101818152505080806001019150506102ce565b5080915050919050565b6003602052805f5260405f205f915054906101000a900460ff1681565b5f8054906101000a900473ffffffffffffffffffffffffffffffffffffffff1673ffffffffffffffffffffffffffffffffffffffff163373ffffffffffffffffffffffffffffffffffffffff1614610454576040517f08c379a000000000000000000000000000000000000000000000000000000000815260040161044b9061108f565b60405180910390fd5b600160025f8373ffffffffffffffffffffffffffffffffffffffff1673ffffffffffffffffffffffffffffffffffffffff1681526020019081526020015f205f6101000a81548160ff0219169083151502179055508073ffffffffffffffffffffffffffffffffffffffff167fe59ea020a257267a06180dd8de9094ad5a56e2333dbea8829a7f69a3cb8b3c8a60405160405180910390a250565b610520338360405160200161050491906110f2565b604051602081830303815290604052805190602001208361083f565b61055f576040517f08c379a000000000000000000000000000000000000000000000000000000000815260040161055690611156565b60405180910390fd5b600160035f8473ffffffffffffffffffffffffffffffffffffffff1673ffffffffffffffffffffffffffffffffffffffff1681526020019081526020015f205f6101000a81548160ff0219169083151502179055508173ffffffffffffffffffffffffffffffffffffffff167fc9e11c8d271053b41f88ce51c41d8a8905b38e440272e8670cf4e1798a84018160405160405180910390a25050565b61060633838361083f565b610645576040517f08c379a000000000000000000000000000000000000000000000000000000000815260040161063c90611156565b60405180910390fd5b60025f3373ffffffffffffffffffffffffffffffffffffffff1673ffffffffffffffffffffffffffffffffffffffff1681526020019081526020015f205f9054906101000a900460ff166106ce576040517f08c379a00000000000000000000000000000000000000000000000000000000081526004016106c5906111e4565b60405180910390fd5b60015f8473ffffffffffffffffffffffffffffffffffffffff1673ffffffffffffffffffffffffffffffffffffffff1681526020019081526020015f20604051806040016040528084815260200142815250908060018154018082558091505060019003905f5260205f2090600202015f909190919091505f820151815f01556020820151816001015550508273ffffffffffffffffffffffffffffffffffffffff167f7208cf187afe0ab072008f517860923b908309e019c6a39e32cd71eebb7252d1836040516107a09190611211565b60405180910390a2505050565b5f60035f8373ffffffffffffffffffffffffffffffffffffffff1673ffffffffffffffffffffffffffffffffffffffff1681526020019081526020015f205f9054906101000a900460ff169050919050565b6002602052805f5260405f205f915054906101000a900460ff1681565b5f8054906101000a900473ffffffffffffffffffffffffffffffffffffffff1681565b5f8083604051602001610852919061129e565b6040516020818303038152906040528051906020012090508473ffffffffffffffffffffffffffffffffffffffff1661089484836108b590919063ffffffff16565b73ffffffffffffffffffffffffffffffffffffffff16149150509392505050565b5f805f806108c386866108df565b9250925092506108d38282610934565b82935050505092915050565b5f805f604184510361091f575f805f602087015192506040870151915060608701515f1a905061091188828585610a96565b95509550955050505061092d565b5f600285515f1b9250925092505b9250925092565b5f6003811115610947576109466112c3565b5b82600381111561095a576109596112c3565b5b0315610a925760016003811115610974576109736112c3565b5b826003811115610987576109866112c3565b5b036109be576040517ff645eedf00000000000000000000000000000000000000000000000000000000815260040160405180910390fd5b600260038111156109d2576109d16112c3565b5b8260038111156109e5576109e46112c3565b5b03610a2957805f1c6040517ffce698f7000000000000000000000000000000000000000000000000000000008152600401610a209190611308565b60405180910390fd5b600380811115610a3c57610a3b6112c3565b5b826003811115610a4f57610a4e6112c3565b5b03610a9157806040517fd78bce0c000000000000000000000000000000000000000000000000000000008152600401610a889190611211565b60405180910390fd5b5b5050565b5f805f7f7fffffffffffffffffffffffffffffff5d576e7357a4501ddfe92f46681b20a0845f1c1115610ad2575f600385925092509250610b73565b5f6001888888886040515f8152602001604052604051610af5949392919061133c565b6020604051602081039080840390855afa158015610b15573d5f803e3d5ffd5b5050506020604051035190505f73ffffffffffffffffffffffffffffffffffffffff168173ffffffffffffffffffffffffffffffffffffffff1603610b66575f60015f801b93509350935050610b73565b805f805f1b935093509350505b9450945094915050565b5f604051905090565b5f80fd5b5f80fd5b5f73ffffffffffffffffffffffffffffffffffffffff82169050919050565b5f610bb782610b8e565b9050919050565b610bc781610bad565b8114610bd1575f80fd5b50565b5f81359050610be281610bbe565b92915050565b5f60208284031215610bfd57610bfc610b86565b5b5f610c0a84828501610bd4565b91505092915050565b5f81519050919050565b5f82825260208201905092915050565b5f819050602082019050919050565b5f819050919050565b610c4e81610c3c565b82525050565b5f610c5f8383610c45565b60208301905092915050565b5f602082019050919050565b5f610c8182610c13565b610c8b8185610c1d565b9350610c9683610c2d565b805f5b83811015610cc6578151610cad8882610c54565b9750610cb883610c6b565b925050600181019050610c99565b5085935050505092915050565b5f6020820190508181035f830152610ceb8184610c77565b905092915050565b5f8115159050919050565b610d0781610cf3565b82525050565b5f602082019050610d205f830184610cfe565b92915050565b5f80fd5b5f80fd5b5f601f19601f8301169050919050565b7f4e487b71000000000000000000000000000000000000000000000000000000005f52604160045260245ffd5b610d7482610d2e565b810181811067ffffffffffffffff82111715610d9357610d92610d3e565b5b80604052505050565b5f610da5610b7d565b9050610db18282610d6b565b919050565b5f67ffffffffffffffff821115610dd057610dcf610d3e565b5b610dd982610d2e565b9050602081019050919050565b828183375f83830152505050565b5f610e06610e0184610db6565b610d9c565b905082815260208101848484011115610e2257610e21610d2a565b5b610e2d848285610de6565b509392505050565b5f82601f830112610e4957610e48610d26565b5b8135610e59848260208601610df4565b91505092915050565b5f8060408385031215610e7857610e77610b86565b5b5f610e8585828601610bd4565b925050602083013567ffffffffffffffff811115610ea657610ea5610b8a565b5b610eb285828601610e35565b9150509250929050565b610ec581610c3c565b8114610ecf575f80fd5b50565b5f81359050610ee081610ebc565b92915050565b5f805f60608486031215610efd57610efc610b86565b5b5f610f0a86828701610bd4565b9350506020610f1b86828701610ed2565b925050604084013567ffffffffffffffff811115610f3c57610f3b610b8a565b5b610f4886828701610e35565b9150509250925092565b610f5b81610bad565b82525050565b5f602082019050610f745f830184610f52565b92915050565b5f82825260208201905092915050565b7f4e6f2076616363696e6174696f6e207265636f72647320666f756e64000000005f82015250565b5f610fbe601c83610f7a565b9150610fc982610f8a565b602082019050919050565b5f6020820190508181035f830152610feb81610fb2565b9050919050565b7f4e487b71000000000000000000000000000000000000000000000000000000005f52603260045260245ffd5b7f4f6e6c792061646d696e2063616e20617574686f72697a652070726f766964655f8201527f7273000000000000000000000000000000000000000000000000000000000000602082015250565b5f611079602283610f7a565b91506110848261101f565b604082019050919050565b5f6020820190508181035f8301526110a68161106d565b9050919050565b5f8160601b9050919050565b5f6110c3826110ad565b9050919050565b5f6110d4826110b9565b9050919050565b6110ec6110e782610bad565b6110ca565b82525050565b5f6110fd82846110db565b60148201915081905092915050565b7f496e76616c6964207369676e61747572650000000000000000000000000000005f82015250565b5f611140601183610f7a565b915061114b8261110c565b602082019050919050565b5f6020820190508181035f83015261116d81611134565b9050919050565b7f4e6f7420616e20617574686f72697a6564206865616c7468636172652070726f5f8201527f7669646572000000000000000000000000000000000000000000000000000000602082015250565b5f6111ce602583610f7a565b91506111d982611174565b604082019050919050565b5f6020820190508181035f8301526111fb816111c2565b9050919050565b61120b81610c3c565b82525050565b5f6020820190506112245f830184611202565b92915050565b5f81905092915050565b7f19457468657265756d205369676e6564204d6573736167653a0a3332000000005f82015250565b5f611268601c8361122a565b915061127382611234565b601c82019050919050565b5f819050919050565b61129861129382610c3c565b61127e565b82525050565b5f6112a88261125c565b91506112b48284611287565b60208201915081905092915050565b7f4e487b71000000000000000000000000000000000000000000000000000000005f52602160045260245ffd5b5f819050919050565b611302816112f0565b82525050565b5f60208201905061131b5f8301846112f9565b92915050565b5f60ff82169050919050565b61133681611321565b82525050565b5f60808201905061134f5f830187611202565b61135c602083018661132d565b6113696040830185611202565b6113766060830184611202565b9594505050505056fea264697066735822122037dd51ee4a8b036cf8cbb10ffaf4efefbee7663b199951b66e9a315d0e5c5da764736f6c634300081a0033",
					"opcodes": "PUSH1 0x80 PUSH1 0x40 MSTORE CALLVALUE DUP1 ISZERO PUSH1 0xE JUMPI PUSH0 DUP1 REVERT JUMPDEST POP CALLER PUSH0 DUP1 PUSH2 0x100 EXP DUP2 SLOAD DUP2 PUSH20 0xFFFFFFFFFFFFFFFFFFFFFFFFFFFFFFFFFFFFFFFF MUL NOT AND SWAP1 DUP4 PUSH20 0xFFFFFFFFFFFFFFFFFFFFFFFFFFFFFFFFFFFFFFFF AND MUL OR SWAP1 SSTORE POP PUSH2 0x13B5 DUP1 PUSH2 0x5B PUSH0 CODECOPY PUSH0 RETURN INVALID PUSH1 0x80 PUSH1 0x40 MSTORE CALLVALUE DUP1 ISZERO PUSH2 0xF JUMPI PUSH0 DUP1 REVERT JUMPDEST POP PUSH1 0x4 CALLDATASIZE LT PUSH2 0x86 JUMPI PUSH0 CALLDATALOAD PUSH1 0xE0 SHR DUP1 PUSH4 0x4C249F41 GT PUSH2 0x59 JUMPI DUP1 PUSH4 0x4C249F41 EQ PUSH2 0x122 JUMPI DUP1 PUSH4 0x5D2A4069 EQ PUSH2 0x13E JUMPI DUP1 PUSH4 0x71062F6A EQ PUSH2 0x16E JUMPI DUP1 PUSH4 0xD5F39488 EQ PUSH2 0x19E JUMPI PUSH2 0x86 JUMP JUMPDEST DUP1 PUSH4 0x193DD2EA EQ PUSH2 0x8A JUMPI DUP1 PUSH4 0x319AAFC5 EQ PUSH2 0xBA JUMPI DUP1 PUSH4 0x39A54102 EQ PUSH2 0xEA JUMPI DUP1 PUSH4 0x484A861B EQ PUSH2 0x106 JUMPI JUMPDEST PUSH0 DUP1 REVERT JUMPDEST PUSH2 0xA4 PUSH1 0x4 DUP1 CALLDATASIZE SUB DUP2 ADD SWAP1 PUSH2 0x9F SWAP2 SWAP1 PUSH2 0xBE8 JUMP JUMPDEST PUSH2 0x1BC JUMP JUMPDEST PUSH1 0x40 MLOAD PUSH2 0xB1 SWAP2 SWAP1 PUSH2 0xCD3 JUMP JUMPDEST PUSH1 0x40 MLOAD DUP1 SWAP2 SUB SWAP1 RETURN JUMPDEST PUSH2 0xD4 PUSH1 0x4 DUP1 CALLDATASIZE SUB DUP2 ADD SWAP1 PUSH2 0xCF SWAP2 SWAP1 PUSH2 0xBE8 JUMP JUMPDEST PUSH2 0x3AA JUMP JUMPDEST PUSH1 0x40 MLOAD PUSH2 0xE1 SWAP2 SWAP1 PUSH2 0xD0D JUMP JUMPDEST PUSH1 0x40 MLOAD DUP1 SWAP2 SUB SWAP1 RETURN JUMPDEST PUSH2 0x104 PUSH1 0x4 DUP1 CALLDATASIZE SUB DUP2 ADD SWAP1 PUSH2 0xFF SWAP2 SWAP1 PUSH2 0xBE8 JUMP JUMPDEST PUSH2 0x3C7 JUMP JUMPDEST STOP JUMPDEST PUSH2 0x120 PUSH1 0x4 DUP1 CALLDATASIZE SUB DUP2 ADD SWAP1 PUSH2 0x11B SWAP2 SWAP1 PUSH2 0xE62 JUMP JUMPDEST PUSH2 0x4EF JUMP JUMPDEST STOP JUMPDEST PUSH2 0x13C PUSH1 0x4 DUP1 CALLDATASIZE SUB DUP2 ADD SWAP1 PUSH2 0x137 SWAP2 SWAP1 PUSH2 0xEE6 JUMP JUMPDEST PUSH2 0x5FB JUMP JUMPDEST STOP JUMPDEST PUSH2 0x158 PUSH1 0x4 DUP1 CALLDATASIZE SUB DUP2 ADD SWAP1 PUSH2 0x153 SWAP2 SWAP1 PUSH2 0xBE8 JUMP JUMPDEST PUSH2 0x7AD JUMP JUMPDEST PUSH1 0x40 MLOAD PUSH2 0x165 SWAP2 SWAP1 PUSH2 0xD0D JUMP JUMPDEST PUSH1 0x40 MLOAD DUP1 SWAP2 SUB SWAP1 RETURN JUMPDEST PUSH2 0x188 PUSH1 0x4 DUP1 CALLDATASIZE SUB DUP2 ADD SWAP1 PUSH2 0x183 SWAP2 SWAP1 PUSH2 0xBE8 JUMP JUMPDEST PUSH2 0x7FF JUMP JUMPDEST PUSH1 0x40 MLOAD PUSH2 0x195 SWAP2 SWAP1 PUSH2 0xD0D JUMP JUMPDEST PUSH1 0x40 MLOAD DUP1 SWAP2 SUB SWAP1 RETURN JUMPDEST PUSH2 0x1A6 PUSH2 0x81C JUMP JUMPDEST PUSH1 0x40 MLOAD PUSH2 0x1B3 SWAP2 SWAP1 PUSH2 0xF61 JUMP JUMPDEST PUSH1 0x40 MLOAD DUP1 SWAP2 SUB SWAP1 RETURN JUMPDEST PUSH1 0x60 PUSH0 PUSH1 0x1 PUSH0 DUP5 PUSH20 0xFFFFFFFFFFFFFFFFFFFFFFFFFFFFFFFFFFFFFFFF AND PUSH20 0xFFFFFFFFFFFFFFFFFFFFFFFFFFFFFFFFFFFFFFFF AND DUP2 MSTORE PUSH1 0x20 ADD SWAP1 DUP2 MSTORE PUSH1 0x20 ADD PUSH0 KECCAK256 DUP1 SLOAD SWAP1 POP GT PUSH2 0x240 JUMPI PUSH1 0x40 MLOAD PUSH32 0x8C379A000000000000000000000000000000000000000000000000000000000 DUP2 MSTORE PUSH1 0x4 ADD PUSH2 0x237 SWAP1 PUSH2 0xFD4 JUMP JUMPDEST PUSH1 0x40 MLOAD DUP1 SWAP2 SUB SWAP1 REVERT JUMPDEST PUSH0 PUSH1 0x1 PUSH0 DUP5 PUSH20 0xFFFFFFFFFFFFFFFFFFFFFFFFFFFFFFFFFFFFFFFF AND PUSH20 0xFFFFFFFFFFFFFFFFFFFFFFFFFFFFFFFFFFFFFFFF AND DUP2 MSTORE PUSH1 0x20 ADD SWAP1 DUP2 MSTORE PUSH1 0x20 ADD PUSH0 KECCAK256 DUP1 SLOAD SWAP1 POP PUSH8 0xFFFFFFFFFFFFFFFF DUP2 GT ISZERO PUSH2 0x29B JUMPI PUSH2 0x29A PUSH2 0xD3E JUMP JUMPDEST JUMPDEST PUSH1 0x40 MLOAD SWAP1 DUP1 DUP3 MSTORE DUP1 PUSH1 0x20 MUL PUSH1 0x20 ADD DUP3 ADD PUSH1 0x40 MSTORE DUP1 ISZERO PUSH2 0x2C9 JUMPI DUP2 PUSH1 0x20 ADD PUSH1 0x20 DUP3 MUL DUP1 CALLDATASIZE DUP4 CALLDATACOPY DUP1 DUP3 ADD SWAP2 POP POP SWAP1 POP JUMPDEST POP SWAP1 POP PUSH0 JUMPDEST PUSH1 0x1 PUSH0 DUP6 PUSH20 0xFFFFFFFFFFFFFFFFFFFFFFFFFFFFFFFFFFFFFFFF AND PUSH20 0xFFFFFFFFFFFFFFFFFFFFFFFFFFFFFFFFFFFFFFFF AND DUP2 MSTORE PUSH1 0x20 ADD SWAP1 DUP2 MSTORE PUSH1 0x20 ADD PUSH0 KECCAK256 DUP1 SLOAD SWAP1 POP DUP2 LT ISZERO PUSH2 0x3A0 JUMPI PUSH1 0x1 PUSH0 DUP6 PUSH20 0xFFFFFFFFFFFFFFFFFFFFFFFFFFFFFFFFFFFFFFFF AND PUSH20 0xFFFFFFFFFFFFFFFFFFFFFFFFFFFFFFFFFFFFFFFF AND DUP2 MSTORE PUSH1 0x20 ADD SWAP1 DUP2 MSTORE PUSH1 0x20 ADD PUSH0 KECCAK256 DUP2 DUP2 SLOAD DUP2 LT PUSH2 0x365 JUMPI PUSH2 0x364 PUSH2 0xFF2 JUMP JUMPDEST JUMPDEST SWAP1 PUSH0 MSTORE PUSH1 0x20 PUSH0 KECCAK256 SWAP1 PUSH1 0x2 MUL ADD PUSH0 ADD SLOAD DUP3 DUP3 DUP2 MLOAD DUP2 LT PUSH2 0x387 JUMPI PUSH2 0x386 PUSH2 0xFF2 JUMP JUMPDEST JUMPDEST PUSH1 0x20 MUL PUSH1 0x20 ADD ADD DUP2 DUP2 MSTORE POP POP DUP1 DUP1 PUSH1 0x1 ADD SWAP2 POP POP PUSH2 0x2CE JUMP JUMPDEST POP DUP1 SWAP2 POP POP SWAP2 SWAP1 POP JUMP JUMPDEST PUSH1 0x3 PUSH1 0x20 MSTORE DUP1 PUSH0 MSTORE PUSH1 0x40 PUSH0 KECCAK256 PUSH0 SWAP2 POP SLOAD SWAP1 PUSH2 0x100 EXP SWAP1 DIV PUSH1 0xFF AND DUP2 JUMP JUMPDEST PUSH0 DUP1 SLOAD SWAP1 PUSH2 0x100 EXP SWAP1 DIV PUSH20 0xFFFFFFFFFFFFFFFFFFFFFFFFFFFFFFFFFFFFFFFF AND PUSH20 0xFFFFFFFFFFFFFFFFFFFFFFFFFFFFFFFFFFFFFFFF AND CALLER PUSH20 0xFFFFFFFFFFFFFFFFFFFFFFFFFFFFFFFFFFFFFFFF AND EQ PUSH2 0x454 JUMPI PUSH1 0x40 MLOAD PUSH32 0x8C379A000000000000000000000000000000000000000000000000000000000 DUP2 MSTORE PUSH1 0x4 ADD PUSH2 0x44B SWAP1 PUSH2 0x108F JUMP JUMPDEST PUSH1 0x40 MLOAD DUP1 SWAP2 SUB SWAP1 REVERT JUMPDEST PUSH1 0x1 PUSH1 0x2 PUSH0 DUP4 PUSH20 0xFFFFFFFFFFFFFFFFFFFFFFFFFFFFFFFFFFFFFFFF AND PUSH20 0xFFFFFFFFFFFFFFFFFFFFFFFFFFFFFFFFFFFFFFFF AND DUP2 MSTORE PUSH1 0x20 ADD SWAP1 DUP2 MSTORE PUSH1 0x20 ADD PUSH0 KECCAK256 PUSH0 PUSH2 0x100 EXP DUP2 SLOAD DUP2 PUSH1 0xFF MUL NOT AND SWAP1 DUP4 ISZERO ISZERO MUL OR SWAP1 SSTORE POP DUP1 PUSH20 0xFFFFFFFFFFFFFFFFFFFFFFFFFFFFFFFFFFFFFFFF AND PUSH32 0xE59EA020A257267A06180DD8DE9094AD5A56E2333DBEA8829A7F69A3CB8B3C8A PUSH1 0x40 MLOAD PUSH1 0x40 MLOAD DUP1 SWAP2 SUB SWAP1 LOG2 POP JUMP JUMPDEST PUSH2 0x520 CALLER DUP4 PUSH1 0x40 MLOAD PUSH1 0x20 ADD PUSH2 0x504 SWAP2 SWAP1 PUSH2 0x10F2 JUMP JUMPDEST PUSH1 0x40 MLOAD PUSH1 0x20 DUP2 DUP4 SUB SUB DUP2 MSTORE SWAP1 PUSH1 0x40 MSTORE DUP1 MLOAD SWAP1 PUSH1 0x20 ADD KECCAK256 DUP4 PUSH2 0x83F JUMP JUMPDEST PUSH2 0x55F JUMPI PUSH1 0x40 MLOAD PUSH32 0x8C379A000000000000000000000000000000000000000000000000000000000 DUP2 MSTORE PUSH1 0x4 ADD PUSH2 0x556 SWAP1 PUSH2 0x1156 JUMP JUMPDEST PUSH1 0x40 MLOAD DUP1 SWAP2 SUB SWAP1 REVERT JUMPDEST PUSH1 0x1 PUSH1 0x3 PUSH0 DUP5 PUSH20 0xFFFFFFFFFFFFFFFFFFFFFFFFFFFFFFFFFFFFFFFF AND PUSH20 0xFFFFFFFFFFFFFFFFFFFFFFFFFFFFFFFFFFFFFFFF AND DUP2 MSTORE PUSH1 0x20 ADD SWAP1 DUP2 MSTORE PUSH1 0x20 ADD PUSH0 KECCAK256 PUSH0 PUSH2 0x100 EXP DUP2 SLOAD DUP2 PUSH1 0xFF MUL NOT AND SWAP1 DUP4 ISZERO ISZERO MUL OR SWAP1 SSTORE POP DUP2 PUSH20 0xFFFFFFFFFFFFFFFFFFFFFFFFFFFFFFFFFFFFFFFF AND PUSH32 0xC9E11C8D271053B41F88CE51C41D8A8905B38E440272E8670CF4E1798A840181 PUSH1 0x40 MLOAD PUSH1 0x40 MLOAD DUP1 SWAP2 SUB SWAP1 LOG2 POP POP JUMP JUMPDEST PUSH2 0x606 CALLER DUP4 DUP4 PUSH2 0x83F JUMP JUMPDEST PUSH2 0x645 JUMPI PUSH1 0x40 MLOAD PUSH32 0x8C379A000000000000000000000000000000000000000000000000000000000 DUP2 MSTORE PUSH1 0x4 ADD PUSH2 0x63C SWAP1 PUSH2 0x1156 JUMP JUMPDEST PUSH1 0x40 MLOAD DUP1 SWAP2 SUB SWAP1 REVERT JUMPDEST PUSH1 0x2 PUSH0 CALLER PUSH20 0xFFFFFFFFFFFFFFFFFFFFFFFFFFFFFFFFFFFFFFFF AND PUSH20 0xFFFFFFFFFFFFFFFFFFFFFFFFFFFFFFFFFFFFFFFF AND DUP2 MSTORE PUSH1 0x20 ADD SWAP1 DUP2 MSTORE PUSH1 0x20 ADD PUSH0 KECCAK256 PUSH0 SWAP1 SLOAD SWAP1 PUSH2 0x100 EXP SWAP1 DIV PUSH1 0xFF AND PUSH2 0x6CE JUMPI PUSH1 0x40 MLOAD PUSH32 0x8C379A000000000000000000000000000000000000000000000000000000000 DUP2 MSTORE PUSH1 0x4 ADD PUSH2 0x6C5 SWAP1 PUSH2 0x11E4 JUMP JUMPDEST PUSH1 0x40 MLOAD DUP1 SWAP2 SUB SWAP1 REVERT JUMPDEST PUSH1 0x1 PUSH0 DUP5 PUSH20 0xFFFFFFFFFFFFFFFFFFFFFFFFFFFFFFFFFFFFFFFF AND PUSH20 0xFFFFFFFFFFFFFFFFFFFFFFFFFFFFFFFFFFFFFFFF AND DUP2 MSTORE PUSH1 0x20 ADD SWAP1 DUP2 MSTORE PUSH1 0x20 ADD PUSH0 KECCAK256 PUSH1 0x40 MLOAD DUP1 PUSH1 0x40 ADD PUSH1 0x40 MSTORE DUP1 DUP5 DUP2 MSTORE PUSH1 0x20 ADD TIMESTAMP DUP2 MSTORE POP SWAP1 DUP1 PUSH1 0x1 DUP2 SLOAD ADD DUP1 DUP3 SSTORE DUP1 SWAP2 POP POP PUSH1 0x1 SWAP1 SUB SWAP1 PUSH0 MSTORE PUSH1 0x20 PUSH0 KECCAK256 SWAP1 PUSH1 0x2 MUL ADD PUSH0 SWAP1 SWAP2 SWAP1 SWAP2 SWAP1 SWAP2 POP PUSH0 DUP3 ADD MLOAD DUP2 PUSH0 ADD SSTORE PUSH1 0x20 DUP3 ADD MLOAD DUP2 PUSH1 0x1 ADD SSTORE POP POP DUP3 PUSH20 0xFFFFFFFFFFFFFFFFFFFFFFFFFFFFFFFFFFFFFFFF AND PUSH32 0x7208CF187AFE0AB072008F517860923B908309E019C6A39E32CD71EEBB7252D1 DUP4 PUSH1 0x40 MLOAD PUSH2 0x7A0 SWAP2 SWAP1 PUSH2 0x1211 JUMP JUMPDEST PUSH1 0x40 MLOAD DUP1 SWAP2 SUB SWAP1 LOG2 POP POP POP JUMP JUMPDEST PUSH0 PUSH1 0x3 PUSH0 DUP4 PUSH20 0xFFFFFFFFFFFFFFFFFFFFFFFFFFFFFFFFFFFFFFFF AND PUSH20 0xFFFFFFFFFFFFFFFFFFFFFFFFFFFFFFFFFFFFFFFF AND DUP2 MSTORE PUSH1 0x20 ADD SWAP1 DUP2 MSTORE PUSH1 0x20 ADD PUSH0 KECCAK256 PUSH0 SWAP1 SLOAD SWAP1 PUSH2 0x100 EXP SWAP1 DIV PUSH1 0xFF AND SWAP1 POP SWAP2 SWAP1 POP JUMP JUMPDEST PUSH1 0x2 PUSH1 0x20 MSTORE DUP1 PUSH0 MSTORE PUSH1 0x40 PUSH0 KECCAK256 PUSH0 SWAP2 POP SLOAD SWAP1 PUSH2 0x100 EXP SWAP1 DIV PUSH1 0xFF AND DUP2 JUMP JUMPDEST PUSH0 DUP1 SLOAD SWAP1 PUSH2 0x100 EXP SWAP1 DIV PUSH20 0xFFFFFFFFFFFFFFFFFFFFFFFFFFFFFFFFFFFFFFFF AND DUP2 JUMP JUMPDEST PUSH0 DUP1 DUP4 PUSH1 0x40 MLOAD PUSH1 0x20 ADD PUSH2 0x852 SWAP2 SWAP1 PUSH2 0x129E JUMP JUMPDEST PUSH1 0x40 MLOAD PUSH1 0x20 DUP2 DUP4 SUB SUB DUP2 MSTORE SWAP1 PUSH1 0x40 MSTORE DUP1 MLOAD SWAP1 PUSH1 0x20 ADD KECCAK256 SWAP1 POP DUP5 PUSH20 0xFFFFFFFFFFFFFFFFFFFFFFFFFFFFFFFFFFFFFFFF AND PUSH2 0x894 DUP5 DUP4 PUSH2 0x8B5 SWAP1 SWAP2 SWAP1 PUSH4 0xFFFFFFFF AND JUMP JUMPDEST PUSH20 0xFFFFFFFFFFFFFFFFFFFFFFFFFFFFFFFFFFFFFFFF AND EQ SWAP2 POP POP SWAP4 SWAP3 POP POP POP JUMP JUMPDEST PUSH0 DUP1 PUSH0 DUP1 PUSH2 0x8C3 DUP7 DUP7 PUSH2 0x8DF JUMP JUMPDEST SWAP3 POP SWAP3 POP SWAP3 POP PUSH2 0x8D3 DUP3 DUP3 PUSH2 0x934 JUMP JUMPDEST DUP3 SWAP4 POP POP POP POP SWAP3 SWAP2 POP POP JUMP JUMPDEST PUSH0 DUP1 PUSH0 PUSH1 0x41 DUP5 MLOAD SUB PUSH2 0x91F JUMPI PUSH0 DUP1 PUSH0 PUSH1 0x20 DUP8 ADD MLOAD SWAP3 POP PUSH1 0x40 DUP8 ADD MLOAD SWAP2 POP PUSH1 0x60 DUP8 ADD MLOAD PUSH0 BYTE SWAP1 POP PUSH2 0x911 DUP9 DUP3 DUP6 DUP6 PUSH2 0xA96 JUMP JUMPDEST SWAP6 POP SWAP6 POP SWAP6 POP POP POP POP PUSH2 0x92D JUMP JUMPDEST PUSH0 PUSH1 0x2 DUP6 MLOAD PUSH0 SHL SWAP3 POP SWAP3 POP SWAP3 POP JUMPDEST SWAP3 POP SWAP3 POP SWAP3 JUMP JUMPDEST PUSH0 PUSH1 0x3 DUP2 GT ISZERO PUSH2 0x947 JUMPI PUSH2 0x946 PUSH2 0x12C3 JUMP JUMPDEST JUMPDEST DUP3 PUSH1 0x3 DUP2 GT ISZERO PUSH2 0x95A JUMPI PUSH2 0x959 PUSH2 0x12C3 JUMP JUMPDEST JUMPDEST SUB ISZERO PUSH2 0xA92 JUMPI PUSH1 0x1 PUSH1 0x3 DUP2 GT ISZERO PUSH2 0x974 JUMPI PUSH2 0x973 PUSH2 0x12C3 JUMP JUMPDEST JUMPDEST DUP3 PUSH1 0x3 DUP2 GT ISZERO PUSH2 0x987 JUMPI PUSH2 0x986 PUSH2 0x12C3 JUMP JUMPDEST JUMPDEST SUB PUSH2 0x9BE JUMPI PUSH1 0x40 MLOAD PUSH32 0xF645EEDF00000000000000000000000000000000000000000000000000000000 DUP2 MSTORE PUSH1 0x4 ADD PUSH1 0x40 MLOAD DUP1 SWAP2 SUB SWAP1 REVERT JUMPDEST PUSH1 0x2 PUSH1 0x3 DUP2 GT ISZERO PUSH2 0x9D2 JUMPI PUSH2 0x9D1 PUSH2 0x12C3 JUMP JUMPDEST JUMPDEST DUP3 PUSH1 0x3 DUP2 GT ISZERO PUSH2 0x9E5 JUMPI PUSH2 0x9E4 PUSH2 0x12C3 JUMP JUMPDEST JUMPDEST SUB PUSH2 0xA29 JUMPI DUP1 PUSH0 SHR PUSH1 0x40 MLOAD PUSH32 0xFCE698F700000000000000000000000000000000000000000000000000000000 DUP2 MSTORE PUSH1 0x4 ADD PUSH2 0xA20 SWAP2 SWAP1 PUSH2 0x1308 JUMP JUMPDEST PUSH1 0x40 MLOAD DUP1 SWAP2 SUB SWAP1 REVERT JUMPDEST PUSH1 0x3 DUP1 DUP2 GT ISZERO PUSH2 0xA3C JUMPI PUSH2 0xA3B PUSH2 0x12C3 JUMP JUMPDEST JUMPDEST DUP3 PUSH1 0x3 DUP2 GT ISZERO PUSH2 0xA4F JUMPI PUSH2 0xA4E PUSH2 0x12C3 JUMP JUMPDEST JUMPDEST SUB PUSH2 0xA91 JUMPI DUP1 PUSH1 0x40 MLOAD PUSH32 0xD78BCE0C00000000000000000000000000000000000000000000000000000000 DUP2 MSTORE PUSH1 0x4 ADD PUSH2 0xA88 SWAP2 SWAP1 PUSH2 0x1211 JUMP JUMPDEST PUSH1 0x40 MLOAD DUP1 SWAP2 SUB SWAP1 REVERT JUMPDEST JUMPDEST POP POP JUMP JUMPDEST PUSH0 DUP1 PUSH0 PUSH32 0x7FFFFFFFFFFFFFFFFFFFFFFFFFFFFFFF5D576E7357A4501DDFE92F46681B20A0 DUP5 PUSH0 SHR GT ISZERO PUSH2 0xAD2 JUMPI PUSH0 PUSH1 0x3 DUP6 SWAP3 POP SWAP3 POP SWAP3 POP PUSH2 0xB73 JUMP JUMPDEST PUSH0 PUSH1 0x1 DUP9 DUP9 DUP9 DUP9 PUSH1 0x40 MLOAD PUSH0 DUP2 MSTORE PUSH1 0x20 ADD PUSH1 0x40 MSTORE PUSH1 0x40 MLOAD PUSH2 0xAF5 SWAP5 SWAP4 SWAP3 SWAP2 SWAP1 PUSH2 0x133C JUMP JUMPDEST PUSH1 0x20 PUSH1 0x40 MLOAD PUSH1 0x20 DUP2 SUB SWAP1 DUP1 DUP5 SUB SWAP1 DUP6 GAS STATICCALL ISZERO DUP1 ISZERO PUSH2 0xB15 JUMPI RETURNDATASIZE PUSH0 DUP1 RETURNDATACOPY RETURNDATASIZE PUSH0 REVERT JUMPDEST POP POP POP PUSH1 0x20 PUSH1 0x40 MLOAD SUB MLOAD SWAP1 POP PUSH0 PUSH20 0xFFFFFFFFFFFFFFFFFFFFFFFFFFFFFFFFFFFFFFFF AND DUP2 PUSH20 0xFFFFFFFFFFFFFFFFFFFFFFFFFFFFFFFFFFFFFFFF AND SUB PUSH2 0xB66 JUMPI PUSH0 PUSH1 0x1 PUSH0 DUP1 SHL SWAP4 POP SWAP4 POP SWAP4 POP POP PUSH2 0xB73 JUMP JUMPDEST DUP1 PUSH0 DUP1 PUSH0 SHL SWAP4 POP SWAP4 POP SWAP4 POP POP JUMPDEST SWAP5 POP SWAP5 POP SWAP5 SWAP2 POP POP JUMP JUMPDEST PUSH0 PUSH1 0x40 MLOAD SWAP1 POP SWAP1 JUMP JUMPDEST PUSH0 DUP1 REVERT JUMPDEST PUSH0 DUP1 REVERT JUMPDEST PUSH0 PUSH20 0xFFFFFFFFFFFFFFFFFFFFFFFFFFFFFFFFFFFFFFFF DUP3 AND SWAP1 POP SWAP2 SWAP1 POP JUMP JUMPDEST PUSH0 PUSH2 0xBB7 DUP3 PUSH2 0xB8E JUMP JUMPDEST SWAP1 POP SWAP2 SWAP1 POP JUMP JUMPDEST PUSH2 0xBC7 DUP2 PUSH2 0xBAD JUMP JUMPDEST DUP2 EQ PUSH2 0xBD1 JUMPI PUSH0 DUP1 REVERT JUMPDEST POP JUMP JUMPDEST PUSH0 DUP2 CALLDATALOAD SWAP1 POP PUSH2 0xBE2 DUP2 PUSH2 0xBBE JUMP JUMPDEST SWAP3 SWAP2 POP POP JUMP JUMPDEST PUSH0 PUSH1 0x20 DUP3 DUP5 SUB SLT ISZERO PUSH2 0xBFD JUMPI PUSH2 0xBFC PUSH2 0xB86 JUMP JUMPDEST JUMPDEST PUSH0 PUSH2 0xC0A DUP5 DUP3 DUP6 ADD PUSH2 0xBD4 JUMP JUMPDEST SWAP2 POP POP SWAP3 SWAP2 POP POP JUMP JUMPDEST PUSH0 DUP2 MLOAD SWAP1 POP SWAP2 SWAP1 POP JUMP JUMPDEST PUSH0 DUP3 DUP3 MSTORE PUSH1 0x20 DUP3 ADD SWAP1 POP SWAP3 SWAP2 POP POP JUMP JUMPDEST PUSH0 DUP2 SWAP1 POP PUSH1 0x20 DUP3 ADD SWAP1 POP SWAP2 SWAP1 POP JUMP JUMPDEST PUSH0 DUP2 SWAP1 POP SWAP2 SWAP1 POP JUMP JUMPDEST PUSH2 0xC4E DUP2 PUSH2 0xC3C JUMP JUMPDEST DUP3 MSTORE POP POP JUMP JUMPDEST PUSH0 PUSH2 0xC5F DUP4 DUP4 PUSH2 0xC45 JUMP JUMPDEST PUSH1 0x20 DUP4 ADD SWAP1 POP SWAP3 SWAP2 POP POP JUMP JUMPDEST PUSH0 PUSH1 0x20 DUP3 ADD SWAP1 POP SWAP2 SWAP1 POP JUMP JUMPDEST PUSH0 PUSH2 0xC81 DUP3 PUSH2 0xC13 JUMP JUMPDEST PUSH2 0xC8B DUP2 DUP6 PUSH2 0xC1D JUMP JUMPDEST SWAP4 POP PUSH2 0xC96 DUP4 PUSH2 0xC2D JUMP JUMPDEST DUP1 PUSH0 JUMPDEST DUP4 DUP2 LT ISZERO PUSH2 0xCC6 JUMPI DUP2 MLOAD PUSH2 0xCAD DUP9 DUP3 PUSH2 0xC54 JUMP JUMPDEST SWAP8 POP PUSH2 0xCB8 DUP4 PUSH2 0xC6B JUMP JUMPDEST SWAP3 POP POP PUSH1 0x1 DUP2 ADD SWAP1 POP PUSH2 0xC99 JUMP JUMPDEST POP DUP6 SWAP4 POP POP POP POP SWAP3 SWAP2 POP POP JUMP JUMPDEST PUSH0 PUSH1 0x20 DUP3 ADD SWAP1 POP DUP2 DUP2 SUB PUSH0 DUP4 ADD MSTORE PUSH2 0xCEB DUP2 DUP5 PUSH2 0xC77 JUMP JUMPDEST SWAP1 POP SWAP3 SWAP2 POP POP JUMP JUMPDEST PUSH0 DUP2 ISZERO ISZERO SWAP1 POP SWAP2 SWAP1 POP JUMP JUMPDEST PUSH2 0xD07 DUP2 PUSH2 0xCF3 JUMP JUMPDEST DUP3 MSTORE POP POP JUMP JUMPDEST PUSH0 PUSH1 0x20 DUP3 ADD SWAP1 POP PUSH2 0xD20 PUSH0 DUP4 ADD DUP5 PUSH2 0xCFE JUMP JUMPDEST SWAP3 SWAP2 POP POP JUMP JUMPDEST PUSH0 DUP1 REVERT JUMPDEST PUSH0 DUP1 REVERT JUMPDEST PUSH0 PUSH1 0x1F NOT PUSH1 0x1F DUP4 ADD AND SWAP1 POP SWAP2 SWAP1 POP JUMP JUMPDEST PUSH32 0x4E487B7100000000000000000000000000000000000000000000000000000000 PUSH0 MSTORE PUSH1 0x41 PUSH1 0x4 MSTORE PUSH1 0x24 PUSH0 REVERT JUMPDEST PUSH2 0xD74 DUP3 PUSH2 0xD2E JUMP JUMPDEST DUP2 ADD DUP2 DUP2 LT PUSH8 0xFFFFFFFFFFFFFFFF DUP3 GT OR ISZERO PUSH2 0xD93 JUMPI PUSH2 0xD92 PUSH2 0xD3E JUMP JUMPDEST JUMPDEST DUP1 PUSH1 0x40 MSTORE POP POP POP JUMP JUMPDEST PUSH0 PUSH2 0xDA5 PUSH2 0xB7D JUMP JUMPDEST SWAP1 POP PUSH2 0xDB1 DUP3 DUP3 PUSH2 0xD6B JUMP JUMPDEST SWAP2 SWAP1 POP JUMP JUMPDEST PUSH0 PUSH8 0xFFFFFFFFFFFFFFFF DUP3 GT ISZERO PUSH2 0xDD0 JUMPI PUSH2 0xDCF PUSH2 0xD3E JUMP JUMPDEST JUMPDEST PUSH2 0xDD9 DUP3 PUSH2 0xD2E JUMP JUMPDEST SWAP1 POP PUSH1 0x20 DUP2 ADD SWAP1 POP SWAP2 SWAP1 POP JUMP JUMPDEST DUP3 DUP2 DUP4 CALLDATACOPY PUSH0 DUP4 DUP4 ADD MSTORE POP POP POP JUMP JUMPDEST PUSH0 PUSH2 0xE06 PUSH2 0xE01 DUP5 PUSH2 0xDB6 JUMP JUMPDEST PUSH2 0xD9C JUMP JUMPDEST SWAP1 POP DUP3 DUP2 MSTORE PUSH1 0x20 DUP2 ADD DUP5 DUP5 DUP5 ADD GT ISZERO PUSH2 0xE22 JUMPI PUSH2 0xE21 PUSH2 0xD2A JUMP JUMPDEST JUMPDEST PUSH2 0xE2D DUP5 DUP3 DUP6 PUSH2 0xDE6 JUMP JUMPDEST POP SWAP4 SWAP3 POP POP POP JUMP JUMPDEST PUSH0 DUP3 PUSH1 0x1F DUP4 ADD SLT PUSH2 0xE49 JUMPI PUSH2 0xE48 PUSH2 0xD26 JUMP JUMPDEST JUMPDEST DUP2 CALLDATALOAD PUSH2 0xE59 DUP5 DUP3 PUSH1 0x20 DUP7 ADD PUSH2 0xDF4 JUMP JUMPDEST SWAP2 POP POP SWAP3 SWAP2 POP POP JUMP JUMPDEST PUSH0 DUP1 PUSH1 0x40 DUP4 DUP6 SUB SLT ISZERO PUSH2 0xE78 JUMPI PUSH2 0xE77 PUSH2 0xB86 JUMP JUMPDEST JUMPDEST PUSH0 PUSH2 0xE85 DUP6 DUP3 DUP7 ADD PUSH2 0xBD4 JUMP JUMPDEST SWAP3 POP POP PUSH1 0x20 DUP4 ADD CALLDATALOAD PUSH8 0xFFFFFFFFFFFFFFFF DUP2 GT ISZERO PUSH2 0xEA6 JUMPI PUSH2 0xEA5 PUSH2 0xB8A JUMP JUMPDEST JUMPDEST PUSH2 0xEB2 DUP6 DUP3 DUP7 ADD PUSH2 0xE35 JUMP JUMPDEST SWAP2 POP POP SWAP3 POP SWAP3 SWAP1 POP JUMP JUMPDEST PUSH2 0xEC5 DUP2 PUSH2 0xC3C JUMP JUMPDEST DUP2 EQ PUSH2 0xECF JUMPI PUSH0 DUP1 REVERT JUMPDEST POP JUMP JUMPDEST PUSH0 DUP2 CALLDATALOAD SWAP1 POP PUSH2 0xEE0 DUP2 PUSH2 0xEBC JUMP JUMPDEST SWAP3 SWAP2 POP POP JUMP JUMPDEST PUSH0 DUP1 PUSH0 PUSH1 0x60 DUP5 DUP7 SUB SLT ISZERO PUSH2 0xEFD JUMPI PUSH2 0xEFC PUSH2 0xB86 JUMP JUMPDEST JUMPDEST PUSH0 PUSH2 0xF0A DUP7 DUP3 DUP8 ADD PUSH2 0xBD4 JUMP JUMPDEST SWAP4 POP POP PUSH1 0x20 PUSH2 0xF1B DUP7 DUP3 DUP8 ADD PUSH2 0xED2 JUMP JUMPDEST SWAP3 POP POP PUSH1 0x40 DUP5 ADD CALLDATALOAD PUSH8 0xFFFFFFFFFFFFFFFF DUP2 GT ISZERO PUSH2 0xF3C JUMPI PUSH2 0xF3B PUSH2 0xB8A JUMP JUMPDEST JUMPDEST PUSH2 0xF48 DUP7 DUP3 DUP8 ADD PUSH2 0xE35 JUMP JUMPDEST SWAP2 POP POP SWAP3 POP SWAP3 POP SWAP3 JUMP JUMPDEST PUSH2 0xF5B DUP2 PUSH2 0xBAD JUMP JUMPDEST DUP3 MSTORE POP POP JUMP JUMPDEST PUSH0 PUSH1 0x20 DUP3 ADD SWAP1 POP PUSH2 0xF74 PUSH0 DUP4 ADD DUP5 PUSH2 0xF52 JUMP JUMPDEST SWAP3 SWAP2 POP POP JUMP JUMPDEST PUSH0 DUP3 DUP3 MSTORE PUSH1 0x20 DUP3 ADD SWAP1 POP SWAP3 SWAP2 POP POP JUMP JUMPDEST PUSH32 0x4E6F2076616363696E6174696F6E207265636F72647320666F756E6400000000 PUSH0 DUP3 ADD MSTORE POP JUMP JUMPDEST PUSH0 PUSH2 0xFBE PUSH1 0x1C DUP4 PUSH2 0xF7A JUMP JUMPDEST SWAP2 POP PUSH2 0xFC9 DUP3 PUSH2 0xF8A JUMP JUMPDEST PUSH1 0x20 DUP3 ADD SWAP1 POP SWAP2 SWAP1 POP JUMP JUMPDEST PUSH0 PUSH1 0x20 DUP3 ADD SWAP1 POP DUP2 DUP2 SUB PUSH0 DUP4 ADD MSTORE PUSH2 0xFEB DUP2 PUSH2 0xFB2 JUMP JUMPDEST SWAP1 POP SWAP2 SWAP1 POP JUMP JUMPDEST PUSH32 0x4E487B7100000000000000000000000000000000000000000000000000000000 PUSH0 MSTORE PUSH1 0x32 PUSH1 0x4 MSTORE PUSH1 0x24 PUSH0 REVERT JUMPDEST PUSH32 0x4F6E6C792061646D696E2063616E20617574686F72697A652070726F76696465 PUSH0 DUP3 ADD MSTORE PUSH32 0x7273000000000000000000000000000000000000000000000000000000000000 PUSH1 0x20 DUP3 ADD MSTORE POP JUMP JUMPDEST PUSH0 PUSH2 0x1079 PUSH1 0x22 DUP4 PUSH2 0xF7A JUMP JUMPDEST SWAP2 POP PUSH2 0x1084 DUP3 PUSH2 0x101F JUMP JUMPDEST PUSH1 0x40 DUP3 ADD SWAP1 POP SWAP2 SWAP1 POP JUMP JUMPDEST PUSH0 PUSH1 0x20 DUP3 ADD SWAP1 POP DUP2 DUP2 SUB PUSH0 DUP4 ADD MSTORE PUSH2 0x10A6 DUP2 PUSH2 0x106D JUMP JUMPDEST SWAP1 POP SWAP2 SWAP1 POP JUMP JUMPDEST PUSH0 DUP2 PUSH1 0x60 SHL SWAP1 POP SWAP2 SWAP1 POP JUMP JUMPDEST PUSH0 PUSH2 0x10C3 DUP3 PUSH2 0x10AD JUMP JUMPDEST SWAP1 POP SWAP2 SWAP1 POP JUMP JUMPDEST PUSH0 PUSH2 0x10D4 DUP3 PUSH2 0x10B9 JUMP JUMPDEST SWAP1 POP SWAP2 SWAP1 POP JUMP JUMPDEST PUSH2 0x10EC PUSH2 0x10E7 DUP3 PUSH2 0xBAD JUMP JUMPDEST PUSH2 0x10CA JUMP JUMPDEST DUP3 MSTORE POP POP JUMP JUMPDEST PUSH0 PUSH2 0x10FD DUP3 DUP5 PUSH2 0x10DB JUMP JUMPDEST PUSH1 0x14 DUP3 ADD SWAP2 POP DUP2 SWAP1 POP SWAP3 SWAP2 POP POP JUMP JUMPDEST PUSH32 0x496E76616C6964207369676E6174757265000000000000000000000000000000 PUSH0 DUP3 ADD MSTORE POP JUMP JUMPDEST PUSH0 PUSH2 0x1140 PUSH1 0x11 DUP4 PUSH2 0xF7A JUMP JUMPDEST SWAP2 POP PUSH2 0x114B DUP3 PUSH2 0x110C JUMP JUMPDEST PUSH1 0x20 DUP3 ADD SWAP1 POP SWAP2 SWAP1 POP JUMP JUMPDEST PUSH0 PUSH1 0x20 DUP3 ADD SWAP1 POP DUP2 DUP2 SUB PUSH0 DUP4 ADD MSTORE PUSH2 0x116D DUP2 PUSH2 0x1134 JUMP JUMPDEST SWAP1 POP SWAP2 SWAP1 POP JUMP JUMPDEST PUSH32 0x4E6F7420616E20617574686F72697A6564206865616C7468636172652070726F PUSH0 DUP3 ADD MSTORE PUSH32 0x7669646572000000000000000000000000000000000000000000000000000000 PUSH1 0x20 DUP3 ADD MSTORE POP JUMP JUMPDEST PUSH0 PUSH2 0x11CE PUSH1 0x25 DUP4 PUSH2 0xF7A JUMP JUMPDEST SWAP2 POP PUSH2 0x11D9 DUP3 PUSH2 0x1174 JUMP JUMPDEST PUSH1 0x40 DUP3 ADD SWAP1 POP SWAP2 SWAP1 POP JUMP JUMPDEST PUSH0 PUSH1 0x20 DUP3 ADD SWAP1 POP DUP2 DUP2 SUB PUSH0 DUP4 ADD MSTORE PUSH2 0x11FB DUP2 PUSH2 0x11C2 JUMP JUMPDEST SWAP1 POP SWAP2 SWAP1 POP JUMP JUMPDEST PUSH2 0x120B DUP2 PUSH2 0xC3C JUMP JUMPDEST DUP3 MSTORE POP POP JUMP JUMPDEST PUSH0 PUSH1 0x20 DUP3 ADD SWAP1 POP PUSH2 0x1224 PUSH0 DUP4 ADD DUP5 PUSH2 0x1202 JUMP JUMPDEST SWAP3 SWAP2 POP POP JUMP JUMPDEST PUSH0 DUP2 SWAP1 POP SWAP3 SWAP2 POP POP JUMP JUMPDEST PUSH32 0x19457468657265756D205369676E6564204D6573736167653A0A333200000000 PUSH0 DUP3 ADD MSTORE POP JUMP JUMPDEST PUSH0 PUSH2 0x1268 PUSH1 0x1C DUP4 PUSH2 0x122A JUMP JUMPDEST SWAP2 POP PUSH2 0x1273 DUP3 PUSH2 0x1234 JUMP JUMPDEST PUSH1 0x1C DUP3 ADD SWAP1 POP SWAP2 SWAP1 POP JUMP JUMPDEST PUSH0 DUP2 SWAP1 POP SWAP2 SWAP1 POP JUMP JUMPDEST PUSH2 0x1298 PUSH2 0x1293 DUP3 PUSH2 0xC3C JUMP JUMPDEST PUSH2 0x127E JUMP JUMPDEST DUP3 MSTORE POP POP JUMP JUMPDEST PUSH0 PUSH2 0x12A8 DUP3 PUSH2 0x125C JUMP JUMPDEST SWAP2 POP PUSH2 0x12B4 DUP3 DUP5 PUSH2 0x1287 JUMP JUMPDEST PUSH1 0x20 DUP3 ADD SWAP2 POP DUP2 SWAP1 POP SWAP3 SWAP2 POP POP JUMP JUMPDEST PUSH32 0x4E487B7100000000000000000000000000000000000000000000000000000000 PUSH0 MSTORE PUSH1 0x21 PUSH1 0x4 MSTORE PUSH1 0x24 PUSH0 REVERT JUMPDEST PUSH0 DUP2 SWAP1 POP SWAP2 SWAP1 POP JUMP JUMPDEST PUSH2 0x1302 DUP2 PUSH2 0x12F0 JUMP JUMPDEST DUP3 MSTORE POP POP JUMP JUMPDEST PUSH0 PUSH1 0x20 DUP3 ADD SWAP1 POP PUSH2 0x131B PUSH0 DUP4 ADD DUP5 PUSH2 0x12F9 JUMP JUMPDEST SWAP3 SWAP2 POP POP JUMP JUMPDEST PUSH0 PUSH1 0xFF DUP3 AND SWAP1 POP SWAP2 SWAP1 POP JUMP JUMPDEST PUSH2 0x1336 DUP2 PUSH2 0x1321 JUMP JUMPDEST DUP3 MSTORE POP POP JUMP JUMPDEST PUSH0 PUSH1 0x80 DUP3 ADD SWAP1 POP PUSH2 0x134F PUSH0 DUP4 ADD DUP8 PUSH2 0x1202 JUMP JUMPDEST PUSH2 0x135C PUSH1 0x20 DUP4 ADD DUP7 PUSH2 0x132D JUMP JUMPDEST PUSH2 0x1369 PUSH1 0x40 DUP4 ADD DUP6 PUSH2 0x1202 JUMP JUMPDEST PUSH2 0x1376 PUSH1 0x60 DUP4 ADD DUP5 PUSH2 0x1202 JUMP JUMPDEST SWAP6 SWAP5 POP POP POP POP POP JUMP INVALID LOG2 PUSH5 0x6970667358 0x22 SLT KECCAK256 CALLDATACOPY 0xDD MLOAD 0xEE BLOBBASEFEE DUP12 SUB PUSH13 0xF8CBB10FFAF4EFEFBEE7663B19 SWAP10 MLOAD 0xB6 PUSH15 0x9A315D0E5C5DA764736F6C63430008 BYTE STOP CALLER "
				},
				"gasEstimates": {
					"creation": {
						"codeDepositCost": "1009000",
						"executionCost": "25310",
						"totalCost": "1034310"
					},
					"external": {
						"authorizeHealthcareProvider(address)": "28175",
						"authorizedHealthcareProviders(address)": "2877",
						"authorizedResearchers(address)": "2856",
						"deployer()": "2571",
						"getHashes(address)": "infinite",
						"grantAccess(address,bytes)": "infinite",
						"isResearcherAuthorized(address)": "2892",
						"storeHash(address,bytes32,bytes)": "infinite"
					},
					"internal": {
						"verifySignature(address,bytes32,bytes memory)": "infinite"
					}
				},
				"methodIdentifiers": {
					"authorizeHealthcareProvider(address)": "39a54102",
					"authorizedHealthcareProviders(address)": "71062f6a",
					"authorizedResearchers(address)": "319aafc5",
					"deployer()": "d5f39488",
					"getHashes(address)": "193dd2ea",
					"grantAccess(address,bytes)": "484a861b",
					"isResearcherAuthorized(address)": "5d2a4069",
					"storeHash(address,bytes32,bytes)": "4c249f41"
				}
			},
			"storageLayout": {
				"storage": [
					{
						"astId": 360,
						"contract": "contracts/HBVTracker.sol:HBVTracker",
						"label": "deployer",
						"offset": 0,
						"slot": "0",
						"type": "t_address"
					},
					{
						"astId": 366,
						"contract": "contracts/HBVTracker.sol:HBVTracker",
						"label": "vaccinationRecords",
						"offset": 0,
						"slot": "1",
						"type": "t_mapping(t_address,t_array(t_struct(VaccinationRecord)358_storage)dyn_storage)"
					},
					{
						"astId": 370,
						"contract": "contracts/HBVTracker.sol:HBVTracker",
						"label": "authorizedHealthcareProviders",
						"offset": 0,
						"slot": "2",
						"type": "t_mapping(t_address,t_bool)"
					},
					{
						"astId": 374,
						"contract": "contracts/HBVTracker.sol:HBVTracker",
						"label": "authorizedResearchers",
						"offset": 0,
						"slot": "3",
						"type": "t_mapping(t_address,t_bool)"
					}
				],
				"types": {
					"t_address": {
						"encoding": "inplace",
						"label": "address",
						"numberOfBytes": "20"
					},
					"t_array(t_struct(VaccinationRecord)358_storage)dyn_storage": {
						"base": "t_struct(VaccinationRecord)358_storage",
						"encoding": "dynamic_array",
						"label": "struct HBVTracker.VaccinationRecord[]",
						"numberOfBytes": "32"
					},
					"t_bool": {
						"encoding": "inplace",
						"label": "bool",
						"numberOfBytes": "1"
					},
					"t_bytes32": {
						"encoding": "inplace",
						"label": "bytes32",
						"numberOfBytes": "32"
					},
					"t_mapping(t_address,t_array(t_struct(VaccinationRecord)358_storage)dyn_storage)": {
						"encoding": "mapping",
						"key": "t_address",
						"label": "mapping(address => struct HBVTracker.VaccinationRecord[])",
						"numberOfBytes": "32",
						"value": "t_array(t_struct(VaccinationRecord)358_storage)dyn_storage"
					},
					"t_mapping(t_address,t_bool)": {
						"encoding": "mapping",
						"key": "t_address",
						"label": "mapping(address => bool)",
						"numberOfBytes": "32",
						"value": "t_bool"
					},
					"t_struct(VaccinationRecord)358_storage": {
						"encoding": "inplace",
						"label": "struct HBVTracker.VaccinationRecord",
						"members": [
							{
								"astId": 355,
								"contract": "contracts/HBVTracker.sol:HBVTracker",
								"label": "dataHash",
								"offset": 0,
								"slot": "0",
								"type": "t_bytes32"
							},
							{
								"astId": 357,
								"contract": "contracts/HBVTracker.sol:HBVTracker",
								"label": "timestamp",
								"offset": 0,
								"slot": "1",
								"type": "t_uint256"
							}
						],
						"numberOfBytes": "64"
					},
					"t_uint256": {
						"encoding": "inplace",
						"label": "uint256",
						"numberOfBytes": "32"
					}
				}
			},
			"userdoc": {
				"kind": "user",
				"methods": {},
				"version": 1
			}
		}
	}
}