{
	"contracts/HBVTracker.sol": {
		"HBVTracker": {
			"abi": [
				{
					"inputs": [],
					"name": "ECDSAInvalidSignature",
					"type": "error"
				},
				{
					"inputs": [
						{
							"internalType": "uint256",
							"name": "length",
							"type": "uint256"
						}
					],
					"name": "ECDSAInvalidSignatureLength",
					"type": "error"
				},
				{
					"inputs": [
						{
							"internalType": "bytes32",
							"name": "s",
							"type": "bytes32"
						}
					],
					"name": "ECDSAInvalidSignatureS",
					"type": "error"
				},
				{
					"anonymous": false,
					"inputs": [
						{
							"indexed": true,
							"internalType": "address",
							"name": "researcher",
							"type": "address"
						}
					],
					"name": "ResearcherAuthorized",
					"type": "event"
				},
				{
					"anonymous": false,
					"inputs": [
						{
							"indexed": true,
							"internalType": "address",
							"name": "patient",
							"type": "address"
						},
						{
							"indexed": false,
							"internalType": "bytes32",
							"name": "dataHash",
							"type": "bytes32"
						}
					],
					"name": "VaccinationStored",
					"type": "event"
				},
				{
					"anonymous": false,
					"inputs": [
						{
							"indexed": true,
							"internalType": "address",
							"name": "patient",
							"type": "address"
						},
						{
							"indexed": false,
							"internalType": "bytes32",
							"name": "newDataHash",
							"type": "bytes32"
						}
					],
					"name": "VaccinationUpdated",
					"type": "event"
				},
				{
					"inputs": [
						{
							"internalType": "address",
							"name": "",
							"type": "address"
						}
					],
					"name": "authorizedHealthcareProviders",
					"outputs": [
						{
							"internalType": "bool",
							"name": "",
							"type": "bool"
						}
					],
					"stateMutability": "view",
					"type": "function"
				},
				{
					"inputs": [
						{
							"internalType": "address",
							"name": "",
							"type": "address"
						}
					],
					"name": "authorizedResearchers",
					"outputs": [
						{
							"internalType": "bool",
							"name": "",
							"type": "bool"
						}
					],
					"stateMutability": "view",
					"type": "function"
				},
				{
					"inputs": [
						{
							"internalType": "address",
							"name": "user",
							"type": "address"
						}
					],
					"name": "getHash",
					"outputs": [
						{
							"internalType": "bytes32",
							"name": "",
							"type": "bytes32"
						}
					],
					"stateMutability": "view",
					"type": "function"
				},
				{
					"inputs": [
						{
							"internalType": "address",
							"name": "researcher",
							"type": "address"
						}
					],
					"name": "grantAccess",
					"outputs": [],
					"stateMutability": "nonpayable",
					"type": "function"
				},
				{
					"inputs": [
						{
							"internalType": "address",
							"name": "researcher",
							"type": "address"
						}
					],
					"name": "isResearcherAuthorized",
					"outputs": [
						{
							"internalType": "bool",
							"name": "",
							"type": "bool"
						}
					],
					"stateMutability": "view",
					"type": "function"
				},
				{
					"inputs": [
						{
							"internalType": "bytes32",
							"name": "dataHash",
							"type": "bytes32"
						},
						{
							"internalType": "bytes",
							"name": "signature",
							"type": "bytes"
						}
					],
					"name": "storeHash",
					"outputs": [],
					"stateMutability": "nonpayable",
					"type": "function"
				},
				{
					"inputs": [
						{
							"internalType": "address",
							"name": "patient",
							"type": "address"
						},
						{
							"internalType": "bytes32",
							"name": "newDataHash",
							"type": "bytes32"
						},
						{
							"internalType": "bytes",
							"name": "signature",
							"type": "bytes"
						}
					],
					"name": "updateRecord",
					"outputs": [],
					"stateMutability": "nonpayable",
					"type": "function"
				}
			],
			"devdoc": {
				"errors": {
					"ECDSAInvalidSignature()": [
						{
							"details": "The signature derives the `address(0)`."
						}
					],
					"ECDSAInvalidSignatureLength(uint256)": [
						{
							"details": "The signature has an invalid length."
						}
					],
					"ECDSAInvalidSignatureS(bytes32)": [
						{
							"details": "The signature has an S value that is in the upper half order."
						}
					]
				},
				"kind": "dev",
				"methods": {},
				"version": 1
			},
			"evm": {
				"assembly": "    /* \"contracts/HBVTracker.sol\":127:2822  contract HBVTracker {... */\n  mstore(0x40, 0x80)\n  callvalue\n  dup1\n  iszero\n  tag_1\n  jumpi\n  0x00\n  dup1\n  revert\ntag_1:\n  pop\n  dataSize(sub_0)\n  dup1\n  dataOffset(sub_0)\n  0x00\n  codecopy\n  0x00\n  return\nstop\n\nsub_0: assembly {\n        /* \"contracts/HBVTracker.sol\":127:2822  contract HBVTracker {... */\n      mstore(0x40, 0x80)\n      callvalue\n      dup1\n      iszero\n      tag_1\n      jumpi\n      0x00\n      dup1\n      revert\n    tag_1:\n      pop\n      jumpi(tag_2, lt(calldatasize, 0x04))\n      shr(0xe0, calldataload(0x00))\n      dup1\n      0x33dc55b4\n      gt\n      tag_10\n      jumpi\n      dup1\n      0x33dc55b4\n      eq\n      tag_6\n      jumpi\n      dup1\n      0x5d2a4069\n      eq\n      tag_7\n      jumpi\n      dup1\n      0x71062f6a\n      eq\n      tag_8\n      jumpi\n      dup1\n      0xc83f3a79\n      eq\n      tag_9\n      jumpi\n      jump(tag_2)\n    tag_10:\n      dup1\n      0x0ae5e739\n      eq\n      tag_3\n      jumpi\n      dup1\n      0x1da0b8fc\n      eq\n      tag_4\n      jumpi\n      dup1\n      0x319aafc5\n      eq\n      tag_5\n      jumpi\n    tag_2:\n      0x00\n      dup1\n      revert\n        /* \"contracts/HBVTracker.sol\":1421:1576  function grantAccess(address researcher) public {... */\n    tag_3:\n      tag_11\n      0x04\n      dup1\n      calldatasize\n      sub\n      dup2\n      add\n      swap1\n      tag_12\n      swap2\n      swap1\n      tag_13\n      jump\t// in\n    tag_12:\n      tag_14\n      jump\t// in\n    tag_11:\n      stop\n        /* \"contracts/HBVTracker.sol\":1144:1344  function getHash(address user) public view returns (bytes32) {... */\n    tag_4:\n      tag_15\n      0x04\n      dup1\n      calldatasize\n      sub\n      dup2\n      add\n      swap1\n      tag_16\n      swap2\n      swap1\n      tag_13\n      jump\t// in\n    tag_16:\n      tag_17\n      jump\t// in\n    tag_15:\n      mload(0x40)\n      tag_18\n      swap2\n      swap1\n      tag_19\n      jump\t// in\n    tag_18:\n      mload(0x40)\n      dup1\n      swap2\n      sub\n      swap1\n      return\n        /* \"contracts/HBVTracker.sol\":414:467  mapping(address => bool) public authorizedResearchers */\n    tag_5:\n      tag_20\n      0x04\n      dup1\n      calldatasize\n      sub\n      dup2\n      add\n      swap1\n      tag_21\n      swap2\n      swap1\n      tag_13\n      jump\t// in\n    tag_21:\n      tag_22\n      jump\t// in\n    tag_20:\n      mload(0x40)\n      tag_23\n      swap2\n      swap1\n      tag_24\n      jump\t// in\n    tag_23:\n      mload(0x40)\n      dup1\n      swap2\n      sub\n      swap1\n      return\n        /* \"contracts/HBVTracker.sol\":1857:2389  function updateRecord(... */\n    tag_6:\n      tag_25\n      0x04\n      dup1\n      calldatasize\n      sub\n      dup2\n      add\n      swap1\n      tag_26\n      swap2\n      swap1\n      tag_27\n      jump\t// in\n    tag_26:\n      tag_28\n      jump\t// in\n    tag_25:\n      stop\n        /* \"contracts/HBVTracker.sol\":1626:1764  function isResearcherAuthorized(address researcher) public view returns (bool) {... */\n    tag_7:\n      tag_29\n      0x04\n      dup1\n      calldatasize\n      sub\n      dup2\n      add\n      swap1\n      tag_30\n      swap2\n      swap1\n      tag_13\n      jump\t// in\n    tag_30:\n      tag_31\n      jump\t// in\n    tag_29:\n      mload(0x40)\n      tag_32\n      swap2\n      swap1\n      tag_24\n      jump\t// in\n    tag_32:\n      mload(0x40)\n      dup1\n      swap2\n      sub\n      swap1\n      return\n        /* \"contracts/HBVTracker.sol\":346:407  mapping(address => bool) public authorizedHealthcareProviders */\n    tag_8:\n      tag_33\n      0x04\n      dup1\n      calldatasize\n      sub\n      dup2\n      add\n      swap1\n      tag_34\n      swap2\n      swap1\n      tag_13\n      jump\t// in\n    tag_34:\n      tag_35\n      jump\t// in\n    tag_33:\n      mload(0x40)\n      tag_36\n      swap2\n      swap1\n      tag_24\n      jump\t// in\n    tag_36:\n      mload(0x40)\n      dup1\n      swap2\n      sub\n      swap1\n      return\n        /* \"contracts/HBVTracker.sol\":748:1083  function storeHash(bytes32 dataHash, bytes memory signature) public {... */\n    tag_9:\n      tag_37\n      0x04\n      dup1\n      calldatasize\n      sub\n      dup2\n      add\n      swap1\n      tag_38\n      swap2\n      swap1\n      tag_39\n      jump\t// in\n    tag_38:\n      tag_40\n      jump\t// in\n    tag_37:\n      stop\n        /* \"contracts/HBVTracker.sol\":1421:1576  function grantAccess(address researcher) public {... */\n    tag_14:\n        /* \"contracts/HBVTracker.sol\":1516:1520  true */\n      0x01\n        /* \"contracts/HBVTracker.sol\":1480:1501  authorizedResearchers */\n      0x02\n        /* \"contracts/HBVTracker.sol\":1480:1513  authorizedResearchers[researcher] */\n      0x00\n        /* \"contracts/HBVTracker.sol\":1502:1512  researcher */\n      dup4\n        /* \"contracts/HBVTracker.sol\":1480:1513  authorizedResearchers[researcher] */\n      0xffffffffffffffffffffffffffffffffffffffff\n      and\n      0xffffffffffffffffffffffffffffffffffffffff\n      and\n      dup2\n      mstore\n      0x20\n      add\n      swap1\n      dup2\n      mstore\n      0x20\n      add\n      0x00\n      keccak256\n      0x00\n        /* \"contracts/HBVTracker.sol\":1480:1520  authorizedResearchers[researcher] = true */\n      0x0100\n      exp\n      dup2\n      sload\n      dup2\n      0xff\n      mul\n      not\n      and\n      swap1\n      dup4\n      iszero\n      iszero\n      mul\n      or\n      swap1\n      sstore\n      pop\n        /* \"contracts/HBVTracker.sol\":1557:1567  researcher */\n      dup1\n        /* \"contracts/HBVTracker.sol\":1536:1568  ResearcherAuthorized(researcher) */\n      0xffffffffffffffffffffffffffffffffffffffff\n      and\n      0xc9e11c8d271053b41f88ce51c41d8a8905b38e440272e8670cf4e1798a840181\n      mload(0x40)\n      mload(0x40)\n      dup1\n      swap2\n      sub\n      swap1\n      log2\n        /* \"contracts/HBVTracker.sol\":1421:1576  function grantAccess(address researcher) public {... */\n      pop\n      jump\t// out\n        /* \"contracts/HBVTracker.sol\":1144:1344  function getHash(address user) public view returns (bytes32) {... */\n    tag_17:\n        /* \"contracts/HBVTracker.sol\":1196:1203  bytes32 */\n      0x00\n        /* \"contracts/HBVTracker.sol\":1224:1241  vaccinationHashes */\n      dup1\n        /* \"contracts/HBVTracker.sol\":1224:1247  vaccinationHashes[user] */\n      0x00\n        /* \"contracts/HBVTracker.sol\":1242:1246  user */\n      dup4\n        /* \"contracts/HBVTracker.sol\":1224:1247  vaccinationHashes[user] */\n      0xffffffffffffffffffffffffffffffffffffffff\n      and\n      0xffffffffffffffffffffffffffffffffffffffff\n      and\n      dup2\n      mstore\n      0x20\n      add\n      swap1\n      dup2\n      mstore\n      0x20\n      add\n      0x00\n      keccak256\n        /* \"contracts/HBVTracker.sol\":1224:1254  vaccinationHashes[user].exists */\n      0x01\n      add\n      0x00\n      swap1\n      sload\n      swap1\n      0x0100\n      exp\n      swap1\n      div\n      0xff\n      and\n        /* \"contracts/HBVTracker.sol\":1216:1286  require(vaccinationHashes[user].exists, \"No vaccination record found\") */\n      tag_43\n      jumpi\n      mload(0x40)\n      0x08c379a000000000000000000000000000000000000000000000000000000000\n      dup2\n      mstore\n      0x04\n      add\n      tag_44\n      swap1\n      tag_45\n      jump\t// in\n    tag_44:\n      mload(0x40)\n      dup1\n      swap2\n      sub\n      swap1\n      revert\n    tag_43:\n        /* \"contracts/HBVTracker.sol\":1304:1321  vaccinationHashes */\n      0x00\n        /* \"contracts/HBVTracker.sol\":1304:1327  vaccinationHashes[user] */\n      dup1\n        /* \"contracts/HBVTracker.sol\":1322:1326  user */\n      dup4\n        /* \"contracts/HBVTracker.sol\":1304:1327  vaccinationHashes[user] */\n      0xffffffffffffffffffffffffffffffffffffffff\n      and\n      0xffffffffffffffffffffffffffffffffffffffff\n      and\n      dup2\n      mstore\n      0x20\n      add\n      swap1\n      dup2\n      mstore\n      0x20\n      add\n      0x00\n      keccak256\n        /* \"contracts/HBVTracker.sol\":1304:1336  vaccinationHashes[user].dataHash */\n      0x00\n      add\n      sload\n        /* \"contracts/HBVTracker.sol\":1297:1336  return vaccinationHashes[user].dataHash */\n      swap1\n      pop\n        /* \"contracts/HBVTracker.sol\":1144:1344  function getHash(address user) public view returns (bytes32) {... */\n      swap2\n      swap1\n      pop\n      jump\t// out\n        /* \"contracts/HBVTracker.sol\":414:467  mapping(address => bool) public authorizedResearchers */\n    tag_22:\n      mstore(0x20, 0x02)\n      dup1\n      0x00\n      mstore\n      keccak256(0x00, 0x40)\n      0x00\n      swap2\n      pop\n      sload\n      swap1\n      0x0100\n      exp\n      swap1\n      div\n      0xff\n      and\n      dup2\n      jump\t// out\n        /* \"contracts/HBVTracker.sol\":1857:2389  function updateRecord(... */\n    tag_28:\n        /* \"contracts/HBVTracker.sol\":2015:2044  authorizedHealthcareProviders */\n      0x01\n        /* \"contracts/HBVTracker.sol\":2015:2056  authorizedHealthcareProviders[msg.sender] */\n      0x00\n        /* \"contracts/HBVTracker.sol\":2045:2055  msg.sender */\n      caller\n        /* \"contracts/HBVTracker.sol\":2015:2056  authorizedHealthcareProviders[msg.sender] */\n      0xffffffffffffffffffffffffffffffffffffffff\n      and\n      0xffffffffffffffffffffffffffffffffffffffff\n      and\n      dup2\n      mstore\n      0x20\n      add\n      swap1\n      dup2\n      mstore\n      0x20\n      add\n      0x00\n      keccak256\n      0x00\n      swap1\n      sload\n      swap1\n      0x0100\n      exp\n      swap1\n      div\n      0xff\n      and\n        /* \"contracts/HBVTracker.sol\":1993:2121  require(... */\n      tag_47\n      jumpi\n      mload(0x40)\n      0x08c379a000000000000000000000000000000000000000000000000000000000\n      dup2\n      mstore\n      0x04\n      add\n      tag_48\n      swap1\n      tag_49\n      jump\t// in\n    tag_48:\n      mload(0x40)\n      dup1\n      swap2\n      sub\n      swap1\n      revert\n    tag_47:\n        /* \"contracts/HBVTracker.sol\":2154:2202  verifySignature(patient, newDataHash, signature) */\n      tag_50\n        /* \"contracts/HBVTracker.sol\":2170:2177  patient */\n      dup4\n        /* \"contracts/HBVTracker.sol\":2179:2190  newDataHash */\n      dup4\n        /* \"contracts/HBVTracker.sol\":2192:2201  signature */\n      dup4\n        /* \"contracts/HBVTracker.sol\":2154:2169  verifySignature */\n      tag_51\n        /* \"contracts/HBVTracker.sol\":2154:2202  verifySignature(patient, newDataHash, signature) */\n      jump\t// in\n    tag_50:\n        /* \"contracts/HBVTracker.sol\":2132:2247  require(... */\n      tag_52\n      jumpi\n      mload(0x40)\n      0x08c379a000000000000000000000000000000000000000000000000000000000\n      dup2\n      mstore\n      0x04\n      add\n      tag_53\n      swap1\n      tag_54\n      jump\t// in\n    tag_53:\n      mload(0x40)\n      dup1\n      swap2\n      sub\n      swap1\n      revert\n    tag_52:\n        /* \"contracts/HBVTracker.sol\":2289:2325  VaccinationRecord(newDataHash, true) */\n      mload(0x40)\n      dup1\n      0x40\n      add\n      0x40\n      mstore\n      dup1\n        /* \"contracts/HBVTracker.sol\":2307:2318  newDataHash */\n      dup4\n        /* \"contracts/HBVTracker.sol\":2289:2325  VaccinationRecord(newDataHash, true) */\n      dup2\n      mstore\n      0x20\n      add\n        /* \"contracts/HBVTracker.sol\":2320:2324  true */\n      0x01\n        /* \"contracts/HBVTracker.sol\":2289:2325  VaccinationRecord(newDataHash, true) */\n      iszero\n      iszero\n      dup2\n      mstore\n      pop\n        /* \"contracts/HBVTracker.sol\":2260:2277  vaccinationHashes */\n      0x00\n        /* \"contracts/HBVTracker.sol\":2260:2286  vaccinationHashes[patient] */\n      dup1\n        /* \"contracts/HBVTracker.sol\":2278:2285  patient */\n      dup6\n        /* \"contracts/HBVTracker.sol\":2260:2286  vaccinationHashes[patient] */\n      0xffffffffffffffffffffffffffffffffffffffff\n      and\n      0xffffffffffffffffffffffffffffffffffffffff\n      and\n      dup2\n      mstore\n      0x20\n      add\n      swap1\n      dup2\n      mstore\n      0x20\n      add\n      0x00\n      keccak256\n        /* \"contracts/HBVTracker.sol\":2260:2325  vaccinationHashes[patient] = VaccinationRecord(newDataHash, true) */\n      0x00\n      dup3\n      add\n      mload\n      dup2\n      0x00\n      add\n      sstore\n      0x20\n      dup3\n      add\n      mload\n      dup2\n      0x01\n      add\n      exp(0x0100, 0x00)\n      dup2\n      sload\n      dup2\n      0xff\n      mul\n      not\n      and\n      swap1\n      dup4\n      iszero\n      iszero\n      mul\n      or\n      swap1\n      sstore\n      pop\n      swap1\n      pop\n      pop\n        /* \"contracts/HBVTracker.sol\":2360:2367  patient */\n      dup3\n        /* \"contracts/HBVTracker.sol\":2341:2381  VaccinationUpdated(patient, newDataHash) */\n      0xffffffffffffffffffffffffffffffffffffffff\n      and\n      0x5f12b1b5d312005e87002673b7cba6a0260a3833860faf10a82ac9e5eb27ecbe\n        /* \"contracts/HBVTracker.sol\":2369:2380  newDataHash */\n      dup4\n        /* \"contracts/HBVTracker.sol\":2341:2381  VaccinationUpdated(patient, newDataHash) */\n      mload(0x40)\n      tag_55\n      swap2\n      swap1\n      tag_19\n      jump\t// in\n    tag_55:\n      mload(0x40)\n      dup1\n      swap2\n      sub\n      swap1\n      log2\n        /* \"contracts/HBVTracker.sol\":1857:2389  function updateRecord(... */\n      pop\n      pop\n      pop\n      jump\t// out\n        /* \"contracts/HBVTracker.sol\":1626:1764  function isResearcherAuthorized(address researcher) public view returns (bool) {... */\n    tag_31:\n        /* \"contracts/HBVTracker.sol\":1699:1703  bool */\n      0x00\n        /* \"contracts/HBVTracker.sol\":1723:1744  authorizedResearchers */\n      0x02\n        /* \"contracts/HBVTracker.sol\":1723:1756  authorizedResearchers[researcher] */\n      0x00\n        /* \"contracts/HBVTracker.sol\":1745:1755  researcher */\n      dup4\n        /* \"contracts/HBVTracker.sol\":1723:1756  authorizedResearchers[researcher] */\n      0xffffffffffffffffffffffffffffffffffffffff\n      and\n      0xffffffffffffffffffffffffffffffffffffffff\n      and\n      dup2\n      mstore\n      0x20\n      add\n      swap1\n      dup2\n      mstore\n      0x20\n      add\n      0x00\n      keccak256\n      0x00\n      swap1\n      sload\n      swap1\n      0x0100\n      exp\n      swap1\n      div\n      0xff\n      and\n        /* \"contracts/HBVTracker.sol\":1716:1756  return authorizedResearchers[researcher] */\n      swap1\n      pop\n        /* \"contracts/HBVTracker.sol\":1626:1764  function isResearcherAuthorized(address researcher) public view returns (bool) {... */\n      swap2\n      swap1\n      pop\n      jump\t// out\n        /* \"contracts/HBVTracker.sol\":346:407  mapping(address => bool) public authorizedHealthcareProviders */\n    tag_35:\n      mstore(0x20, 0x01)\n      dup1\n      0x00\n      mstore\n      keccak256(0x00, 0x40)\n      0x00\n      swap2\n      pop\n      sload\n      swap1\n      0x0100\n      exp\n      swap1\n      div\n      0xff\n      and\n      dup2\n      jump\t// out\n        /* \"contracts/HBVTracker.sol\":748:1083  function storeHash(bytes32 dataHash, bytes memory signature) public {... */\n    tag_40:\n        /* \"contracts/HBVTracker.sol\":849:897  verifySignature(msg.sender, dataHash, signature) */\n      tag_58\n        /* \"contracts/HBVTracker.sol\":865:875  msg.sender */\n      caller\n        /* \"contracts/HBVTracker.sol\":877:885  dataHash */\n      dup4\n        /* \"contracts/HBVTracker.sol\":887:896  signature */\n      dup4\n        /* \"contracts/HBVTracker.sol\":849:864  verifySignature */\n      tag_51\n        /* \"contracts/HBVTracker.sol\":849:897  verifySignature(msg.sender, dataHash, signature) */\n      jump\t// in\n    tag_58:\n        /* \"contracts/HBVTracker.sol\":827:942  require(... */\n      tag_59\n      jumpi\n      mload(0x40)\n      0x08c379a000000000000000000000000000000000000000000000000000000000\n      dup2\n      mstore\n      0x04\n      add\n      tag_60\n      swap1\n      tag_54\n      jump\t// in\n    tag_60:\n      mload(0x40)\n      dup1\n      swap2\n      sub\n      swap1\n      revert\n    tag_59:\n        /* \"contracts/HBVTracker.sol\":987:1020  VaccinationRecord(dataHash, true) */\n      mload(0x40)\n      dup1\n      0x40\n      add\n      0x40\n      mstore\n      dup1\n        /* \"contracts/HBVTracker.sol\":1005:1013  dataHash */\n      dup4\n        /* \"contracts/HBVTracker.sol\":987:1020  VaccinationRecord(dataHash, true) */\n      dup2\n      mstore\n      0x20\n      add\n        /* \"contracts/HBVTracker.sol\":1015:1019  true */\n      0x01\n        /* \"contracts/HBVTracker.sol\":987:1020  VaccinationRecord(dataHash, true) */\n      iszero\n      iszero\n      dup2\n      mstore\n      pop\n        /* \"contracts/HBVTracker.sol\":955:972  vaccinationHashes */\n      0x00\n        /* \"contracts/HBVTracker.sol\":955:984  vaccinationHashes[msg.sender] */\n      dup1\n        /* \"contracts/HBVTracker.sol\":973:983  msg.sender */\n      caller\n        /* \"contracts/HBVTracker.sol\":955:984  vaccinationHashes[msg.sender] */\n      0xffffffffffffffffffffffffffffffffffffffff\n      and\n      0xffffffffffffffffffffffffffffffffffffffff\n      and\n      dup2\n      mstore\n      0x20\n      add\n      swap1\n      dup2\n      mstore\n      0x20\n      add\n      0x00\n      keccak256\n        /* \"contracts/HBVTracker.sol\":955:1020  vaccinationHashes[msg.sender] = VaccinationRecord(dataHash, true) */\n      0x00\n      dup3\n      add\n      mload\n      dup2\n      0x00\n      add\n      sstore\n      0x20\n      dup3\n      add\n      mload\n      dup2\n      0x01\n      add\n      exp(0x0100, 0x00)\n      dup2\n      sload\n      dup2\n      0xff\n      mul\n      not\n      and\n      swap1\n      dup4\n      iszero\n      iszero\n      mul\n      or\n      swap1\n      sstore\n      pop\n      swap1\n      pop\n      pop\n        /* \"contracts/HBVTracker.sol\":1054:1064  msg.sender */\n      caller\n        /* \"contracts/HBVTracker.sol\":1036:1075  VaccinationStored(msg.sender, dataHash) */\n      0xffffffffffffffffffffffffffffffffffffffff\n      and\n      0x7208cf187afe0ab072008f517860923b908309e019c6a39e32cd71eebb7252d1\n        /* \"contracts/HBVTracker.sol\":1066:1074  dataHash */\n      dup4\n        /* \"contracts/HBVTracker.sol\":1036:1075  VaccinationStored(msg.sender, dataHash) */\n      mload(0x40)\n      tag_61\n      swap2\n      swap1\n      tag_19\n      jump\t// in\n    tag_61:\n      mload(0x40)\n      dup1\n      swap2\n      sub\n      swap1\n      log2\n        /* \"contracts/HBVTracker.sol\":748:1083  function storeHash(bytes32 dataHash, bytes memory signature) public {... */\n      pop\n      pop\n      jump\t// out\n        /* \"contracts/HBVTracker.sol\":2459:2819  function verifySignature(... */\n    tag_51:\n        /* \"contracts/HBVTracker.sol\":2599:2603  bool */\n      0x00\n        /* \"contracts/HBVTracker.sol\":2616:2644  bytes32 ethSignedMessageHash */\n      dup1\n        /* \"contracts/HBVTracker.sol\":2724:2732  dataHash */\n      dup4\n        /* \"contracts/HBVTracker.sol\":2671:2733  abi.encodePacked(\"\\x19Ethereum Signed Message:\\n32\", dataHash) */\n      add(0x20, mload(0x40))\n      tag_63\n      swap2\n      swap1\n      tag_64\n      jump\t// in\n    tag_63:\n      mload(0x40)\n      0x20\n      dup2\n      dup4\n      sub\n      sub\n      dup2\n      mstore\n      swap1\n      0x40\n      mstore\n        /* \"contracts/HBVTracker.sol\":2647:2744  keccak256(... */\n      dup1\n      mload\n      swap1\n      0x20\n      add\n      keccak256\n        /* \"contracts/HBVTracker.sol\":2616:2744  bytes32 ethSignedMessageHash = keccak256(... */\n      swap1\n      pop\n        /* \"contracts/HBVTracker.sol\":2805:2811  signer */\n      dup5\n        /* \"contracts/HBVTracker.sol\":2762:2811  ethSignedMessageHash.recover(signature) == signer */\n      0xffffffffffffffffffffffffffffffffffffffff\n      and\n        /* \"contracts/HBVTracker.sol\":2762:2801  ethSignedMessageHash.recover(signature) */\n      tag_65\n        /* \"contracts/HBVTracker.sol\":2791:2800  signature */\n      dup5\n        /* \"contracts/HBVTracker.sol\":2762:2782  ethSignedMessageHash */\n      dup4\n        /* \"contracts/HBVTracker.sol\":2762:2790  ethSignedMessageHash.recover */\n      tag_66\n      swap1\n        /* \"contracts/HBVTracker.sol\":2762:2801  ethSignedMessageHash.recover(signature) */\n      swap2\n      swap1\n      0xffffffff\n      and\n      jump\t// in\n    tag_65:\n        /* \"contracts/HBVTracker.sol\":2762:2811  ethSignedMessageHash.recover(signature) == signer */\n      0xffffffffffffffffffffffffffffffffffffffff\n      and\n      eq\n        /* \"contracts/HBVTracker.sol\":2755:2811  return ethSignedMessageHash.recover(signature) == signer */\n      swap2\n      pop\n      pop\n        /* \"contracts/HBVTracker.sol\":2459:2819  function verifySignature(... */\n      swap4\n      swap3\n      pop\n      pop\n      pop\n      jump\t// out\n        /* \"@openzeppelin/contracts/utils/cryptography/ECDSA.sol\":3714:3969  function recover(bytes32 hash, bytes memory signature) internal pure returns (address) {... */\n    tag_66:\n        /* \"@openzeppelin/contracts/utils/cryptography/ECDSA.sol\":3792:3799  address */\n      0x00\n        /* \"@openzeppelin/contracts/utils/cryptography/ECDSA.sol\":3812:3829  address recovered */\n      dup1\n        /* \"@openzeppelin/contracts/utils/cryptography/ECDSA.sol\":3831:3849  RecoverError error */\n      0x00\n        /* \"@openzeppelin/contracts/utils/cryptography/ECDSA.sol\":3851:3867  bytes32 errorArg */\n      dup1\n        /* \"@openzeppelin/contracts/utils/cryptography/ECDSA.sol\":3871:3898  tryRecover(hash, signature) */\n      tag_68\n        /* \"@openzeppelin/contracts/utils/cryptography/ECDSA.sol\":3882:3886  hash */\n      dup7\n        /* \"@openzeppelin/contracts/utils/cryptography/ECDSA.sol\":3888:3897  signature */\n      dup7\n        /* \"@openzeppelin/contracts/utils/cryptography/ECDSA.sol\":3871:3881  tryRecover */\n      tag_69\n        /* \"@openzeppelin/contracts/utils/cryptography/ECDSA.sol\":3871:3898  tryRecover(hash, signature) */\n      jump\t// in\n    tag_68:\n        /* \"@openzeppelin/contracts/utils/cryptography/ECDSA.sol\":3811:3898  (address recovered, RecoverError error, bytes32 errorArg) = tryRecover(hash, signature) */\n      swap3\n      pop\n      swap3\n      pop\n      swap3\n      pop\n        /* \"@openzeppelin/contracts/utils/cryptography/ECDSA.sol\":3908:3936  _throwError(error, errorArg) */\n      tag_70\n        /* \"@openzeppelin/contracts/utils/cryptography/ECDSA.sol\":3920:3925  error */\n      dup3\n        /* \"@openzeppelin/contracts/utils/cryptography/ECDSA.sol\":3927:3935  errorArg */\n      dup3\n        /* \"@openzeppelin/contracts/utils/cryptography/ECDSA.sol\":3908:3919  _throwError */\n      tag_71\n        /* \"@openzeppelin/contracts/utils/cryptography/ECDSA.sol\":3908:3936  _throwError(error, errorArg) */\n      jump\t// in\n    tag_70:\n        /* \"@openzeppelin/contracts/utils/cryptography/ECDSA.sol\":3953:3962  recovered */\n      dup3\n        /* \"@openzeppelin/contracts/utils/cryptography/ECDSA.sol\":3946:3962  return recovered */\n      swap4\n      pop\n      pop\n      pop\n      pop\n        /* \"@openzeppelin/contracts/utils/cryptography/ECDSA.sol\":3714:3969  function recover(bytes32 hash, bytes memory signature) internal pure returns (address) {... */\n      swap3\n      swap2\n      pop\n      pop\n      jump\t// out\n        /* \"@openzeppelin/contracts/utils/cryptography/ECDSA.sol\":2129:2907  function tryRecover(... */\n    tag_69:\n        /* \"@openzeppelin/contracts/utils/cryptography/ECDSA.sol\":2232:2249  address recovered */\n      0x00\n        /* \"@openzeppelin/contracts/utils/cryptography/ECDSA.sol\":2251:2267  RecoverError err */\n      dup1\n        /* \"@openzeppelin/contracts/utils/cryptography/ECDSA.sol\":2269:2283  bytes32 errArg */\n      0x00\n        /* \"@openzeppelin/contracts/utils/cryptography/ECDSA.sol\":2319:2321  65 */\n      0x41\n        /* \"@openzeppelin/contracts/utils/cryptography/ECDSA.sol\":2299:2308  signature */\n      dup5\n        /* \"@openzeppelin/contracts/utils/cryptography/ECDSA.sol\":2299:2315  signature.length */\n      mload\n        /* \"@openzeppelin/contracts/utils/cryptography/ECDSA.sol\":2299:2321  signature.length == 65 */\n      sub\n        /* \"@openzeppelin/contracts/utils/cryptography/ECDSA.sol\":2295:2901  if (signature.length == 65) {... */\n      tag_73\n      jumpi\n        /* \"@openzeppelin/contracts/utils/cryptography/ECDSA.sol\":2337:2346  bytes32 r */\n      0x00\n        /* \"@openzeppelin/contracts/utils/cryptography/ECDSA.sol\":2360:2369  bytes32 s */\n      dup1\n        /* \"@openzeppelin/contracts/utils/cryptography/ECDSA.sol\":2383:2390  uint8 v */\n      0x00\n        /* \"@openzeppelin/contracts/utils/cryptography/ECDSA.sol\":2604:2608  0x20 */\n      0x20\n        /* \"@openzeppelin/contracts/utils/cryptography/ECDSA.sol\":2593:2602  signature */\n      dup8\n        /* \"@openzeppelin/contracts/utils/cryptography/ECDSA.sol\":2589:2609  add(signature, 0x20) */\n      add\n        /* \"@openzeppelin/contracts/utils/cryptography/ECDSA.sol\":2583:2610  mload(add(signature, 0x20)) */\n      mload\n        /* \"@openzeppelin/contracts/utils/cryptography/ECDSA.sol\":2578:2610  r := mload(add(signature, 0x20)) */\n      swap3\n      pop\n        /* \"@openzeppelin/contracts/utils/cryptography/ECDSA.sol\":2653:2657  0x40 */\n      0x40\n        /* \"@openzeppelin/contracts/utils/cryptography/ECDSA.sol\":2642:2651  signature */\n      dup8\n        /* \"@openzeppelin/contracts/utils/cryptography/ECDSA.sol\":2638:2658  add(signature, 0x40) */\n      add\n        /* \"@openzeppelin/contracts/utils/cryptography/ECDSA.sol\":2632:2659  mload(add(signature, 0x40)) */\n      mload\n        /* \"@openzeppelin/contracts/utils/cryptography/ECDSA.sol\":2627:2659  s := mload(add(signature, 0x40)) */\n      swap2\n      pop\n        /* \"@openzeppelin/contracts/utils/cryptography/ECDSA.sol\":2710:2714  0x60 */\n      0x60\n        /* \"@openzeppelin/contracts/utils/cryptography/ECDSA.sol\":2699:2708  signature */\n      dup8\n        /* \"@openzeppelin/contracts/utils/cryptography/ECDSA.sol\":2695:2715  add(signature, 0x60) */\n      add\n        /* \"@openzeppelin/contracts/utils/cryptography/ECDSA.sol\":2689:2716  mload(add(signature, 0x60)) */\n      mload\n        /* \"@openzeppelin/contracts/utils/cryptography/ECDSA.sol\":2686:2687  0 */\n      0x00\n        /* \"@openzeppelin/contracts/utils/cryptography/ECDSA.sol\":2681:2717  byte(0, mload(add(signature, 0x60))) */\n      byte\n        /* \"@openzeppelin/contracts/utils/cryptography/ECDSA.sol\":2676:2717  v := byte(0, mload(add(signature, 0x60))) */\n      swap1\n      pop\n        /* \"@openzeppelin/contracts/utils/cryptography/ECDSA.sol\":2751:2776  tryRecover(hash, v, r, s) */\n      tag_74\n        /* \"@openzeppelin/contracts/utils/cryptography/ECDSA.sol\":2762:2766  hash */\n      dup9\n        /* \"@openzeppelin/contracts/utils/cryptography/ECDSA.sol\":2768:2769  v */\n      dup3\n        /* \"@openzeppelin/contracts/utils/cryptography/ECDSA.sol\":2771:2772  r */\n      dup6\n        /* \"@openzeppelin/contracts/utils/cryptography/ECDSA.sol\":2774:2775  s */\n      dup6\n        /* \"@openzeppelin/contracts/utils/cryptography/ECDSA.sol\":2751:2761  tryRecover */\n      tag_75\n        /* \"@openzeppelin/contracts/utils/cryptography/ECDSA.sol\":2751:2776  tryRecover(hash, v, r, s) */\n      jump\t// in\n    tag_74:\n        /* \"@openzeppelin/contracts/utils/cryptography/ECDSA.sol\":2744:2776  return tryRecover(hash, v, r, s) */\n      swap6\n      pop\n      swap6\n      pop\n      swap6\n      pop\n      pop\n      pop\n      pop\n      jump(tag_72)\n        /* \"@openzeppelin/contracts/utils/cryptography/ECDSA.sol\":2295:2901  if (signature.length == 65) {... */\n    tag_73:\n        /* \"@openzeppelin/contracts/utils/cryptography/ECDSA.sol\":2823:2824  0 */\n      0x00\n        /* \"@openzeppelin/contracts/utils/cryptography/ECDSA.sol\":2827:2862  RecoverError.InvalidSignatureLength */\n      0x02\n        /* \"@openzeppelin/contracts/utils/cryptography/ECDSA.sol\":2872:2881  signature */\n      dup6\n        /* \"@openzeppelin/contracts/utils/cryptography/ECDSA.sol\":2872:2888  signature.length */\n      mload\n        /* \"@openzeppelin/contracts/utils/cryptography/ECDSA.sol\":2864:2889  bytes32(signature.length) */\n      0x00\n      shl\n        /* \"@openzeppelin/contracts/utils/cryptography/ECDSA.sol\":2807:2890  return (address(0), RecoverError.InvalidSignatureLength, bytes32(signature.length)) */\n      swap3\n      pop\n      swap3\n      pop\n      swap3\n      pop\n        /* \"@openzeppelin/contracts/utils/cryptography/ECDSA.sol\":2129:2907  function tryRecover(... */\n    tag_72:\n      swap3\n      pop\n      swap3\n      pop\n      swap3\n      jump\t// out\n        /* \"@openzeppelin/contracts/utils/cryptography/ECDSA.sol\":7280:7812  function _throwError(RecoverError error, bytes32 errorArg) private pure {... */\n    tag_71:\n        /* \"@openzeppelin/contracts/utils/cryptography/ECDSA.sol\":7375:7395  RecoverError.NoError */\n      0x00\n        /* \"@openzeppelin/contracts/utils/cryptography/ECDSA.sol\":7366:7395  error == RecoverError.NoError */\n      0x03\n      dup2\n      gt\n      iszero\n      tag_78\n      jumpi\n      tag_79\n      tag_80\n      jump\t// in\n    tag_79:\n    tag_78:\n        /* \"@openzeppelin/contracts/utils/cryptography/ECDSA.sol\":7366:7371  error */\n      dup3\n        /* \"@openzeppelin/contracts/utils/cryptography/ECDSA.sol\":7366:7395  error == RecoverError.NoError */\n      0x03\n      dup2\n      gt\n      iszero\n      tag_81\n      jumpi\n      tag_82\n      tag_80\n      jump\t// in\n    tag_82:\n    tag_81:\n      sub\n        /* \"@openzeppelin/contracts/utils/cryptography/ECDSA.sol\":7362:7806  if (error == RecoverError.NoError) {... */\n      iszero\n        /* \"@openzeppelin/contracts/utils/cryptography/ECDSA.sol\":7411:7418  return; */\n      tag_77\n        /* \"@openzeppelin/contracts/utils/cryptography/ECDSA.sol\":7362:7806  if (error == RecoverError.NoError) {... */\n      jumpi\n        /* \"@openzeppelin/contracts/utils/cryptography/ECDSA.sol\":7471:7500  RecoverError.InvalidSignature */\n      0x01\n        /* \"@openzeppelin/contracts/utils/cryptography/ECDSA.sol\":7462:7500  error == RecoverError.InvalidSignature */\n      0x03\n      dup2\n      gt\n      iszero\n      tag_85\n      jumpi\n      tag_86\n      tag_80\n      jump\t// in\n    tag_86:\n    tag_85:\n        /* \"@openzeppelin/contracts/utils/cryptography/ECDSA.sol\":7462:7467  error */\n      dup3\n        /* \"@openzeppelin/contracts/utils/cryptography/ECDSA.sol\":7462:7500  error == RecoverError.InvalidSignature */\n      0x03\n      dup2\n      gt\n      iszero\n      tag_87\n      jumpi\n      tag_88\n      tag_80\n      jump\t// in\n    tag_88:\n    tag_87:\n      sub\n        /* \"@openzeppelin/contracts/utils/cryptography/ECDSA.sol\":7458:7806  if (error == RecoverError.InvalidSignature) {... */\n      tag_89\n      jumpi\n        /* \"@openzeppelin/contracts/utils/cryptography/ECDSA.sol\":7523:7546  ECDSAInvalidSignature() */\n      mload(0x40)\n      0xf645eedf00000000000000000000000000000000000000000000000000000000\n      dup2\n      mstore\n      0x04\n      add\n      mload(0x40)\n      dup1\n      swap2\n      sub\n      swap1\n      revert\n        /* \"@openzeppelin/contracts/utils/cryptography/ECDSA.sol\":7458:7806  if (error == RecoverError.InvalidSignature) {... */\n    tag_89:\n        /* \"@openzeppelin/contracts/utils/cryptography/ECDSA.sol\":7576:7611  RecoverError.InvalidSignatureLength */\n      0x02\n        /* \"@openzeppelin/contracts/utils/cryptography/ECDSA.sol\":7567:7611  error == RecoverError.InvalidSignatureLength */\n      0x03\n      dup2\n      gt\n      iszero\n      tag_91\n      jumpi\n      tag_92\n      tag_80\n      jump\t// in\n    tag_92:\n    tag_91:\n        /* \"@openzeppelin/contracts/utils/cryptography/ECDSA.sol\":7567:7572  error */\n      dup3\n        /* \"@openzeppelin/contracts/utils/cryptography/ECDSA.sol\":7567:7611  error == RecoverError.InvalidSignatureLength */\n      0x03\n      dup2\n      gt\n      iszero\n      tag_93\n      jumpi\n      tag_94\n      tag_80\n      jump\t// in\n    tag_94:\n    tag_93:\n      sub\n        /* \"@openzeppelin/contracts/utils/cryptography/ECDSA.sol\":7563:7806  if (error == RecoverError.InvalidSignatureLength) {... */\n      tag_95\n      jumpi\n        /* \"@openzeppelin/contracts/utils/cryptography/ECDSA.sol\":7670:7678  errorArg */\n      dup1\n        /* \"@openzeppelin/contracts/utils/cryptography/ECDSA.sol\":7662:7679  uint256(errorArg) */\n      0x00\n      shr\n        /* \"@openzeppelin/contracts/utils/cryptography/ECDSA.sol\":7634:7680  ECDSAInvalidSignatureLength(uint256(errorArg)) */\n      mload(0x40)\n      0xfce698f700000000000000000000000000000000000000000000000000000000\n      dup2\n      mstore\n      0x04\n      add\n      tag_96\n      swap2\n      swap1\n      tag_97\n      jump\t// in\n    tag_96:\n      mload(0x40)\n      dup1\n      swap2\n      sub\n      swap1\n      revert\n        /* \"@openzeppelin/contracts/utils/cryptography/ECDSA.sol\":7563:7806  if (error == RecoverError.InvalidSignatureLength) {... */\n    tag_95:\n        /* \"@openzeppelin/contracts/utils/cryptography/ECDSA.sol\":7710:7740  RecoverError.InvalidSignatureS */\n      0x03\n        /* \"@openzeppelin/contracts/utils/cryptography/ECDSA.sol\":7701:7740  error == RecoverError.InvalidSignatureS */\n      dup1\n      dup2\n      gt\n      iszero\n      tag_99\n      jumpi\n      tag_100\n      tag_80\n      jump\t// in\n    tag_100:\n    tag_99:\n        /* \"@openzeppelin/contracts/utils/cryptography/ECDSA.sol\":7701:7706  error */\n      dup3\n        /* \"@openzeppelin/contracts/utils/cryptography/ECDSA.sol\":7701:7740  error == RecoverError.InvalidSignatureS */\n      0x03\n      dup2\n      gt\n      iszero\n      tag_101\n      jumpi\n      tag_102\n      tag_80\n      jump\t// in\n    tag_102:\n    tag_101:\n      sub\n        /* \"@openzeppelin/contracts/utils/cryptography/ECDSA.sol\":7697:7806  if (error == RecoverError.InvalidSignatureS) {... */\n      tag_103\n      jumpi\n        /* \"@openzeppelin/contracts/utils/cryptography/ECDSA.sol\":7786:7794  errorArg */\n      dup1\n        /* \"@openzeppelin/contracts/utils/cryptography/ECDSA.sol\":7763:7795  ECDSAInvalidSignatureS(errorArg) */\n      mload(0x40)\n      0xd78bce0c00000000000000000000000000000000000000000000000000000000\n      dup2\n      mstore\n      0x04\n      add\n      tag_104\n      swap2\n      swap1\n      tag_19\n      jump\t// in\n    tag_104:\n      mload(0x40)\n      dup1\n      swap2\n      sub\n      swap1\n      revert\n        /* \"@openzeppelin/contracts/utils/cryptography/ECDSA.sol\":7697:7806  if (error == RecoverError.InvalidSignatureS) {... */\n    tag_103:\n        /* \"@openzeppelin/contracts/utils/cryptography/ECDSA.sol\":7280:7812  function _throwError(RecoverError error, bytes32 errorArg) private pure {... */\n    tag_77:\n      pop\n      pop\n      jump\t// out\n        /* \"@openzeppelin/contracts/utils/cryptography/ECDSA.sol\":5203:6754  function tryRecover(... */\n    tag_75:\n        /* \"@openzeppelin/contracts/utils/cryptography/ECDSA.sol\":5329:5346  address recovered */\n      0x00\n        /* \"@openzeppelin/contracts/utils/cryptography/ECDSA.sol\":5348:5364  RecoverError err */\n      dup1\n        /* \"@openzeppelin/contracts/utils/cryptography/ECDSA.sol\":5366:5380  bytes32 errArg */\n      0x00\n        /* \"@openzeppelin/contracts/utils/cryptography/ECDSA.sol\":6283:6349  0x7FFFFFFFFFFFFFFFFFFFFFFFFFFFFFFF5D576E7357A4501DDFE92F46681B20A0 */\n      0x7fffffffffffffffffffffffffffffff5d576e7357a4501ddfe92f46681b20a0\n        /* \"@openzeppelin/contracts/utils/cryptography/ECDSA.sol\":6278:6279  s */\n      dup5\n        /* \"@openzeppelin/contracts/utils/cryptography/ECDSA.sol\":6270:6280  uint256(s) */\n      0x00\n      shr\n        /* \"@openzeppelin/contracts/utils/cryptography/ECDSA.sol\":6270:6349  uint256(s) > 0x7FFFFFFFFFFFFFFFFFFFFFFFFFFFFFFF5D576E7357A4501DDFE92F46681B20A0 */\n      gt\n        /* \"@openzeppelin/contracts/utils/cryptography/ECDSA.sol\":6266:6430  if (uint256(s) > 0x7FFFFFFFFFFFFFFFFFFFFFFFFFFFFFFF5D576E7357A4501DDFE92F46681B20A0) {... */\n      iszero\n      tag_106\n      jumpi\n        /* \"@openzeppelin/contracts/utils/cryptography/ECDSA.sol\":6381:6382  0 */\n      0x00\n        /* \"@openzeppelin/contracts/utils/cryptography/ECDSA.sol\":6385:6415  RecoverError.InvalidSignatureS */\n      0x03\n        /* \"@openzeppelin/contracts/utils/cryptography/ECDSA.sol\":6417:6418  s */\n      dup6\n        /* \"@openzeppelin/contracts/utils/cryptography/ECDSA.sol\":6365:6419  return (address(0), RecoverError.InvalidSignatureS, s) */\n      swap3\n      pop\n      swap3\n      pop\n      swap3\n      pop\n      jump(tag_105)\n        /* \"@openzeppelin/contracts/utils/cryptography/ECDSA.sol\":6266:6430  if (uint256(s) > 0x7FFFFFFFFFFFFFFFFFFFFFFFFFFFFFFF5D576E7357A4501DDFE92F46681B20A0) {... */\n    tag_106:\n        /* \"@openzeppelin/contracts/utils/cryptography/ECDSA.sol\":6524:6538  address signer */\n      0x00\n        /* \"@openzeppelin/contracts/utils/cryptography/ECDSA.sol\":6541:6565  ecrecover(hash, v, r, s) */\n      0x01\n        /* \"@openzeppelin/contracts/utils/cryptography/ECDSA.sol\":6551:6555  hash */\n      dup9\n        /* \"@openzeppelin/contracts/utils/cryptography/ECDSA.sol\":6557:6558  v */\n      dup9\n        /* \"@openzeppelin/contracts/utils/cryptography/ECDSA.sol\":6560:6561  r */\n      dup9\n        /* \"@openzeppelin/contracts/utils/cryptography/ECDSA.sol\":6563:6564  s */\n      dup9\n        /* \"@openzeppelin/contracts/utils/cryptography/ECDSA.sol\":6541:6565  ecrecover(hash, v, r, s) */\n      mload(0x40)\n      0x00\n      dup2\n      mstore\n      0x20\n      add\n      0x40\n      mstore\n      mload(0x40)\n      tag_107\n      swap5\n      swap4\n      swap3\n      swap2\n      swap1\n      tag_108\n      jump\t// in\n    tag_107:\n      0x20\n      mload(0x40)\n      0x20\n      dup2\n      sub\n      swap1\n      dup1\n      dup5\n      sub\n      swap1\n      dup6\n      gas\n      staticcall\n      iszero\n      dup1\n      iszero\n      tag_110\n      jumpi\n      returndatasize\n      0x00\n      dup1\n      returndatacopy\n      revert(0x00, returndatasize)\n    tag_110:\n      pop\n      pop\n      pop\n      mload(sub(mload(0x40), 0x20))\n        /* \"@openzeppelin/contracts/utils/cryptography/ECDSA.sol\":6524:6565  address signer = ecrecover(hash, v, r, s) */\n      swap1\n      pop\n        /* \"@openzeppelin/contracts/utils/cryptography/ECDSA.sol\":6597:6598  0 */\n      0x00\n        /* \"@openzeppelin/contracts/utils/cryptography/ECDSA.sol\":6579:6599  signer == address(0) */\n      0xffffffffffffffffffffffffffffffffffffffff\n      and\n        /* \"@openzeppelin/contracts/utils/cryptography/ECDSA.sol\":6579:6585  signer */\n      dup2\n        /* \"@openzeppelin/contracts/utils/cryptography/ECDSA.sol\":6579:6599  signer == address(0) */\n      0xffffffffffffffffffffffffffffffffffffffff\n      and\n      sub\n        /* \"@openzeppelin/contracts/utils/cryptography/ECDSA.sol\":6575:6688  if (signer == address(0)) {... */\n      tag_111\n      jumpi\n        /* \"@openzeppelin/contracts/utils/cryptography/ECDSA.sol\":6631:6632  0 */\n      0x00\n        /* \"@openzeppelin/contracts/utils/cryptography/ECDSA.sol\":6635:6664  RecoverError.InvalidSignature */\n      0x01\n        /* \"@openzeppelin/contracts/utils/cryptography/ECDSA.sol\":6674:6675  0 */\n      0x00\n        /* \"@openzeppelin/contracts/utils/cryptography/ECDSA.sol\":6666:6676  bytes32(0) */\n      dup1\n      shl\n        /* \"@openzeppelin/contracts/utils/cryptography/ECDSA.sol\":6615:6677  return (address(0), RecoverError.InvalidSignature, bytes32(0)) */\n      swap4\n      pop\n      swap4\n      pop\n      swap4\n      pop\n      pop\n      jump(tag_105)\n        /* \"@openzeppelin/contracts/utils/cryptography/ECDSA.sol\":6575:6688  if (signer == address(0)) {... */\n    tag_111:\n        /* \"@openzeppelin/contracts/utils/cryptography/ECDSA.sol\":6706:6712  signer */\n      dup1\n        /* \"@openzeppelin/contracts/utils/cryptography/ECDSA.sol\":6714:6734  RecoverError.NoError */\n      0x00\n        /* \"@openzeppelin/contracts/utils/cryptography/ECDSA.sol\":6744:6745  0 */\n      dup1\n        /* \"@openzeppelin/contracts/utils/cryptography/ECDSA.sol\":6736:6746  bytes32(0) */\n      0x00\n      shl\n        /* \"@openzeppelin/contracts/utils/cryptography/ECDSA.sol\":6698:6747  return (signer, RecoverError.NoError, bytes32(0)) */\n      swap4\n      pop\n      swap4\n      pop\n      swap4\n      pop\n      pop\n        /* \"@openzeppelin/contracts/utils/cryptography/ECDSA.sol\":5203:6754  function tryRecover(... */\n    tag_105:\n      swap5\n      pop\n      swap5\n      pop\n      swap5\n      swap2\n      pop\n      pop\n      jump\t// out\n        /* \"#utility.yul\":7:82   */\n    tag_112:\n        /* \"#utility.yul\":40:46   */\n      0x00\n        /* \"#utility.yul\":73:75   */\n      0x40\n        /* \"#utility.yul\":67:76   */\n      mload\n        /* \"#utility.yul\":57:76   */\n      swap1\n      pop\n        /* \"#utility.yul\":7:82   */\n      swap1\n      jump\t// out\n        /* \"#utility.yul\":88:205   */\n    tag_113:\n        /* \"#utility.yul\":197:198   */\n      0x00\n        /* \"#utility.yul\":194:195   */\n      dup1\n        /* \"#utility.yul\":187:199   */\n      revert\n        /* \"#utility.yul\":211:328   */\n    tag_114:\n        /* \"#utility.yul\":320:321   */\n      0x00\n        /* \"#utility.yul\":317:318   */\n      dup1\n        /* \"#utility.yul\":310:322   */\n      revert\n        /* \"#utility.yul\":334:460   */\n    tag_115:\n        /* \"#utility.yul\":371:378   */\n      0x00\n        /* \"#utility.yul\":411:453   */\n      0xffffffffffffffffffffffffffffffffffffffff\n        /* \"#utility.yul\":404:409   */\n      dup3\n        /* \"#utility.yul\":400:454   */\n      and\n        /* \"#utility.yul\":389:454   */\n      swap1\n      pop\n        /* \"#utility.yul\":334:460   */\n      swap2\n      swap1\n      pop\n      jump\t// out\n        /* \"#utility.yul\":466:562   */\n    tag_116:\n        /* \"#utility.yul\":503:510   */\n      0x00\n        /* \"#utility.yul\":532:556   */\n      tag_157\n        /* \"#utility.yul\":550:555   */\n      dup3\n        /* \"#utility.yul\":532:556   */\n      tag_115\n      jump\t// in\n    tag_157:\n        /* \"#utility.yul\":521:556   */\n      swap1\n      pop\n        /* \"#utility.yul\":466:562   */\n      swap2\n      swap1\n      pop\n      jump\t// out\n        /* \"#utility.yul\":568:690   */\n    tag_117:\n        /* \"#utility.yul\":641:665   */\n      tag_159\n        /* \"#utility.yul\":659:664   */\n      dup2\n        /* \"#utility.yul\":641:665   */\n      tag_116\n      jump\t// in\n    tag_159:\n        /* \"#utility.yul\":634:639   */\n      dup2\n        /* \"#utility.yul\":631:666   */\n      eq\n        /* \"#utility.yul\":621:684   */\n      tag_160\n      jumpi\n        /* \"#utility.yul\":680:681   */\n      0x00\n        /* \"#utility.yul\":677:678   */\n      dup1\n        /* \"#utility.yul\":670:682   */\n      revert\n        /* \"#utility.yul\":621:684   */\n    tag_160:\n        /* \"#utility.yul\":568:690   */\n      pop\n      jump\t// out\n        /* \"#utility.yul\":696:835   */\n    tag_118:\n        /* \"#utility.yul\":742:747   */\n      0x00\n        /* \"#utility.yul\":780:786   */\n      dup2\n        /* \"#utility.yul\":767:787   */\n      calldataload\n        /* \"#utility.yul\":758:787   */\n      swap1\n      pop\n        /* \"#utility.yul\":796:829   */\n      tag_162\n        /* \"#utility.yul\":823:828   */\n      dup2\n        /* \"#utility.yul\":796:829   */\n      tag_117\n      jump\t// in\n    tag_162:\n        /* \"#utility.yul\":696:835   */\n      swap3\n      swap2\n      pop\n      pop\n      jump\t// out\n        /* \"#utility.yul\":841:1170   */\n    tag_13:\n        /* \"#utility.yul\":900:906   */\n      0x00\n        /* \"#utility.yul\":949:951   */\n      0x20\n        /* \"#utility.yul\":937:946   */\n      dup3\n        /* \"#utility.yul\":928:935   */\n      dup5\n        /* \"#utility.yul\":924:947   */\n      sub\n        /* \"#utility.yul\":920:952   */\n      slt\n        /* \"#utility.yul\":917:1036   */\n      iszero\n      tag_164\n      jumpi\n        /* \"#utility.yul\":955:1034   */\n      tag_165\n      tag_113\n      jump\t// in\n    tag_165:\n        /* \"#utility.yul\":917:1036   */\n    tag_164:\n        /* \"#utility.yul\":1075:1076   */\n      0x00\n        /* \"#utility.yul\":1100:1153   */\n      tag_166\n        /* \"#utility.yul\":1145:1152   */\n      dup5\n        /* \"#utility.yul\":1136:1142   */\n      dup3\n        /* \"#utility.yul\":1125:1134   */\n      dup6\n        /* \"#utility.yul\":1121:1143   */\n      add\n        /* \"#utility.yul\":1100:1153   */\n      tag_118\n      jump\t// in\n    tag_166:\n        /* \"#utility.yul\":1090:1153   */\n      swap2\n      pop\n        /* \"#utility.yul\":1046:1163   */\n      pop\n        /* \"#utility.yul\":841:1170   */\n      swap3\n      swap2\n      pop\n      pop\n      jump\t// out\n        /* \"#utility.yul\":1176:1253   */\n    tag_119:\n        /* \"#utility.yul\":1213:1220   */\n      0x00\n        /* \"#utility.yul\":1242:1247   */\n      dup2\n        /* \"#utility.yul\":1231:1247   */\n      swap1\n      pop\n        /* \"#utility.yul\":1176:1253   */\n      swap2\n      swap1\n      pop\n      jump\t// out\n        /* \"#utility.yul\":1259:1377   */\n    tag_120:\n        /* \"#utility.yul\":1346:1370   */\n      tag_169\n        /* \"#utility.yul\":1364:1369   */\n      dup2\n        /* \"#utility.yul\":1346:1370   */\n      tag_119\n      jump\t// in\n    tag_169:\n        /* \"#utility.yul\":1341:1344   */\n      dup3\n        /* \"#utility.yul\":1334:1371   */\n      mstore\n        /* \"#utility.yul\":1259:1377   */\n      pop\n      pop\n      jump\t// out\n        /* \"#utility.yul\":1383:1605   */\n    tag_19:\n        /* \"#utility.yul\":1476:1480   */\n      0x00\n        /* \"#utility.yul\":1514:1516   */\n      0x20\n        /* \"#utility.yul\":1503:1512   */\n      dup3\n        /* \"#utility.yul\":1499:1517   */\n      add\n        /* \"#utility.yul\":1491:1517   */\n      swap1\n      pop\n        /* \"#utility.yul\":1527:1598   */\n      tag_171\n        /* \"#utility.yul\":1595:1596   */\n      0x00\n        /* \"#utility.yul\":1584:1593   */\n      dup4\n        /* \"#utility.yul\":1580:1597   */\n      add\n        /* \"#utility.yul\":1571:1577   */\n      dup5\n        /* \"#utility.yul\":1527:1598   */\n      tag_120\n      jump\t// in\n    tag_171:\n        /* \"#utility.yul\":1383:1605   */\n      swap3\n      swap2\n      pop\n      pop\n      jump\t// out\n        /* \"#utility.yul\":1611:1701   */\n    tag_121:\n        /* \"#utility.yul\":1645:1652   */\n      0x00\n        /* \"#utility.yul\":1688:1693   */\n      dup2\n        /* \"#utility.yul\":1681:1694   */\n      iszero\n        /* \"#utility.yul\":1674:1695   */\n      iszero\n        /* \"#utility.yul\":1663:1695   */\n      swap1\n      pop\n        /* \"#utility.yul\":1611:1701   */\n      swap2\n      swap1\n      pop\n      jump\t// out\n        /* \"#utility.yul\":1707:1816   */\n    tag_122:\n        /* \"#utility.yul\":1788:1809   */\n      tag_174\n        /* \"#utility.yul\":1803:1808   */\n      dup2\n        /* \"#utility.yul\":1788:1809   */\n      tag_121\n      jump\t// in\n    tag_174:\n        /* \"#utility.yul\":1783:1786   */\n      dup3\n        /* \"#utility.yul\":1776:1810   */\n      mstore\n        /* \"#utility.yul\":1707:1816   */\n      pop\n      pop\n      jump\t// out\n        /* \"#utility.yul\":1822:2032   */\n    tag_24:\n        /* \"#utility.yul\":1909:1913   */\n      0x00\n        /* \"#utility.yul\":1947:1949   */\n      0x20\n        /* \"#utility.yul\":1936:1945   */\n      dup3\n        /* \"#utility.yul\":1932:1950   */\n      add\n        /* \"#utility.yul\":1924:1950   */\n      swap1\n      pop\n        /* \"#utility.yul\":1960:2025   */\n      tag_176\n        /* \"#utility.yul\":2022:2023   */\n      0x00\n        /* \"#utility.yul\":2011:2020   */\n      dup4\n        /* \"#utility.yul\":2007:2024   */\n      add\n        /* \"#utility.yul\":1998:2004   */\n      dup5\n        /* \"#utility.yul\":1960:2025   */\n      tag_122\n      jump\t// in\n    tag_176:\n        /* \"#utility.yul\":1822:2032   */\n      swap3\n      swap2\n      pop\n      pop\n      jump\t// out\n        /* \"#utility.yul\":2038:2160   */\n    tag_123:\n        /* \"#utility.yul\":2111:2135   */\n      tag_178\n        /* \"#utility.yul\":2129:2134   */\n      dup2\n        /* \"#utility.yul\":2111:2135   */\n      tag_119\n      jump\t// in\n    tag_178:\n        /* \"#utility.yul\":2104:2109   */\n      dup2\n        /* \"#utility.yul\":2101:2136   */\n      eq\n        /* \"#utility.yul\":2091:2154   */\n      tag_179\n      jumpi\n        /* \"#utility.yul\":2150:2151   */\n      0x00\n        /* \"#utility.yul\":2147:2148   */\n      dup1\n        /* \"#utility.yul\":2140:2152   */\n      revert\n        /* \"#utility.yul\":2091:2154   */\n    tag_179:\n        /* \"#utility.yul\":2038:2160   */\n      pop\n      jump\t// out\n        /* \"#utility.yul\":2166:2305   */\n    tag_124:\n        /* \"#utility.yul\":2212:2217   */\n      0x00\n        /* \"#utility.yul\":2250:2256   */\n      dup2\n        /* \"#utility.yul\":2237:2257   */\n      calldataload\n        /* \"#utility.yul\":2228:2257   */\n      swap1\n      pop\n        /* \"#utility.yul\":2266:2299   */\n      tag_181\n        /* \"#utility.yul\":2293:2298   */\n      dup2\n        /* \"#utility.yul\":2266:2299   */\n      tag_123\n      jump\t// in\n    tag_181:\n        /* \"#utility.yul\":2166:2305   */\n      swap3\n      swap2\n      pop\n      pop\n      jump\t// out\n        /* \"#utility.yul\":2311:2428   */\n    tag_125:\n        /* \"#utility.yul\":2420:2421   */\n      0x00\n        /* \"#utility.yul\":2417:2418   */\n      dup1\n        /* \"#utility.yul\":2410:2422   */\n      revert\n        /* \"#utility.yul\":2434:2551   */\n    tag_126:\n        /* \"#utility.yul\":2543:2544   */\n      0x00\n        /* \"#utility.yul\":2540:2541   */\n      dup1\n        /* \"#utility.yul\":2533:2545   */\n      revert\n        /* \"#utility.yul\":2557:2659   */\n    tag_127:\n        /* \"#utility.yul\":2598:2604   */\n      0x00\n        /* \"#utility.yul\":2649:2651   */\n      0x1f\n        /* \"#utility.yul\":2645:2652   */\n      not\n        /* \"#utility.yul\":2640:2642   */\n      0x1f\n        /* \"#utility.yul\":2633:2638   */\n      dup4\n        /* \"#utility.yul\":2629:2643   */\n      add\n        /* \"#utility.yul\":2625:2653   */\n      and\n        /* \"#utility.yul\":2615:2653   */\n      swap1\n      pop\n        /* \"#utility.yul\":2557:2659   */\n      swap2\n      swap1\n      pop\n      jump\t// out\n        /* \"#utility.yul\":2665:2845   */\n    tag_128:\n        /* \"#utility.yul\":2713:2790   */\n      0x4e487b7100000000000000000000000000000000000000000000000000000000\n        /* \"#utility.yul\":2710:2711   */\n      0x00\n        /* \"#utility.yul\":2703:2791   */\n      mstore\n        /* \"#utility.yul\":2810:2814   */\n      0x41\n        /* \"#utility.yul\":2807:2808   */\n      0x04\n        /* \"#utility.yul\":2800:2815   */\n      mstore\n        /* \"#utility.yul\":2834:2838   */\n      0x24\n        /* \"#utility.yul\":2831:2832   */\n      0x00\n        /* \"#utility.yul\":2824:2839   */\n      revert\n        /* \"#utility.yul\":2851:3132   */\n    tag_129:\n        /* \"#utility.yul\":2934:2961   */\n      tag_187\n        /* \"#utility.yul\":2956:2960   */\n      dup3\n        /* \"#utility.yul\":2934:2961   */\n      tag_127\n      jump\t// in\n    tag_187:\n        /* \"#utility.yul\":2926:2932   */\n      dup2\n        /* \"#utility.yul\":2922:2962   */\n      add\n        /* \"#utility.yul\":3064:3070   */\n      dup2\n        /* \"#utility.yul\":3052:3062   */\n      dup2\n        /* \"#utility.yul\":3049:3071   */\n      lt\n        /* \"#utility.yul\":3028:3046   */\n      0xffffffffffffffff\n        /* \"#utility.yul\":3016:3026   */\n      dup3\n        /* \"#utility.yul\":3013:3047   */\n      gt\n        /* \"#utility.yul\":3010:3072   */\n      or\n        /* \"#utility.yul\":3007:3095   */\n      iszero\n      tag_188\n      jumpi\n        /* \"#utility.yul\":3075:3093   */\n      tag_189\n      tag_128\n      jump\t// in\n    tag_189:\n        /* \"#utility.yul\":3007:3095   */\n    tag_188:\n        /* \"#utility.yul\":3115:3125   */\n      dup1\n        /* \"#utility.yul\":3111:3113   */\n      0x40\n        /* \"#utility.yul\":3104:3126   */\n      mstore\n        /* \"#utility.yul\":2894:3132   */\n      pop\n        /* \"#utility.yul\":2851:3132   */\n      pop\n      pop\n      jump\t// out\n        /* \"#utility.yul\":3138:3267   */\n    tag_130:\n        /* \"#utility.yul\":3172:3178   */\n      0x00\n        /* \"#utility.yul\":3199:3219   */\n      tag_191\n      tag_112\n      jump\t// in\n    tag_191:\n        /* \"#utility.yul\":3189:3219   */\n      swap1\n      pop\n        /* \"#utility.yul\":3228:3261   */\n      tag_192\n        /* \"#utility.yul\":3256:3260   */\n      dup3\n        /* \"#utility.yul\":3248:3254   */\n      dup3\n        /* \"#utility.yul\":3228:3261   */\n      tag_129\n      jump\t// in\n    tag_192:\n        /* \"#utility.yul\":3138:3267   */\n      swap2\n      swap1\n      pop\n      jump\t// out\n        /* \"#utility.yul\":3273:3580   */\n    tag_131:\n        /* \"#utility.yul\":3334:3338   */\n      0x00\n        /* \"#utility.yul\":3424:3442   */\n      0xffffffffffffffff\n        /* \"#utility.yul\":3416:3422   */\n      dup3\n        /* \"#utility.yul\":3413:3443   */\n      gt\n        /* \"#utility.yul\":3410:3466   */\n      iszero\n      tag_194\n      jumpi\n        /* \"#utility.yul\":3446:3464   */\n      tag_195\n      tag_128\n      jump\t// in\n    tag_195:\n        /* \"#utility.yul\":3410:3466   */\n    tag_194:\n        /* \"#utility.yul\":3484:3513   */\n      tag_196\n        /* \"#utility.yul\":3506:3512   */\n      dup3\n        /* \"#utility.yul\":3484:3513   */\n      tag_127\n      jump\t// in\n    tag_196:\n        /* \"#utility.yul\":3476:3513   */\n      swap1\n      pop\n        /* \"#utility.yul\":3568:3572   */\n      0x20\n        /* \"#utility.yul\":3562:3566   */\n      dup2\n        /* \"#utility.yul\":3558:3573   */\n      add\n        /* \"#utility.yul\":3550:3573   */\n      swap1\n      pop\n        /* \"#utility.yul\":3273:3580   */\n      swap2\n      swap1\n      pop\n      jump\t// out\n        /* \"#utility.yul\":3586:3734   */\n    tag_132:\n        /* \"#utility.yul\":3684:3690   */\n      dup3\n        /* \"#utility.yul\":3679:3682   */\n      dup2\n        /* \"#utility.yul\":3674:3677   */\n      dup4\n        /* \"#utility.yul\":3661:3691   */\n      calldatacopy\n        /* \"#utility.yul\":3725:3726   */\n      0x00\n        /* \"#utility.yul\":3716:3722   */\n      dup4\n        /* \"#utility.yul\":3711:3714   */\n      dup4\n        /* \"#utility.yul\":3707:3723   */\n      add\n        /* \"#utility.yul\":3700:3727   */\n      mstore\n        /* \"#utility.yul\":3586:3734   */\n      pop\n      pop\n      pop\n      jump\t// out\n        /* \"#utility.yul\":3740:4163   */\n    tag_133:\n        /* \"#utility.yul\":3817:3822   */\n      0x00\n        /* \"#utility.yul\":3842:3907   */\n      tag_199\n        /* \"#utility.yul\":3858:3906   */\n      tag_200\n        /* \"#utility.yul\":3899:3905   */\n      dup5\n        /* \"#utility.yul\":3858:3906   */\n      tag_131\n      jump\t// in\n    tag_200:\n        /* \"#utility.yul\":3842:3907   */\n      tag_130\n      jump\t// in\n    tag_199:\n        /* \"#utility.yul\":3833:3907   */\n      swap1\n      pop\n        /* \"#utility.yul\":3930:3936   */\n      dup3\n        /* \"#utility.yul\":3923:3928   */\n      dup2\n        /* \"#utility.yul\":3916:3937   */\n      mstore\n        /* \"#utility.yul\":3968:3972   */\n      0x20\n        /* \"#utility.yul\":3961:3966   */\n      dup2\n        /* \"#utility.yul\":3957:3973   */\n      add\n        /* \"#utility.yul\":4006:4009   */\n      dup5\n        /* \"#utility.yul\":3997:4003   */\n      dup5\n        /* \"#utility.yul\":3992:3995   */\n      dup5\n        /* \"#utility.yul\":3988:4004   */\n      add\n        /* \"#utility.yul\":3985:4010   */\n      gt\n        /* \"#utility.yul\":3982:4094   */\n      iszero\n      tag_201\n      jumpi\n        /* \"#utility.yul\":4013:4092   */\n      tag_202\n      tag_126\n      jump\t// in\n    tag_202:\n        /* \"#utility.yul\":3982:4094   */\n    tag_201:\n        /* \"#utility.yul\":4103:4157   */\n      tag_203\n        /* \"#utility.yul\":4150:4156   */\n      dup5\n        /* \"#utility.yul\":4145:4148   */\n      dup3\n        /* \"#utility.yul\":4140:4143   */\n      dup6\n        /* \"#utility.yul\":4103:4157   */\n      tag_132\n      jump\t// in\n    tag_203:\n        /* \"#utility.yul\":3823:4163   */\n      pop\n        /* \"#utility.yul\":3740:4163   */\n      swap4\n      swap3\n      pop\n      pop\n      pop\n      jump\t// out\n        /* \"#utility.yul\":4182:4520   */\n    tag_134:\n        /* \"#utility.yul\":4237:4242   */\n      0x00\n        /* \"#utility.yul\":4286:4289   */\n      dup3\n        /* \"#utility.yul\":4279:4283   */\n      0x1f\n        /* \"#utility.yul\":4271:4277   */\n      dup4\n        /* \"#utility.yul\":4267:4284   */\n      add\n        /* \"#utility.yul\":4263:4290   */\n      slt\n        /* \"#utility.yul\":4253:4375   */\n      tag_205\n      jumpi\n        /* \"#utility.yul\":4294:4373   */\n      tag_206\n      tag_125\n      jump\t// in\n    tag_206:\n        /* \"#utility.yul\":4253:4375   */\n    tag_205:\n        /* \"#utility.yul\":4411:4417   */\n      dup2\n        /* \"#utility.yul\":4398:4418   */\n      calldataload\n        /* \"#utility.yul\":4436:4514   */\n      tag_207\n        /* \"#utility.yul\":4510:4513   */\n      dup5\n        /* \"#utility.yul\":4502:4508   */\n      dup3\n        /* \"#utility.yul\":4495:4499   */\n      0x20\n        /* \"#utility.yul\":4487:4493   */\n      dup7\n        /* \"#utility.yul\":4483:4500   */\n      add\n        /* \"#utility.yul\":4436:4514   */\n      tag_133\n      jump\t// in\n    tag_207:\n        /* \"#utility.yul\":4427:4514   */\n      swap2\n      pop\n        /* \"#utility.yul\":4243:4520   */\n      pop\n        /* \"#utility.yul\":4182:4520   */\n      swap3\n      swap2\n      pop\n      pop\n      jump\t// out\n        /* \"#utility.yul\":4526:5323   */\n    tag_27:\n        /* \"#utility.yul\":4612:4618   */\n      0x00\n        /* \"#utility.yul\":4620:4626   */\n      dup1\n        /* \"#utility.yul\":4628:4634   */\n      0x00\n        /* \"#utility.yul\":4677:4679   */\n      0x60\n        /* \"#utility.yul\":4665:4674   */\n      dup5\n        /* \"#utility.yul\":4656:4663   */\n      dup7\n        /* \"#utility.yul\":4652:4675   */\n      sub\n        /* \"#utility.yul\":4648:4680   */\n      slt\n        /* \"#utility.yul\":4645:4764   */\n      iszero\n      tag_209\n      jumpi\n        /* \"#utility.yul\":4683:4762   */\n      tag_210\n      tag_113\n      jump\t// in\n    tag_210:\n        /* \"#utility.yul\":4645:4764   */\n    tag_209:\n        /* \"#utility.yul\":4803:4804   */\n      0x00\n        /* \"#utility.yul\":4828:4881   */\n      tag_211\n        /* \"#utility.yul\":4873:4880   */\n      dup7\n        /* \"#utility.yul\":4864:4870   */\n      dup3\n        /* \"#utility.yul\":4853:4862   */\n      dup8\n        /* \"#utility.yul\":4849:4871   */\n      add\n        /* \"#utility.yul\":4828:4881   */\n      tag_118\n      jump\t// in\n    tag_211:\n        /* \"#utility.yul\":4818:4881   */\n      swap4\n      pop\n        /* \"#utility.yul\":4774:4891   */\n      pop\n        /* \"#utility.yul\":4930:4932   */\n      0x20\n        /* \"#utility.yul\":4956:5009   */\n      tag_212\n        /* \"#utility.yul\":5001:5008   */\n      dup7\n        /* \"#utility.yul\":4992:4998   */\n      dup3\n        /* \"#utility.yul\":4981:4990   */\n      dup8\n        /* \"#utility.yul\":4977:4999   */\n      add\n        /* \"#utility.yul\":4956:5009   */\n      tag_124\n      jump\t// in\n    tag_212:\n        /* \"#utility.yul\":4946:5009   */\n      swap3\n      pop\n        /* \"#utility.yul\":4901:5019   */\n      pop\n        /* \"#utility.yul\":5086:5088   */\n      0x40\n        /* \"#utility.yul\":5075:5084   */\n      dup5\n        /* \"#utility.yul\":5071:5089   */\n      add\n        /* \"#utility.yul\":5058:5090   */\n      calldataload\n        /* \"#utility.yul\":5117:5135   */\n      0xffffffffffffffff\n        /* \"#utility.yul\":5109:5115   */\n      dup2\n        /* \"#utility.yul\":5106:5136   */\n      gt\n        /* \"#utility.yul\":5103:5220   */\n      iszero\n      tag_213\n      jumpi\n        /* \"#utility.yul\":5139:5218   */\n      tag_214\n      tag_114\n      jump\t// in\n    tag_214:\n        /* \"#utility.yul\":5103:5220   */\n    tag_213:\n        /* \"#utility.yul\":5244:5306   */\n      tag_215\n        /* \"#utility.yul\":5298:5305   */\n      dup7\n        /* \"#utility.yul\":5289:5295   */\n      dup3\n        /* \"#utility.yul\":5278:5287   */\n      dup8\n        /* \"#utility.yul\":5274:5296   */\n      add\n        /* \"#utility.yul\":5244:5306   */\n      tag_134\n      jump\t// in\n    tag_215:\n        /* \"#utility.yul\":5234:5306   */\n      swap2\n      pop\n        /* \"#utility.yul\":5029:5316   */\n      pop\n        /* \"#utility.yul\":4526:5323   */\n      swap3\n      pop\n      swap3\n      pop\n      swap3\n      jump\t// out\n        /* \"#utility.yul\":5329:5981   */\n    tag_39:\n        /* \"#utility.yul\":5406:5412   */\n      0x00\n        /* \"#utility.yul\":5414:5420   */\n      dup1\n        /* \"#utility.yul\":5463:5465   */\n      0x40\n        /* \"#utility.yul\":5451:5460   */\n      dup4\n        /* \"#utility.yul\":5442:5449   */\n      dup6\n        /* \"#utility.yul\":5438:5461   */\n      sub\n        /* \"#utility.yul\":5434:5466   */\n      slt\n        /* \"#utility.yul\":5431:5550   */\n      iszero\n      tag_217\n      jumpi\n        /* \"#utility.yul\":5469:5548   */\n      tag_218\n      tag_113\n      jump\t// in\n    tag_218:\n        /* \"#utility.yul\":5431:5550   */\n    tag_217:\n        /* \"#utility.yul\":5589:5590   */\n      0x00\n        /* \"#utility.yul\":5614:5667   */\n      tag_219\n        /* \"#utility.yul\":5659:5666   */\n      dup6\n        /* \"#utility.yul\":5650:5656   */\n      dup3\n        /* \"#utility.yul\":5639:5648   */\n      dup7\n        /* \"#utility.yul\":5635:5657   */\n      add\n        /* \"#utility.yul\":5614:5667   */\n      tag_124\n      jump\t// in\n    tag_219:\n        /* \"#utility.yul\":5604:5667   */\n      swap3\n      pop\n        /* \"#utility.yul\":5560:5677   */\n      pop\n        /* \"#utility.yul\":5744:5746   */\n      0x20\n        /* \"#utility.yul\":5733:5742   */\n      dup4\n        /* \"#utility.yul\":5729:5747   */\n      add\n        /* \"#utility.yul\":5716:5748   */\n      calldataload\n        /* \"#utility.yul\":5775:5793   */\n      0xffffffffffffffff\n        /* \"#utility.yul\":5767:5773   */\n      dup2\n        /* \"#utility.yul\":5764:5794   */\n      gt\n        /* \"#utility.yul\":5761:5878   */\n      iszero\n      tag_220\n      jumpi\n        /* \"#utility.yul\":5797:5876   */\n      tag_221\n      tag_114\n      jump\t// in\n    tag_221:\n        /* \"#utility.yul\":5761:5878   */\n    tag_220:\n        /* \"#utility.yul\":5902:5964   */\n      tag_222\n        /* \"#utility.yul\":5956:5963   */\n      dup6\n        /* \"#utility.yul\":5947:5953   */\n      dup3\n        /* \"#utility.yul\":5936:5945   */\n      dup7\n        /* \"#utility.yul\":5932:5954   */\n      add\n        /* \"#utility.yul\":5902:5964   */\n      tag_134\n      jump\t// in\n    tag_222:\n        /* \"#utility.yul\":5892:5964   */\n      swap2\n      pop\n        /* \"#utility.yul\":5687:5974   */\n      pop\n        /* \"#utility.yul\":5329:5981   */\n      swap3\n      pop\n      swap3\n      swap1\n      pop\n      jump\t// out\n        /* \"#utility.yul\":5987:6156   */\n    tag_135:\n        /* \"#utility.yul\":6071:6082   */\n      0x00\n        /* \"#utility.yul\":6105:6111   */\n      dup3\n        /* \"#utility.yul\":6100:6103   */\n      dup3\n        /* \"#utility.yul\":6093:6112   */\n      mstore\n        /* \"#utility.yul\":6145:6149   */\n      0x20\n        /* \"#utility.yul\":6140:6143   */\n      dup3\n        /* \"#utility.yul\":6136:6150   */\n      add\n        /* \"#utility.yul\":6121:6150   */\n      swap1\n      pop\n        /* \"#utility.yul\":5987:6156   */\n      swap3\n      swap2\n      pop\n      pop\n      jump\t// out\n        /* \"#utility.yul\":6162:6339   */\n    tag_136:\n        /* \"#utility.yul\":6302:6331   */\n      0x4e6f2076616363696e6174696f6e207265636f726420666f756e640000000000\n        /* \"#utility.yul\":6298:6299   */\n      0x00\n        /* \"#utility.yul\":6290:6296   */\n      dup3\n        /* \"#utility.yul\":6286:6300   */\n      add\n        /* \"#utility.yul\":6279:6332   */\n      mstore\n        /* \"#utility.yul\":6162:6339   */\n      pop\n      jump\t// out\n        /* \"#utility.yul\":6345:6711   */\n    tag_137:\n        /* \"#utility.yul\":6487:6490   */\n      0x00\n        /* \"#utility.yul\":6508:6575   */\n      tag_226\n        /* \"#utility.yul\":6572:6574   */\n      0x1b\n        /* \"#utility.yul\":6567:6570   */\n      dup4\n        /* \"#utility.yul\":6508:6575   */\n      tag_135\n      jump\t// in\n    tag_226:\n        /* \"#utility.yul\":6501:6575   */\n      swap2\n      pop\n        /* \"#utility.yul\":6584:6677   */\n      tag_227\n        /* \"#utility.yul\":6673:6676   */\n      dup3\n        /* \"#utility.yul\":6584:6677   */\n      tag_136\n      jump\t// in\n    tag_227:\n        /* \"#utility.yul\":6702:6704   */\n      0x20\n        /* \"#utility.yul\":6697:6700   */\n      dup3\n        /* \"#utility.yul\":6693:6705   */\n      add\n        /* \"#utility.yul\":6686:6705   */\n      swap1\n      pop\n        /* \"#utility.yul\":6345:6711   */\n      swap2\n      swap1\n      pop\n      jump\t// out\n        /* \"#utility.yul\":6717:7136   */\n    tag_45:\n        /* \"#utility.yul\":6883:6887   */\n      0x00\n        /* \"#utility.yul\":6921:6923   */\n      0x20\n        /* \"#utility.yul\":6910:6919   */\n      dup3\n        /* \"#utility.yul\":6906:6924   */\n      add\n        /* \"#utility.yul\":6898:6924   */\n      swap1\n      pop\n        /* \"#utility.yul\":6970:6979   */\n      dup2\n        /* \"#utility.yul\":6964:6968   */\n      dup2\n        /* \"#utility.yul\":6960:6980   */\n      sub\n        /* \"#utility.yul\":6956:6957   */\n      0x00\n        /* \"#utility.yul\":6945:6954   */\n      dup4\n        /* \"#utility.yul\":6941:6958   */\n      add\n        /* \"#utility.yul\":6934:6981   */\n      mstore\n        /* \"#utility.yul\":6998:7129   */\n      tag_229\n        /* \"#utility.yul\":7124:7128   */\n      dup2\n        /* \"#utility.yul\":6998:7129   */\n      tag_137\n      jump\t// in\n    tag_229:\n        /* \"#utility.yul\":6990:7129   */\n      swap1\n      pop\n        /* \"#utility.yul\":6717:7136   */\n      swap2\n      swap1\n      pop\n      jump\t// out\n        /* \"#utility.yul\":7142:7366   */\n    tag_138:\n        /* \"#utility.yul\":7282:7316   */\n      0x4e6f7420616e20617574686f72697a6564206865616c7468636172652070726f\n        /* \"#utility.yul\":7278:7279   */\n      0x00\n        /* \"#utility.yul\":7270:7276   */\n      dup3\n        /* \"#utility.yul\":7266:7280   */\n      add\n        /* \"#utility.yul\":7259:7317   */\n      mstore\n        /* \"#utility.yul\":7351:7358   */\n      0x7669646572000000000000000000000000000000000000000000000000000000\n        /* \"#utility.yul\":7346:7348   */\n      0x20\n        /* \"#utility.yul\":7338:7344   */\n      dup3\n        /* \"#utility.yul\":7334:7349   */\n      add\n        /* \"#utility.yul\":7327:7359   */\n      mstore\n        /* \"#utility.yul\":7142:7366   */\n      pop\n      jump\t// out\n        /* \"#utility.yul\":7372:7738   */\n    tag_139:\n        /* \"#utility.yul\":7514:7517   */\n      0x00\n        /* \"#utility.yul\":7535:7602   */\n      tag_232\n        /* \"#utility.yul\":7599:7601   */\n      0x25\n        /* \"#utility.yul\":7594:7597   */\n      dup4\n        /* \"#utility.yul\":7535:7602   */\n      tag_135\n      jump\t// in\n    tag_232:\n        /* \"#utility.yul\":7528:7602   */\n      swap2\n      pop\n        /* \"#utility.yul\":7611:7704   */\n      tag_233\n        /* \"#utility.yul\":7700:7703   */\n      dup3\n        /* \"#utility.yul\":7611:7704   */\n      tag_138\n      jump\t// in\n    tag_233:\n        /* \"#utility.yul\":7729:7731   */\n      0x40\n        /* \"#utility.yul\":7724:7727   */\n      dup3\n        /* \"#utility.yul\":7720:7732   */\n      add\n        /* \"#utility.yul\":7713:7732   */\n      swap1\n      pop\n        /* \"#utility.yul\":7372:7738   */\n      swap2\n      swap1\n      pop\n      jump\t// out\n        /* \"#utility.yul\":7744:8163   */\n    tag_49:\n        /* \"#utility.yul\":7910:7914   */\n      0x00\n        /* \"#utility.yul\":7948:7950   */\n      0x20\n        /* \"#utility.yul\":7937:7946   */\n      dup3\n        /* \"#utility.yul\":7933:7951   */\n      add\n        /* \"#utility.yul\":7925:7951   */\n      swap1\n      pop\n        /* \"#utility.yul\":7997:8006   */\n      dup2\n        /* \"#utility.yul\":7991:7995   */\n      dup2\n        /* \"#utility.yul\":7987:8007   */\n      sub\n        /* \"#utility.yul\":7983:7984   */\n      0x00\n        /* \"#utility.yul\":7972:7981   */\n      dup4\n        /* \"#utility.yul\":7968:7985   */\n      add\n        /* \"#utility.yul\":7961:8008   */\n      mstore\n        /* \"#utility.yul\":8025:8156   */\n      tag_235\n        /* \"#utility.yul\":8151:8155   */\n      dup2\n        /* \"#utility.yul\":8025:8156   */\n      tag_139\n      jump\t// in\n    tag_235:\n        /* \"#utility.yul\":8017:8156   */\n      swap1\n      pop\n        /* \"#utility.yul\":7744:8163   */\n      swap2\n      swap1\n      pop\n      jump\t// out\n        /* \"#utility.yul\":8169:8336   */\n    tag_140:\n        /* \"#utility.yul\":8309:8328   */\n      0x496e76616c6964207369676e6174757265000000000000000000000000000000\n        /* \"#utility.yul\":8305:8306   */\n      0x00\n        /* \"#utility.yul\":8297:8303   */\n      dup3\n        /* \"#utility.yul\":8293:8307   */\n      add\n        /* \"#utility.yul\":8286:8329   */\n      mstore\n        /* \"#utility.yul\":8169:8336   */\n      pop\n      jump\t// out\n        /* \"#utility.yul\":8342:8708   */\n    tag_141:\n        /* \"#utility.yul\":8484:8487   */\n      0x00\n        /* \"#utility.yul\":8505:8572   */\n      tag_238\n        /* \"#utility.yul\":8569:8571   */\n      0x11\n        /* \"#utility.yul\":8564:8567   */\n      dup4\n        /* \"#utility.yul\":8505:8572   */\n      tag_135\n      jump\t// in\n    tag_238:\n        /* \"#utility.yul\":8498:8572   */\n      swap2\n      pop\n        /* \"#utility.yul\":8581:8674   */\n      tag_239\n        /* \"#utility.yul\":8670:8673   */\n      dup3\n        /* \"#utility.yul\":8581:8674   */\n      tag_140\n      jump\t// in\n    tag_239:\n        /* \"#utility.yul\":8699:8701   */\n      0x20\n        /* \"#utility.yul\":8694:8697   */\n      dup3\n        /* \"#utility.yul\":8690:8702   */\n      add\n        /* \"#utility.yul\":8683:8702   */\n      swap1\n      pop\n        /* \"#utility.yul\":8342:8708   */\n      swap2\n      swap1\n      pop\n      jump\t// out\n        /* \"#utility.yul\":8714:9133   */\n    tag_54:\n        /* \"#utility.yul\":8880:8884   */\n      0x00\n        /* \"#utility.yul\":8918:8920   */\n      0x20\n        /* \"#utility.yul\":8907:8916   */\n      dup3\n        /* \"#utility.yul\":8903:8921   */\n      add\n        /* \"#utility.yul\":8895:8921   */\n      swap1\n      pop\n        /* \"#utility.yul\":8967:8976   */\n      dup2\n        /* \"#utility.yul\":8961:8965   */\n      dup2\n        /* \"#utility.yul\":8957:8977   */\n      sub\n        /* \"#utility.yul\":8953:8954   */\n      0x00\n        /* \"#utility.yul\":8942:8951   */\n      dup4\n        /* \"#utility.yul\":8938:8955   */\n      add\n        /* \"#utility.yul\":8931:8978   */\n      mstore\n        /* \"#utility.yul\":8995:9126   */\n      tag_241\n        /* \"#utility.yul\":9121:9125   */\n      dup2\n        /* \"#utility.yul\":8995:9126   */\n      tag_141\n      jump\t// in\n    tag_241:\n        /* \"#utility.yul\":8987:9126   */\n      swap1\n      pop\n        /* \"#utility.yul\":8714:9133   */\n      swap2\n      swap1\n      pop\n      jump\t// out\n        /* \"#utility.yul\":9139:9287   */\n    tag_142:\n        /* \"#utility.yul\":9241:9252   */\n      0x00\n        /* \"#utility.yul\":9278:9281   */\n      dup2\n        /* \"#utility.yul\":9263:9281   */\n      swap1\n      pop\n        /* \"#utility.yul\":9139:9287   */\n      swap3\n      swap2\n      pop\n      pop\n      jump\t// out\n        /* \"#utility.yul\":9293:9507   */\n    tag_143:\n        /* \"#utility.yul\":9433:9499   */\n      0x19457468657265756d205369676e6564204d6573736167653a0a333200000000\n        /* \"#utility.yul\":9429:9430   */\n      0x00\n        /* \"#utility.yul\":9421:9427   */\n      dup3\n        /* \"#utility.yul\":9417:9431   */\n      add\n        /* \"#utility.yul\":9410:9500   */\n      mstore\n        /* \"#utility.yul\":9293:9507   */\n      pop\n      jump\t// out\n        /* \"#utility.yul\":9513:9915   */\n    tag_144:\n        /* \"#utility.yul\":9673:9676   */\n      0x00\n        /* \"#utility.yul\":9694:9779   */\n      tag_245\n        /* \"#utility.yul\":9776:9778   */\n      0x1c\n        /* \"#utility.yul\":9771:9774   */\n      dup4\n        /* \"#utility.yul\":9694:9779   */\n      tag_142\n      jump\t// in\n    tag_245:\n        /* \"#utility.yul\":9687:9779   */\n      swap2\n      pop\n        /* \"#utility.yul\":9788:9881   */\n      tag_246\n        /* \"#utility.yul\":9877:9880   */\n      dup3\n        /* \"#utility.yul\":9788:9881   */\n      tag_143\n      jump\t// in\n    tag_246:\n        /* \"#utility.yul\":9906:9908   */\n      0x1c\n        /* \"#utility.yul\":9901:9904   */\n      dup3\n        /* \"#utility.yul\":9897:9909   */\n      add\n        /* \"#utility.yul\":9890:9909   */\n      swap1\n      pop\n        /* \"#utility.yul\":9513:9915   */\n      swap2\n      swap1\n      pop\n      jump\t// out\n        /* \"#utility.yul\":9921:10000   */\n    tag_145:\n        /* \"#utility.yul\":9960:9967   */\n      0x00\n        /* \"#utility.yul\":9989:9994   */\n      dup2\n        /* \"#utility.yul\":9978:9994   */\n      swap1\n      pop\n        /* \"#utility.yul\":9921:10000   */\n      swap2\n      swap1\n      pop\n      jump\t// out\n        /* \"#utility.yul\":10006:10163   */\n    tag_146:\n        /* \"#utility.yul\":10111:10156   */\n      tag_249\n        /* \"#utility.yul\":10131:10155   */\n      tag_250\n        /* \"#utility.yul\":10149:10154   */\n      dup3\n        /* \"#utility.yul\":10131:10155   */\n      tag_119\n      jump\t// in\n    tag_250:\n        /* \"#utility.yul\":10111:10156   */\n      tag_145\n      jump\t// in\n    tag_249:\n        /* \"#utility.yul\":10106:10109   */\n      dup3\n        /* \"#utility.yul\":10099:10157   */\n      mstore\n        /* \"#utility.yul\":10006:10163   */\n      pop\n      pop\n      jump\t// out\n        /* \"#utility.yul\":10169:10691   */\n    tag_64:\n        /* \"#utility.yul\":10382:10385   */\n      0x00\n        /* \"#utility.yul\":10404:10552   */\n      tag_252\n        /* \"#utility.yul\":10548:10551   */\n      dup3\n        /* \"#utility.yul\":10404:10552   */\n      tag_144\n      jump\t// in\n    tag_252:\n        /* \"#utility.yul\":10397:10552   */\n      swap2\n      pop\n        /* \"#utility.yul\":10562:10637   */\n      tag_253\n        /* \"#utility.yul\":10633:10636   */\n      dup3\n        /* \"#utility.yul\":10624:10630   */\n      dup5\n        /* \"#utility.yul\":10562:10637   */\n      tag_146\n      jump\t// in\n    tag_253:\n        /* \"#utility.yul\":10662:10664   */\n      0x20\n        /* \"#utility.yul\":10657:10660   */\n      dup3\n        /* \"#utility.yul\":10653:10665   */\n      add\n        /* \"#utility.yul\":10646:10665   */\n      swap2\n      pop\n        /* \"#utility.yul\":10682:10685   */\n      dup2\n        /* \"#utility.yul\":10675:10685   */\n      swap1\n      pop\n        /* \"#utility.yul\":10169:10691   */\n      swap3\n      swap2\n      pop\n      pop\n      jump\t// out\n        /* \"#utility.yul\":10697:10877   */\n    tag_80:\n        /* \"#utility.yul\":10745:10822   */\n      0x4e487b7100000000000000000000000000000000000000000000000000000000\n        /* \"#utility.yul\":10742:10743   */\n      0x00\n        /* \"#utility.yul\":10735:10823   */\n      mstore\n        /* \"#utility.yul\":10842:10846   */\n      0x21\n        /* \"#utility.yul\":10839:10840   */\n      0x04\n        /* \"#utility.yul\":10832:10847   */\n      mstore\n        /* \"#utility.yul\":10866:10870   */\n      0x24\n        /* \"#utility.yul\":10863:10864   */\n      0x00\n        /* \"#utility.yul\":10856:10871   */\n      revert\n        /* \"#utility.yul\":10883:10960   */\n    tag_147:\n        /* \"#utility.yul\":10920:10927   */\n      0x00\n        /* \"#utility.yul\":10949:10954   */\n      dup2\n        /* \"#utility.yul\":10938:10954   */\n      swap1\n      pop\n        /* \"#utility.yul\":10883:10960   */\n      swap2\n      swap1\n      pop\n      jump\t// out\n        /* \"#utility.yul\":10966:11084   */\n    tag_148:\n        /* \"#utility.yul\":11053:11077   */\n      tag_257\n        /* \"#utility.yul\":11071:11076   */\n      dup2\n        /* \"#utility.yul\":11053:11077   */\n      tag_147\n      jump\t// in\n    tag_257:\n        /* \"#utility.yul\":11048:11051   */\n      dup3\n        /* \"#utility.yul\":11041:11078   */\n      mstore\n        /* \"#utility.yul\":10966:11084   */\n      pop\n      pop\n      jump\t// out\n        /* \"#utility.yul\":11090:11312   */\n    tag_97:\n        /* \"#utility.yul\":11183:11187   */\n      0x00\n        /* \"#utility.yul\":11221:11223   */\n      0x20\n        /* \"#utility.yul\":11210:11219   */\n      dup3\n        /* \"#utility.yul\":11206:11224   */\n      add\n        /* \"#utility.yul\":11198:11224   */\n      swap1\n      pop\n        /* \"#utility.yul\":11234:11305   */\n      tag_259\n        /* \"#utility.yul\":11302:11303   */\n      0x00\n        /* \"#utility.yul\":11291:11300   */\n      dup4\n        /* \"#utility.yul\":11287:11304   */\n      add\n        /* \"#utility.yul\":11278:11284   */\n      dup5\n        /* \"#utility.yul\":11234:11305   */\n      tag_148\n      jump\t// in\n    tag_259:\n        /* \"#utility.yul\":11090:11312   */\n      swap3\n      swap2\n      pop\n      pop\n      jump\t// out\n        /* \"#utility.yul\":11318:11404   */\n    tag_149:\n        /* \"#utility.yul\":11353:11360   */\n      0x00\n        /* \"#utility.yul\":11393:11397   */\n      0xff\n        /* \"#utility.yul\":11386:11391   */\n      dup3\n        /* \"#utility.yul\":11382:11398   */\n      and\n        /* \"#utility.yul\":11371:11398   */\n      swap1\n      pop\n        /* \"#utility.yul\":11318:11404   */\n      swap2\n      swap1\n      pop\n      jump\t// out\n        /* \"#utility.yul\":11410:11522   */\n    tag_150:\n        /* \"#utility.yul\":11493:11515   */\n      tag_262\n        /* \"#utility.yul\":11509:11514   */\n      dup2\n        /* \"#utility.yul\":11493:11515   */\n      tag_149\n      jump\t// in\n    tag_262:\n        /* \"#utility.yul\":11488:11491   */\n      dup3\n        /* \"#utility.yul\":11481:11516   */\n      mstore\n        /* \"#utility.yul\":11410:11522   */\n      pop\n      pop\n      jump\t// out\n        /* \"#utility.yul\":11528:12073   */\n    tag_108:\n        /* \"#utility.yul\":11701:11705   */\n      0x00\n        /* \"#utility.yul\":11739:11742   */\n      0x80\n        /* \"#utility.yul\":11728:11737   */\n      dup3\n        /* \"#utility.yul\":11724:11743   */\n      add\n        /* \"#utility.yul\":11716:11743   */\n      swap1\n      pop\n        /* \"#utility.yul\":11753:11824   */\n      tag_264\n        /* \"#utility.yul\":11821:11822   */\n      0x00\n        /* \"#utility.yul\":11810:11819   */\n      dup4\n        /* \"#utility.yul\":11806:11823   */\n      add\n        /* \"#utility.yul\":11797:11803   */\n      dup8\n        /* \"#utility.yul\":11753:11824   */\n      tag_120\n      jump\t// in\n    tag_264:\n        /* \"#utility.yul\":11834:11902   */\n      tag_265\n        /* \"#utility.yul\":11898:11900   */\n      0x20\n        /* \"#utility.yul\":11887:11896   */\n      dup4\n        /* \"#utility.yul\":11883:11901   */\n      add\n        /* \"#utility.yul\":11874:11880   */\n      dup7\n        /* \"#utility.yul\":11834:11902   */\n      tag_150\n      jump\t// in\n    tag_265:\n        /* \"#utility.yul\":11912:11984   */\n      tag_266\n        /* \"#utility.yul\":11980:11982   */\n      0x40\n        /* \"#utility.yul\":11969:11978   */\n      dup4\n        /* \"#utility.yul\":11965:11983   */\n      add\n        /* \"#utility.yul\":11956:11962   */\n      dup6\n        /* \"#utility.yul\":11912:11984   */\n      tag_120\n      jump\t// in\n    tag_266:\n        /* \"#utility.yul\":11994:12066   */\n      tag_267\n        /* \"#utility.yul\":12062:12064   */\n      0x60\n        /* \"#utility.yul\":12051:12060   */\n      dup4\n        /* \"#utility.yul\":12047:12065   */\n      add\n        /* \"#utility.yul\":12038:12044   */\n      dup5\n        /* \"#utility.yul\":11994:12066   */\n      tag_120\n      jump\t// in\n    tag_267:\n        /* \"#utility.yul\":11528:12073   */\n      swap6\n      swap5\n      pop\n      pop\n      pop\n      pop\n      pop\n      jump\t// out\n\n    auxdata: 0xa26469706673582212207fd516c3fc997e96273bfc7f653ab0526affa9ae7d96260542ee9cb80e23b75764736f6c634300081a0033\n}\n",
				"bytecode": {
					"linkReferences": {},
					"object": "6080604052348015600e575f80fd5b50610fa78061001c5f395ff3fe608060405234801561000f575f80fd5b506004361061007b575f3560e01c806333dc55b41161005957806333dc55b4146100fb5780635d2a40691461011757806371062f6a14610147578063c83f3a79146101775761007b565b80630ae5e7391461007f5780631da0b8fc1461009b578063319aafc5146100cb575b5f80fd5b610099600480360381019061009491906109f3565b610193565b005b6100b560048036038101906100b091906109f3565b61022e565b6040516100c29190610a36565b60405180910390f35b6100e560048036038101906100e091906109f3565b610300565b6040516100f29190610a69565b60405180910390f35b61011560048036038101906101109190610be8565b61031d565b005b610131600480360381019061012c91906109f3565b6104c1565b60405161013e9190610a69565b60405180910390f35b610161600480360381019061015c91906109f3565b610513565b60405161016e9190610a69565b60405180910390f35b610191600480360381019061018c9190610c54565b610530565b005b600160025f8373ffffffffffffffffffffffffffffffffffffffff1673ffffffffffffffffffffffffffffffffffffffff1681526020019081526020015f205f6101000a81548160ff0219169083151502179055508073ffffffffffffffffffffffffffffffffffffffff167fc9e11c8d271053b41f88ce51c41d8a8905b38e440272e8670cf4e1798a84018160405160405180910390a250565b5f805f8373ffffffffffffffffffffffffffffffffffffffff1673ffffffffffffffffffffffffffffffffffffffff1681526020019081526020015f206001015f9054906101000a900460ff166102ba576040517f08c379a00000000000000000000000000000000000000000000000000000000081526004016102b190610d08565b60405180910390fd5b5f808373ffffffffffffffffffffffffffffffffffffffff1673ffffffffffffffffffffffffffffffffffffffff1681526020019081526020015f205f01549050919050565b6002602052805f5260405f205f915054906101000a900460ff1681565b60015f3373ffffffffffffffffffffffffffffffffffffffff1673ffffffffffffffffffffffffffffffffffffffff1681526020019081526020015f205f9054906101000a900460ff166103a6576040517f08c379a000000000000000000000000000000000000000000000000000000000815260040161039d90610d96565b60405180910390fd5b6103b183838361064a565b6103f0576040517f08c379a00000000000000000000000000000000000000000000000000000000081526004016103e790610dfe565b60405180910390fd5b6040518060400160405280838152602001600115158152505f808573ffffffffffffffffffffffffffffffffffffffff1673ffffffffffffffffffffffffffffffffffffffff1681526020019081526020015f205f820151815f01556020820151816001015f6101000a81548160ff0219169083151502179055509050508273ffffffffffffffffffffffffffffffffffffffff167f5f12b1b5d312005e87002673b7cba6a0260a3833860faf10a82ac9e5eb27ecbe836040516104b49190610a36565b60405180910390a2505050565b5f60025f8373ffffffffffffffffffffffffffffffffffffffff1673ffffffffffffffffffffffffffffffffffffffff1681526020019081526020015f205f9054906101000a900460ff169050919050565b6001602052805f5260405f205f915054906101000a900460ff1681565b61053b33838361064a565b61057a576040517f08c379a000000000000000000000000000000000000000000000000000000000815260040161057190610dfe565b60405180910390fd5b6040518060400160405280838152602001600115158152505f803373ffffffffffffffffffffffffffffffffffffffff1673ffffffffffffffffffffffffffffffffffffffff1681526020019081526020015f205f820151815f01556020820151816001015f6101000a81548160ff0219169083151502179055509050503373ffffffffffffffffffffffffffffffffffffffff167f7208cf187afe0ab072008f517860923b908309e019c6a39e32cd71eebb7252d18360405161063e9190610a36565b60405180910390a25050565b5f808360405160200161065d9190610e90565b6040516020818303038152906040528051906020012090508473ffffffffffffffffffffffffffffffffffffffff1661069f84836106c090919063ffffffff16565b73ffffffffffffffffffffffffffffffffffffffff16149150509392505050565b5f805f806106ce86866106ea565b9250925092506106de828261073f565b82935050505092915050565b5f805f604184510361072a575f805f602087015192506040870151915060608701515f1a905061071c888285856108a1565b955095509550505050610738565b5f600285515f1b9250925092505b9250925092565b5f600381111561075257610751610eb5565b5b82600381111561076557610764610eb5565b5b031561089d576001600381111561077f5761077e610eb5565b5b82600381111561079257610791610eb5565b5b036107c9576040517ff645eedf00000000000000000000000000000000000000000000000000000000815260040160405180910390fd5b600260038111156107dd576107dc610eb5565b5b8260038111156107f0576107ef610eb5565b5b0361083457805f1c6040517ffce698f700000000000000000000000000000000000000000000000000000000815260040161082b9190610efa565b60405180910390fd5b60038081111561084757610846610eb5565b5b82600381111561085a57610859610eb5565b5b0361089c57806040517fd78bce0c0000000000000000000000000000000000000000000000000000000081526004016108939190610a36565b60405180910390fd5b5b5050565b5f805f7f7fffffffffffffffffffffffffffffff5d576e7357a4501ddfe92f46681b20a0845f1c11156108dd575f60038592509250925061097e565b5f6001888888886040515f81526020016040526040516109009493929190610f2e565b6020604051602081039080840390855afa158015610920573d5f803e3d5ffd5b5050506020604051035190505f73ffffffffffffffffffffffffffffffffffffffff168173ffffffffffffffffffffffffffffffffffffffff1603610971575f60015f801b9350935093505061097e565b805f805f1b935093509350505b9450945094915050565b5f604051905090565b5f80fd5b5f80fd5b5f73ffffffffffffffffffffffffffffffffffffffff82169050919050565b5f6109c282610999565b9050919050565b6109d2816109b8565b81146109dc575f80fd5b50565b5f813590506109ed816109c9565b92915050565b5f60208284031215610a0857610a07610991565b5b5f610a15848285016109df565b91505092915050565b5f819050919050565b610a3081610a1e565b82525050565b5f602082019050610a495f830184610a27565b92915050565b5f8115159050919050565b610a6381610a4f565b82525050565b5f602082019050610a7c5f830184610a5a565b92915050565b610a8b81610a1e565b8114610a95575f80fd5b50565b5f81359050610aa681610a82565b92915050565b5f80fd5b5f80fd5b5f601f19601f8301169050919050565b7f4e487b71000000000000000000000000000000000000000000000000000000005f52604160045260245ffd5b610afa82610ab4565b810181811067ffffffffffffffff82111715610b1957610b18610ac4565b5b80604052505050565b5f610b2b610988565b9050610b378282610af1565b919050565b5f67ffffffffffffffff821115610b5657610b55610ac4565b5b610b5f82610ab4565b9050602081019050919050565b828183375f83830152505050565b5f610b8c610b8784610b3c565b610b22565b905082815260208101848484011115610ba857610ba7610ab0565b5b610bb3848285610b6c565b509392505050565b5f82601f830112610bcf57610bce610aac565b5b8135610bdf848260208601610b7a565b91505092915050565b5f805f60608486031215610bff57610bfe610991565b5b5f610c0c868287016109df565b9350506020610c1d86828701610a98565b925050604084013567ffffffffffffffff811115610c3e57610c3d610995565b5b610c4a86828701610bbb565b9150509250925092565b5f8060408385031215610c6a57610c69610991565b5b5f610c7785828601610a98565b925050602083013567ffffffffffffffff811115610c9857610c97610995565b5b610ca485828601610bbb565b9150509250929050565b5f82825260208201905092915050565b7f4e6f2076616363696e6174696f6e207265636f726420666f756e6400000000005f82015250565b5f610cf2601b83610cae565b9150610cfd82610cbe565b602082019050919050565b5f6020820190508181035f830152610d1f81610ce6565b9050919050565b7f4e6f7420616e20617574686f72697a6564206865616c7468636172652070726f5f8201527f7669646572000000000000000000000000000000000000000000000000000000602082015250565b5f610d80602583610cae565b9150610d8b82610d26565b604082019050919050565b5f6020820190508181035f830152610dad81610d74565b9050919050565b7f496e76616c6964207369676e61747572650000000000000000000000000000005f82015250565b5f610de8601183610cae565b9150610df382610db4565b602082019050919050565b5f6020820190508181035f830152610e1581610ddc565b9050919050565b5f81905092915050565b7f19457468657265756d205369676e6564204d6573736167653a0a3332000000005f82015250565b5f610e5a601c83610e1c565b9150610e6582610e26565b601c82019050919050565b5f819050919050565b610e8a610e8582610a1e565b610e70565b82525050565b5f610e9a82610e4e565b9150610ea68284610e79565b60208201915081905092915050565b7f4e487b71000000000000000000000000000000000000000000000000000000005f52602160045260245ffd5b5f819050919050565b610ef481610ee2565b82525050565b5f602082019050610f0d5f830184610eeb565b92915050565b5f60ff82169050919050565b610f2881610f13565b82525050565b5f608082019050610f415f830187610a27565b610f4e6020830186610f1f565b610f5b6040830185610a27565b610f686060830184610a27565b9594505050505056fea26469706673582212207fd516c3fc997e96273bfc7f653ab0526affa9ae7d96260542ee9cb80e23b75764736f6c634300081a0033",
					"opcodes": "PUSH1 0x80 PUSH1 0x40 MSTORE CALLVALUE DUP1 ISZERO PUSH1 0xE JUMPI PUSH0 DUP1 REVERT JUMPDEST POP PUSH2 0xFA7 DUP1 PUSH2 0x1C PUSH0 CODECOPY PUSH0 RETURN INVALID PUSH1 0x80 PUSH1 0x40 MSTORE CALLVALUE DUP1 ISZERO PUSH2 0xF JUMPI PUSH0 DUP1 REVERT JUMPDEST POP PUSH1 0x4 CALLDATASIZE LT PUSH2 0x7B JUMPI PUSH0 CALLDATALOAD PUSH1 0xE0 SHR DUP1 PUSH4 0x33DC55B4 GT PUSH2 0x59 JUMPI DUP1 PUSH4 0x33DC55B4 EQ PUSH2 0xFB JUMPI DUP1 PUSH4 0x5D2A4069 EQ PUSH2 0x117 JUMPI DUP1 PUSH4 0x71062F6A EQ PUSH2 0x147 JUMPI DUP1 PUSH4 0xC83F3A79 EQ PUSH2 0x177 JUMPI PUSH2 0x7B JUMP JUMPDEST DUP1 PUSH4 0xAE5E739 EQ PUSH2 0x7F JUMPI DUP1 PUSH4 0x1DA0B8FC EQ PUSH2 0x9B JUMPI DUP1 PUSH4 0x319AAFC5 EQ PUSH2 0xCB JUMPI JUMPDEST PUSH0 DUP1 REVERT JUMPDEST PUSH2 0x99 PUSH1 0x4 DUP1 CALLDATASIZE SUB DUP2 ADD SWAP1 PUSH2 0x94 SWAP2 SWAP1 PUSH2 0x9F3 JUMP JUMPDEST PUSH2 0x193 JUMP JUMPDEST STOP JUMPDEST PUSH2 0xB5 PUSH1 0x4 DUP1 CALLDATASIZE SUB DUP2 ADD SWAP1 PUSH2 0xB0 SWAP2 SWAP1 PUSH2 0x9F3 JUMP JUMPDEST PUSH2 0x22E JUMP JUMPDEST PUSH1 0x40 MLOAD PUSH2 0xC2 SWAP2 SWAP1 PUSH2 0xA36 JUMP JUMPDEST PUSH1 0x40 MLOAD DUP1 SWAP2 SUB SWAP1 RETURN JUMPDEST PUSH2 0xE5 PUSH1 0x4 DUP1 CALLDATASIZE SUB DUP2 ADD SWAP1 PUSH2 0xE0 SWAP2 SWAP1 PUSH2 0x9F3 JUMP JUMPDEST PUSH2 0x300 JUMP JUMPDEST PUSH1 0x40 MLOAD PUSH2 0xF2 SWAP2 SWAP1 PUSH2 0xA69 JUMP JUMPDEST PUSH1 0x40 MLOAD DUP1 SWAP2 SUB SWAP1 RETURN JUMPDEST PUSH2 0x115 PUSH1 0x4 DUP1 CALLDATASIZE SUB DUP2 ADD SWAP1 PUSH2 0x110 SWAP2 SWAP1 PUSH2 0xBE8 JUMP JUMPDEST PUSH2 0x31D JUMP JUMPDEST STOP JUMPDEST PUSH2 0x131 PUSH1 0x4 DUP1 CALLDATASIZE SUB DUP2 ADD SWAP1 PUSH2 0x12C SWAP2 SWAP1 PUSH2 0x9F3 JUMP JUMPDEST PUSH2 0x4C1 JUMP JUMPDEST PUSH1 0x40 MLOAD PUSH2 0x13E SWAP2 SWAP1 PUSH2 0xA69 JUMP JUMPDEST PUSH1 0x40 MLOAD DUP1 SWAP2 SUB SWAP1 RETURN JUMPDEST PUSH2 0x161 PUSH1 0x4 DUP1 CALLDATASIZE SUB DUP2 ADD SWAP1 PUSH2 0x15C SWAP2 SWAP1 PUSH2 0x9F3 JUMP JUMPDEST PUSH2 0x513 JUMP JUMPDEST PUSH1 0x40 MLOAD PUSH2 0x16E SWAP2 SWAP1 PUSH2 0xA69 JUMP JUMPDEST PUSH1 0x40 MLOAD DUP1 SWAP2 SUB SWAP1 RETURN JUMPDEST PUSH2 0x191 PUSH1 0x4 DUP1 CALLDATASIZE SUB DUP2 ADD SWAP1 PUSH2 0x18C SWAP2 SWAP1 PUSH2 0xC54 JUMP JUMPDEST PUSH2 0x530 JUMP JUMPDEST STOP JUMPDEST PUSH1 0x1 PUSH1 0x2 PUSH0 DUP4 PUSH20 0xFFFFFFFFFFFFFFFFFFFFFFFFFFFFFFFFFFFFFFFF AND PUSH20 0xFFFFFFFFFFFFFFFFFFFFFFFFFFFFFFFFFFFFFFFF AND DUP2 MSTORE PUSH1 0x20 ADD SWAP1 DUP2 MSTORE PUSH1 0x20 ADD PUSH0 KECCAK256 PUSH0 PUSH2 0x100 EXP DUP2 SLOAD DUP2 PUSH1 0xFF MUL NOT AND SWAP1 DUP4 ISZERO ISZERO MUL OR SWAP1 SSTORE POP DUP1 PUSH20 0xFFFFFFFFFFFFFFFFFFFFFFFFFFFFFFFFFFFFFFFF AND PUSH32 0xC9E11C8D271053B41F88CE51C41D8A8905B38E440272E8670CF4E1798A840181 PUSH1 0x40 MLOAD PUSH1 0x40 MLOAD DUP1 SWAP2 SUB SWAP1 LOG2 POP JUMP JUMPDEST PUSH0 DUP1 PUSH0 DUP4 PUSH20 0xFFFFFFFFFFFFFFFFFFFFFFFFFFFFFFFFFFFFFFFF AND PUSH20 0xFFFFFFFFFFFFFFFFFFFFFFFFFFFFFFFFFFFFFFFF AND DUP2 MSTORE PUSH1 0x20 ADD SWAP1 DUP2 MSTORE PUSH1 0x20 ADD PUSH0 KECCAK256 PUSH1 0x1 ADD PUSH0 SWAP1 SLOAD SWAP1 PUSH2 0x100 EXP SWAP1 DIV PUSH1 0xFF AND PUSH2 0x2BA JUMPI PUSH1 0x40 MLOAD PUSH32 0x8C379A000000000000000000000000000000000000000000000000000000000 DUP2 MSTORE PUSH1 0x4 ADD PUSH2 0x2B1 SWAP1 PUSH2 0xD08 JUMP JUMPDEST PUSH1 0x40 MLOAD DUP1 SWAP2 SUB SWAP1 REVERT JUMPDEST PUSH0 DUP1 DUP4 PUSH20 0xFFFFFFFFFFFFFFFFFFFFFFFFFFFFFFFFFFFFFFFF AND PUSH20 0xFFFFFFFFFFFFFFFFFFFFFFFFFFFFFFFFFFFFFFFF AND DUP2 MSTORE PUSH1 0x20 ADD SWAP1 DUP2 MSTORE PUSH1 0x20 ADD PUSH0 KECCAK256 PUSH0 ADD SLOAD SWAP1 POP SWAP2 SWAP1 POP JUMP JUMPDEST PUSH1 0x2 PUSH1 0x20 MSTORE DUP1 PUSH0 MSTORE PUSH1 0x40 PUSH0 KECCAK256 PUSH0 SWAP2 POP SLOAD SWAP1 PUSH2 0x100 EXP SWAP1 DIV PUSH1 0xFF AND DUP2 JUMP JUMPDEST PUSH1 0x1 PUSH0 CALLER PUSH20 0xFFFFFFFFFFFFFFFFFFFFFFFFFFFFFFFFFFFFFFFF AND PUSH20 0xFFFFFFFFFFFFFFFFFFFFFFFFFFFFFFFFFFFFFFFF AND DUP2 MSTORE PUSH1 0x20 ADD SWAP1 DUP2 MSTORE PUSH1 0x20 ADD PUSH0 KECCAK256 PUSH0 SWAP1 SLOAD SWAP1 PUSH2 0x100 EXP SWAP1 DIV PUSH1 0xFF AND PUSH2 0x3A6 JUMPI PUSH1 0x40 MLOAD PUSH32 0x8C379A000000000000000000000000000000000000000000000000000000000 DUP2 MSTORE PUSH1 0x4 ADD PUSH2 0x39D SWAP1 PUSH2 0xD96 JUMP JUMPDEST PUSH1 0x40 MLOAD DUP1 SWAP2 SUB SWAP1 REVERT JUMPDEST PUSH2 0x3B1 DUP4 DUP4 DUP4 PUSH2 0x64A JUMP JUMPDEST PUSH2 0x3F0 JUMPI PUSH1 0x40 MLOAD PUSH32 0x8C379A000000000000000000000000000000000000000000000000000000000 DUP2 MSTORE PUSH1 0x4 ADD PUSH2 0x3E7 SWAP1 PUSH2 0xDFE JUMP JUMPDEST PUSH1 0x40 MLOAD DUP1 SWAP2 SUB SWAP1 REVERT JUMPDEST PUSH1 0x40 MLOAD DUP1 PUSH1 0x40 ADD PUSH1 0x40 MSTORE DUP1 DUP4 DUP2 MSTORE PUSH1 0x20 ADD PUSH1 0x1 ISZERO ISZERO DUP2 MSTORE POP PUSH0 DUP1 DUP6 PUSH20 0xFFFFFFFFFFFFFFFFFFFFFFFFFFFFFFFFFFFFFFFF AND PUSH20 0xFFFFFFFFFFFFFFFFFFFFFFFFFFFFFFFFFFFFFFFF AND DUP2 MSTORE PUSH1 0x20 ADD SWAP1 DUP2 MSTORE PUSH1 0x20 ADD PUSH0 KECCAK256 PUSH0 DUP3 ADD MLOAD DUP2 PUSH0 ADD SSTORE PUSH1 0x20 DUP3 ADD MLOAD DUP2 PUSH1 0x1 ADD PUSH0 PUSH2 0x100 EXP DUP2 SLOAD DUP2 PUSH1 0xFF MUL NOT AND SWAP1 DUP4 ISZERO ISZERO MUL OR SWAP1 SSTORE POP SWAP1 POP POP DUP3 PUSH20 0xFFFFFFFFFFFFFFFFFFFFFFFFFFFFFFFFFFFFFFFF AND PUSH32 0x5F12B1B5D312005E87002673B7CBA6A0260A3833860FAF10A82AC9E5EB27ECBE DUP4 PUSH1 0x40 MLOAD PUSH2 0x4B4 SWAP2 SWAP1 PUSH2 0xA36 JUMP JUMPDEST PUSH1 0x40 MLOAD DUP1 SWAP2 SUB SWAP1 LOG2 POP POP POP JUMP JUMPDEST PUSH0 PUSH1 0x2 PUSH0 DUP4 PUSH20 0xFFFFFFFFFFFFFFFFFFFFFFFFFFFFFFFFFFFFFFFF AND PUSH20 0xFFFFFFFFFFFFFFFFFFFFFFFFFFFFFFFFFFFFFFFF AND DUP2 MSTORE PUSH1 0x20 ADD SWAP1 DUP2 MSTORE PUSH1 0x20 ADD PUSH0 KECCAK256 PUSH0 SWAP1 SLOAD SWAP1 PUSH2 0x100 EXP SWAP1 DIV PUSH1 0xFF AND SWAP1 POP SWAP2 SWAP1 POP JUMP JUMPDEST PUSH1 0x1 PUSH1 0x20 MSTORE DUP1 PUSH0 MSTORE PUSH1 0x40 PUSH0 KECCAK256 PUSH0 SWAP2 POP SLOAD SWAP1 PUSH2 0x100 EXP SWAP1 DIV PUSH1 0xFF AND DUP2 JUMP JUMPDEST PUSH2 0x53B CALLER DUP4 DUP4 PUSH2 0x64A JUMP JUMPDEST PUSH2 0x57A JUMPI PUSH1 0x40 MLOAD PUSH32 0x8C379A000000000000000000000000000000000000000000000000000000000 DUP2 MSTORE PUSH1 0x4 ADD PUSH2 0x571 SWAP1 PUSH2 0xDFE JUMP JUMPDEST PUSH1 0x40 MLOAD DUP1 SWAP2 SUB SWAP1 REVERT JUMPDEST PUSH1 0x40 MLOAD DUP1 PUSH1 0x40 ADD PUSH1 0x40 MSTORE DUP1 DUP4 DUP2 MSTORE PUSH1 0x20 ADD PUSH1 0x1 ISZERO ISZERO DUP2 MSTORE POP PUSH0 DUP1 CALLER PUSH20 0xFFFFFFFFFFFFFFFFFFFFFFFFFFFFFFFFFFFFFFFF AND PUSH20 0xFFFFFFFFFFFFFFFFFFFFFFFFFFFFFFFFFFFFFFFF AND DUP2 MSTORE PUSH1 0x20 ADD SWAP1 DUP2 MSTORE PUSH1 0x20 ADD PUSH0 KECCAK256 PUSH0 DUP3 ADD MLOAD DUP2 PUSH0 ADD SSTORE PUSH1 0x20 DUP3 ADD MLOAD DUP2 PUSH1 0x1 ADD PUSH0 PUSH2 0x100 EXP DUP2 SLOAD DUP2 PUSH1 0xFF MUL NOT AND SWAP1 DUP4 ISZERO ISZERO MUL OR SWAP1 SSTORE POP SWAP1 POP POP CALLER PUSH20 0xFFFFFFFFFFFFFFFFFFFFFFFFFFFFFFFFFFFFFFFF AND PUSH32 0x7208CF187AFE0AB072008F517860923B908309E019C6A39E32CD71EEBB7252D1 DUP4 PUSH1 0x40 MLOAD PUSH2 0x63E SWAP2 SWAP1 PUSH2 0xA36 JUMP JUMPDEST PUSH1 0x40 MLOAD DUP1 SWAP2 SUB SWAP1 LOG2 POP POP JUMP JUMPDEST PUSH0 DUP1 DUP4 PUSH1 0x40 MLOAD PUSH1 0x20 ADD PUSH2 0x65D SWAP2 SWAP1 PUSH2 0xE90 JUMP JUMPDEST PUSH1 0x40 MLOAD PUSH1 0x20 DUP2 DUP4 SUB SUB DUP2 MSTORE SWAP1 PUSH1 0x40 MSTORE DUP1 MLOAD SWAP1 PUSH1 0x20 ADD KECCAK256 SWAP1 POP DUP5 PUSH20 0xFFFFFFFFFFFFFFFFFFFFFFFFFFFFFFFFFFFFFFFF AND PUSH2 0x69F DUP5 DUP4 PUSH2 0x6C0 SWAP1 SWAP2 SWAP1 PUSH4 0xFFFFFFFF AND JUMP JUMPDEST PUSH20 0xFFFFFFFFFFFFFFFFFFFFFFFFFFFFFFFFFFFFFFFF AND EQ SWAP2 POP POP SWAP4 SWAP3 POP POP POP JUMP JUMPDEST PUSH0 DUP1 PUSH0 DUP1 PUSH2 0x6CE DUP7 DUP7 PUSH2 0x6EA JUMP JUMPDEST SWAP3 POP SWAP3 POP SWAP3 POP PUSH2 0x6DE DUP3 DUP3 PUSH2 0x73F JUMP JUMPDEST DUP3 SWAP4 POP POP POP POP SWAP3 SWAP2 POP POP JUMP JUMPDEST PUSH0 DUP1 PUSH0 PUSH1 0x41 DUP5 MLOAD SUB PUSH2 0x72A JUMPI PUSH0 DUP1 PUSH0 PUSH1 0x20 DUP8 ADD MLOAD SWAP3 POP PUSH1 0x40 DUP8 ADD MLOAD SWAP2 POP PUSH1 0x60 DUP8 ADD MLOAD PUSH0 BYTE SWAP1 POP PUSH2 0x71C DUP9 DUP3 DUP6 DUP6 PUSH2 0x8A1 JUMP JUMPDEST SWAP6 POP SWAP6 POP SWAP6 POP POP POP POP PUSH2 0x738 JUMP JUMPDEST PUSH0 PUSH1 0x2 DUP6 MLOAD PUSH0 SHL SWAP3 POP SWAP3 POP SWAP3 POP JUMPDEST SWAP3 POP SWAP3 POP SWAP3 JUMP JUMPDEST PUSH0 PUSH1 0x3 DUP2 GT ISZERO PUSH2 0x752 JUMPI PUSH2 0x751 PUSH2 0xEB5 JUMP JUMPDEST JUMPDEST DUP3 PUSH1 0x3 DUP2 GT ISZERO PUSH2 0x765 JUMPI PUSH2 0x764 PUSH2 0xEB5 JUMP JUMPDEST JUMPDEST SUB ISZERO PUSH2 0x89D JUMPI PUSH1 0x1 PUSH1 0x3 DUP2 GT ISZERO PUSH2 0x77F JUMPI PUSH2 0x77E PUSH2 0xEB5 JUMP JUMPDEST JUMPDEST DUP3 PUSH1 0x3 DUP2 GT ISZERO PUSH2 0x792 JUMPI PUSH2 0x791 PUSH2 0xEB5 JUMP JUMPDEST JUMPDEST SUB PUSH2 0x7C9 JUMPI PUSH1 0x40 MLOAD PUSH32 0xF645EEDF00000000000000000000000000000000000000000000000000000000 DUP2 MSTORE PUSH1 0x4 ADD PUSH1 0x40 MLOAD DUP1 SWAP2 SUB SWAP1 REVERT JUMPDEST PUSH1 0x2 PUSH1 0x3 DUP2 GT ISZERO PUSH2 0x7DD JUMPI PUSH2 0x7DC PUSH2 0xEB5 JUMP JUMPDEST JUMPDEST DUP3 PUSH1 0x3 DUP2 GT ISZERO PUSH2 0x7F0 JUMPI PUSH2 0x7EF PUSH2 0xEB5 JUMP JUMPDEST JUMPDEST SUB PUSH2 0x834 JUMPI DUP1 PUSH0 SHR PUSH1 0x40 MLOAD PUSH32 0xFCE698F700000000000000000000000000000000000000000000000000000000 DUP2 MSTORE PUSH1 0x4 ADD PUSH2 0x82B SWAP2 SWAP1 PUSH2 0xEFA JUMP JUMPDEST PUSH1 0x40 MLOAD DUP1 SWAP2 SUB SWAP1 REVERT JUMPDEST PUSH1 0x3 DUP1 DUP2 GT ISZERO PUSH2 0x847 JUMPI PUSH2 0x846 PUSH2 0xEB5 JUMP JUMPDEST JUMPDEST DUP3 PUSH1 0x3 DUP2 GT ISZERO PUSH2 0x85A JUMPI PUSH2 0x859 PUSH2 0xEB5 JUMP JUMPDEST JUMPDEST SUB PUSH2 0x89C JUMPI DUP1 PUSH1 0x40 MLOAD PUSH32 0xD78BCE0C00000000000000000000000000000000000000000000000000000000 DUP2 MSTORE PUSH1 0x4 ADD PUSH2 0x893 SWAP2 SWAP1 PUSH2 0xA36 JUMP JUMPDEST PUSH1 0x40 MLOAD DUP1 SWAP2 SUB SWAP1 REVERT JUMPDEST JUMPDEST POP POP JUMP JUMPDEST PUSH0 DUP1 PUSH0 PUSH32 0x7FFFFFFFFFFFFFFFFFFFFFFFFFFFFFFF5D576E7357A4501DDFE92F46681B20A0 DUP5 PUSH0 SHR GT ISZERO PUSH2 0x8DD JUMPI PUSH0 PUSH1 0x3 DUP6 SWAP3 POP SWAP3 POP SWAP3 POP PUSH2 0x97E JUMP JUMPDEST PUSH0 PUSH1 0x1 DUP9 DUP9 DUP9 DUP9 PUSH1 0x40 MLOAD PUSH0 DUP2 MSTORE PUSH1 0x20 ADD PUSH1 0x40 MSTORE PUSH1 0x40 MLOAD PUSH2 0x900 SWAP5 SWAP4 SWAP3 SWAP2 SWAP1 PUSH2 0xF2E JUMP JUMPDEST PUSH1 0x20 PUSH1 0x40 MLOAD PUSH1 0x20 DUP2 SUB SWAP1 DUP1 DUP5 SUB SWAP1 DUP6 GAS STATICCALL ISZERO DUP1 ISZERO PUSH2 0x920 JUMPI RETURNDATASIZE PUSH0 DUP1 RETURNDATACOPY RETURNDATASIZE PUSH0 REVERT JUMPDEST POP POP POP PUSH1 0x20 PUSH1 0x40 MLOAD SUB MLOAD SWAP1 POP PUSH0 PUSH20 0xFFFFFFFFFFFFFFFFFFFFFFFFFFFFFFFFFFFFFFFF AND DUP2 PUSH20 0xFFFFFFFFFFFFFFFFFFFFFFFFFFFFFFFFFFFFFFFF AND SUB PUSH2 0x971 JUMPI PUSH0 PUSH1 0x1 PUSH0 DUP1 SHL SWAP4 POP SWAP4 POP SWAP4 POP POP PUSH2 0x97E JUMP JUMPDEST DUP1 PUSH0 DUP1 PUSH0 SHL SWAP4 POP SWAP4 POP SWAP4 POP POP JUMPDEST SWAP5 POP SWAP5 POP SWAP5 SWAP2 POP POP JUMP JUMPDEST PUSH0 PUSH1 0x40 MLOAD SWAP1 POP SWAP1 JUMP JUMPDEST PUSH0 DUP1 REVERT JUMPDEST PUSH0 DUP1 REVERT JUMPDEST PUSH0 PUSH20 0xFFFFFFFFFFFFFFFFFFFFFFFFFFFFFFFFFFFFFFFF DUP3 AND SWAP1 POP SWAP2 SWAP1 POP JUMP JUMPDEST PUSH0 PUSH2 0x9C2 DUP3 PUSH2 0x999 JUMP JUMPDEST SWAP1 POP SWAP2 SWAP1 POP JUMP JUMPDEST PUSH2 0x9D2 DUP2 PUSH2 0x9B8 JUMP JUMPDEST DUP2 EQ PUSH2 0x9DC JUMPI PUSH0 DUP1 REVERT JUMPDEST POP JUMP JUMPDEST PUSH0 DUP2 CALLDATALOAD SWAP1 POP PUSH2 0x9ED DUP2 PUSH2 0x9C9 JUMP JUMPDEST SWAP3 SWAP2 POP POP JUMP JUMPDEST PUSH0 PUSH1 0x20 DUP3 DUP5 SUB SLT ISZERO PUSH2 0xA08 JUMPI PUSH2 0xA07 PUSH2 0x991 JUMP JUMPDEST JUMPDEST PUSH0 PUSH2 0xA15 DUP5 DUP3 DUP6 ADD PUSH2 0x9DF JUMP JUMPDEST SWAP2 POP POP SWAP3 SWAP2 POP POP JUMP JUMPDEST PUSH0 DUP2 SWAP1 POP SWAP2 SWAP1 POP JUMP JUMPDEST PUSH2 0xA30 DUP2 PUSH2 0xA1E JUMP JUMPDEST DUP3 MSTORE POP POP JUMP JUMPDEST PUSH0 PUSH1 0x20 DUP3 ADD SWAP1 POP PUSH2 0xA49 PUSH0 DUP4 ADD DUP5 PUSH2 0xA27 JUMP JUMPDEST SWAP3 SWAP2 POP POP JUMP JUMPDEST PUSH0 DUP2 ISZERO ISZERO SWAP1 POP SWAP2 SWAP1 POP JUMP JUMPDEST PUSH2 0xA63 DUP2 PUSH2 0xA4F JUMP JUMPDEST DUP3 MSTORE POP POP JUMP JUMPDEST PUSH0 PUSH1 0x20 DUP3 ADD SWAP1 POP PUSH2 0xA7C PUSH0 DUP4 ADD DUP5 PUSH2 0xA5A JUMP JUMPDEST SWAP3 SWAP2 POP POP JUMP JUMPDEST PUSH2 0xA8B DUP2 PUSH2 0xA1E JUMP JUMPDEST DUP2 EQ PUSH2 0xA95 JUMPI PUSH0 DUP1 REVERT JUMPDEST POP JUMP JUMPDEST PUSH0 DUP2 CALLDATALOAD SWAP1 POP PUSH2 0xAA6 DUP2 PUSH2 0xA82 JUMP JUMPDEST SWAP3 SWAP2 POP POP JUMP JUMPDEST PUSH0 DUP1 REVERT JUMPDEST PUSH0 DUP1 REVERT JUMPDEST PUSH0 PUSH1 0x1F NOT PUSH1 0x1F DUP4 ADD AND SWAP1 POP SWAP2 SWAP1 POP JUMP JUMPDEST PUSH32 0x4E487B7100000000000000000000000000000000000000000000000000000000 PUSH0 MSTORE PUSH1 0x41 PUSH1 0x4 MSTORE PUSH1 0x24 PUSH0 REVERT JUMPDEST PUSH2 0xAFA DUP3 PUSH2 0xAB4 JUMP JUMPDEST DUP2 ADD DUP2 DUP2 LT PUSH8 0xFFFFFFFFFFFFFFFF DUP3 GT OR ISZERO PUSH2 0xB19 JUMPI PUSH2 0xB18 PUSH2 0xAC4 JUMP JUMPDEST JUMPDEST DUP1 PUSH1 0x40 MSTORE POP POP POP JUMP JUMPDEST PUSH0 PUSH2 0xB2B PUSH2 0x988 JUMP JUMPDEST SWAP1 POP PUSH2 0xB37 DUP3 DUP3 PUSH2 0xAF1 JUMP JUMPDEST SWAP2 SWAP1 POP JUMP JUMPDEST PUSH0 PUSH8 0xFFFFFFFFFFFFFFFF DUP3 GT ISZERO PUSH2 0xB56 JUMPI PUSH2 0xB55 PUSH2 0xAC4 JUMP JUMPDEST JUMPDEST PUSH2 0xB5F DUP3 PUSH2 0xAB4 JUMP JUMPDEST SWAP1 POP PUSH1 0x20 DUP2 ADD SWAP1 POP SWAP2 SWAP1 POP JUMP JUMPDEST DUP3 DUP2 DUP4 CALLDATACOPY PUSH0 DUP4 DUP4 ADD MSTORE POP POP POP JUMP JUMPDEST PUSH0 PUSH2 0xB8C PUSH2 0xB87 DUP5 PUSH2 0xB3C JUMP JUMPDEST PUSH2 0xB22 JUMP JUMPDEST SWAP1 POP DUP3 DUP2 MSTORE PUSH1 0x20 DUP2 ADD DUP5 DUP5 DUP5 ADD GT ISZERO PUSH2 0xBA8 JUMPI PUSH2 0xBA7 PUSH2 0xAB0 JUMP JUMPDEST JUMPDEST PUSH2 0xBB3 DUP5 DUP3 DUP6 PUSH2 0xB6C JUMP JUMPDEST POP SWAP4 SWAP3 POP POP POP JUMP JUMPDEST PUSH0 DUP3 PUSH1 0x1F DUP4 ADD SLT PUSH2 0xBCF JUMPI PUSH2 0xBCE PUSH2 0xAAC JUMP JUMPDEST JUMPDEST DUP2 CALLDATALOAD PUSH2 0xBDF DUP5 DUP3 PUSH1 0x20 DUP7 ADD PUSH2 0xB7A JUMP JUMPDEST SWAP2 POP POP SWAP3 SWAP2 POP POP JUMP JUMPDEST PUSH0 DUP1 PUSH0 PUSH1 0x60 DUP5 DUP7 SUB SLT ISZERO PUSH2 0xBFF JUMPI PUSH2 0xBFE PUSH2 0x991 JUMP JUMPDEST JUMPDEST PUSH0 PUSH2 0xC0C DUP7 DUP3 DUP8 ADD PUSH2 0x9DF JUMP JUMPDEST SWAP4 POP POP PUSH1 0x20 PUSH2 0xC1D DUP7 DUP3 DUP8 ADD PUSH2 0xA98 JUMP JUMPDEST SWAP3 POP POP PUSH1 0x40 DUP5 ADD CALLDATALOAD PUSH8 0xFFFFFFFFFFFFFFFF DUP2 GT ISZERO PUSH2 0xC3E JUMPI PUSH2 0xC3D PUSH2 0x995 JUMP JUMPDEST JUMPDEST PUSH2 0xC4A DUP7 DUP3 DUP8 ADD PUSH2 0xBBB JUMP JUMPDEST SWAP2 POP POP SWAP3 POP SWAP3 POP SWAP3 JUMP JUMPDEST PUSH0 DUP1 PUSH1 0x40 DUP4 DUP6 SUB SLT ISZERO PUSH2 0xC6A JUMPI PUSH2 0xC69 PUSH2 0x991 JUMP JUMPDEST JUMPDEST PUSH0 PUSH2 0xC77 DUP6 DUP3 DUP7 ADD PUSH2 0xA98 JUMP JUMPDEST SWAP3 POP POP PUSH1 0x20 DUP4 ADD CALLDATALOAD PUSH8 0xFFFFFFFFFFFFFFFF DUP2 GT ISZERO PUSH2 0xC98 JUMPI PUSH2 0xC97 PUSH2 0x995 JUMP JUMPDEST JUMPDEST PUSH2 0xCA4 DUP6 DUP3 DUP7 ADD PUSH2 0xBBB JUMP JUMPDEST SWAP2 POP POP SWAP3 POP SWAP3 SWAP1 POP JUMP JUMPDEST PUSH0 DUP3 DUP3 MSTORE PUSH1 0x20 DUP3 ADD SWAP1 POP SWAP3 SWAP2 POP POP JUMP JUMPDEST PUSH32 0x4E6F2076616363696E6174696F6E207265636F726420666F756E640000000000 PUSH0 DUP3 ADD MSTORE POP JUMP JUMPDEST PUSH0 PUSH2 0xCF2 PUSH1 0x1B DUP4 PUSH2 0xCAE JUMP JUMPDEST SWAP2 POP PUSH2 0xCFD DUP3 PUSH2 0xCBE JUMP JUMPDEST PUSH1 0x20 DUP3 ADD SWAP1 POP SWAP2 SWAP1 POP JUMP JUMPDEST PUSH0 PUSH1 0x20 DUP3 ADD SWAP1 POP DUP2 DUP2 SUB PUSH0 DUP4 ADD MSTORE PUSH2 0xD1F DUP2 PUSH2 0xCE6 JUMP JUMPDEST SWAP1 POP SWAP2 SWAP1 POP JUMP JUMPDEST PUSH32 0x4E6F7420616E20617574686F72697A6564206865616C7468636172652070726F PUSH0 DUP3 ADD MSTORE PUSH32 0x7669646572000000000000000000000000000000000000000000000000000000 PUSH1 0x20 DUP3 ADD MSTORE POP JUMP JUMPDEST PUSH0 PUSH2 0xD80 PUSH1 0x25 DUP4 PUSH2 0xCAE JUMP JUMPDEST SWAP2 POP PUSH2 0xD8B DUP3 PUSH2 0xD26 JUMP JUMPDEST PUSH1 0x40 DUP3 ADD SWAP1 POP SWAP2 SWAP1 POP JUMP JUMPDEST PUSH0 PUSH1 0x20 DUP3 ADD SWAP1 POP DUP2 DUP2 SUB PUSH0 DUP4 ADD MSTORE PUSH2 0xDAD DUP2 PUSH2 0xD74 JUMP JUMPDEST SWAP1 POP SWAP2 SWAP1 POP JUMP JUMPDEST PUSH32 0x496E76616C6964207369676E6174757265000000000000000000000000000000 PUSH0 DUP3 ADD MSTORE POP JUMP JUMPDEST PUSH0 PUSH2 0xDE8 PUSH1 0x11 DUP4 PUSH2 0xCAE JUMP JUMPDEST SWAP2 POP PUSH2 0xDF3 DUP3 PUSH2 0xDB4 JUMP JUMPDEST PUSH1 0x20 DUP3 ADD SWAP1 POP SWAP2 SWAP1 POP JUMP JUMPDEST PUSH0 PUSH1 0x20 DUP3 ADD SWAP1 POP DUP2 DUP2 SUB PUSH0 DUP4 ADD MSTORE PUSH2 0xE15 DUP2 PUSH2 0xDDC JUMP JUMPDEST SWAP1 POP SWAP2 SWAP1 POP JUMP JUMPDEST PUSH0 DUP2 SWAP1 POP SWAP3 SWAP2 POP POP JUMP JUMPDEST PUSH32 0x19457468657265756D205369676E6564204D6573736167653A0A333200000000 PUSH0 DUP3 ADD MSTORE POP JUMP JUMPDEST PUSH0 PUSH2 0xE5A PUSH1 0x1C DUP4 PUSH2 0xE1C JUMP JUMPDEST SWAP2 POP PUSH2 0xE65 DUP3 PUSH2 0xE26 JUMP JUMPDEST PUSH1 0x1C DUP3 ADD SWAP1 POP SWAP2 SWAP1 POP JUMP JUMPDEST PUSH0 DUP2 SWAP1 POP SWAP2 SWAP1 POP JUMP JUMPDEST PUSH2 0xE8A PUSH2 0xE85 DUP3 PUSH2 0xA1E JUMP JUMPDEST PUSH2 0xE70 JUMP JUMPDEST DUP3 MSTORE POP POP JUMP JUMPDEST PUSH0 PUSH2 0xE9A DUP3 PUSH2 0xE4E JUMP JUMPDEST SWAP2 POP PUSH2 0xEA6 DUP3 DUP5 PUSH2 0xE79 JUMP JUMPDEST PUSH1 0x20 DUP3 ADD SWAP2 POP DUP2 SWAP1 POP SWAP3 SWAP2 POP POP JUMP JUMPDEST PUSH32 0x4E487B7100000000000000000000000000000000000000000000000000000000 PUSH0 MSTORE PUSH1 0x21 PUSH1 0x4 MSTORE PUSH1 0x24 PUSH0 REVERT JUMPDEST PUSH0 DUP2 SWAP1 POP SWAP2 SWAP1 POP JUMP JUMPDEST PUSH2 0xEF4 DUP2 PUSH2 0xEE2 JUMP JUMPDEST DUP3 MSTORE POP POP JUMP JUMPDEST PUSH0 PUSH1 0x20 DUP3 ADD SWAP1 POP PUSH2 0xF0D PUSH0 DUP4 ADD DUP5 PUSH2 0xEEB JUMP JUMPDEST SWAP3 SWAP2 POP POP JUMP JUMPDEST PUSH0 PUSH1 0xFF DUP3 AND SWAP1 POP SWAP2 SWAP1 POP JUMP JUMPDEST PUSH2 0xF28 DUP2 PUSH2 0xF13 JUMP JUMPDEST DUP3 MSTORE POP POP JUMP JUMPDEST PUSH0 PUSH1 0x80 DUP3 ADD SWAP1 POP PUSH2 0xF41 PUSH0 DUP4 ADD DUP8 PUSH2 0xA27 JUMP JUMPDEST PUSH2 0xF4E PUSH1 0x20 DUP4 ADD DUP7 PUSH2 0xF1F JUMP JUMPDEST PUSH2 0xF5B PUSH1 0x40 DUP4 ADD DUP6 PUSH2 0xA27 JUMP JUMPDEST PUSH2 0xF68 PUSH1 0x60 DUP4 ADD DUP5 PUSH2 0xA27 JUMP JUMPDEST SWAP6 SWAP5 POP POP POP POP POP JUMP INVALID LOG2 PUSH5 0x6970667358 0x22 SLT KECCAK256 PUSH32 0xD516C3FC997E96273BFC7F653AB0526AFFA9AE7D96260542EE9CB80E23B75764 PUSH20 0x6F6C634300081A00330000000000000000000000 "
				},
				"gasEstimates": {
					"creation": {
						"codeDepositCost": "801400",
						"executionCost": "836",
						"totalCost": "802236"
					},
					"external": {
						"authorizedHealthcareProviders(address)": "2877",
						"authorizedResearchers(address)": "2878",
						"getHash(address)": "5103",
						"grantAccess(address)": "25965",
						"isResearcherAuthorized(address)": "2892",
						"storeHash(bytes32,bytes)": "infinite",
						"updateRecord(address,bytes32,bytes)": "infinite"
					},
					"internal": {
						"verifySignature(address,bytes32,bytes memory)": "infinite"
					}
				},
				"methodIdentifiers": {
					"authorizedHealthcareProviders(address)": "71062f6a",
					"authorizedResearchers(address)": "319aafc5",
					"getHash(address)": "1da0b8fc",
					"grantAccess(address)": "0ae5e739",
					"isResearcherAuthorized(address)": "5d2a4069",
					"storeHash(bytes32,bytes)": "c83f3a79",
					"updateRecord(address,bytes32,bytes)": "33dc55b4"
				}
			},
			"storageLayout": {
				"storage": [
					{
						"astId": 363,
						"contract": "contracts/HBVTracker.sol:HBVTracker",
						"label": "vaccinationHashes",
						"offset": 0,
						"slot": "0",
						"type": "t_mapping(t_address,t_struct(VaccinationRecord)358_storage)"
					},
					{
						"astId": 367,
						"contract": "contracts/HBVTracker.sol:HBVTracker",
						"label": "authorizedHealthcareProviders",
						"offset": 0,
						"slot": "1",
						"type": "t_mapping(t_address,t_bool)"
					},
					{
						"astId": 371,
						"contract": "contracts/HBVTracker.sol:HBVTracker",
						"label": "authorizedResearchers",
						"offset": 0,
						"slot": "2",
						"type": "t_mapping(t_address,t_bool)"
					}
				],
				"types": {
					"t_address": {
						"encoding": "inplace",
						"label": "address",
						"numberOfBytes": "20"
					},
					"t_bool": {
						"encoding": "inplace",
						"label": "bool",
						"numberOfBytes": "1"
					},
					"t_bytes32": {
						"encoding": "inplace",
						"label": "bytes32",
						"numberOfBytes": "32"
					},
					"t_mapping(t_address,t_bool)": {
						"encoding": "mapping",
						"key": "t_address",
						"label": "mapping(address => bool)",
						"numberOfBytes": "32",
						"value": "t_bool"
					},
					"t_mapping(t_address,t_struct(VaccinationRecord)358_storage)": {
						"encoding": "mapping",
						"key": "t_address",
						"label": "mapping(address => struct HBVTracker.VaccinationRecord)",
						"numberOfBytes": "32",
						"value": "t_struct(VaccinationRecord)358_storage"
					},
					"t_struct(VaccinationRecord)358_storage": {
						"encoding": "inplace",
						"label": "struct HBVTracker.VaccinationRecord",
						"members": [
							{
								"astId": 355,
								"contract": "contracts/HBVTracker.sol:HBVTracker",
								"label": "dataHash",
								"offset": 0,
								"slot": "0",
								"type": "t_bytes32"
							},
							{
								"astId": 357,
								"contract": "contracts/HBVTracker.sol:HBVTracker",
								"label": "exists",
								"offset": 0,
								"slot": "1",
								"type": "t_bool"
							}
						],
						"numberOfBytes": "64"
					}
				}
			},
			"userdoc": {
				"kind": "user",
				"methods": {},
				"version": 1
			}
		}
	}
}